:020000040800F2
:10000000004F0020B15B0008FDC600089D5B0008A2
:100010009D5B00089D5B00089D5B000800000000E0
:10002000000000000000000000000000855C0008E7
:100030009D5B000800000000215C000805760008B8
:100040003D5E00083D5E00083D5E00083D5E000824
:100050003D5E00083D5E00083D5E00083D5E000814
:100060003D5E00083D5E00083D5E00083D5E000804
:100070003D5E00083D5E00083D5E00083D5E0008F4
:100080003D5E00083D5E00083D5E00083D5E0008E4
:100090003D5E00083D5E00083D5E00083D5E0008D4
:1000A0003D5E00083D5E00083D5E00083D5E0008C4
:1000B0003D5E00083D5E00083D5E00083D5E0008B4
:1000C0003D5E00083D5E00083D5E00083D5E0008A4
:1000D0003D5E00083D5E00083D5E00083D5E000894
:1000E0003D5E00083D5E00083D5E00083D5E000884
:1000F0003D5E00083D5E00083D5E00083D5E000874
:100100003D5E00083D5E00083D5E00083D5E000863
:100110003D5E00083D5E00083D5E00083D5E000853
:100120003D5E00083D5E00083D5E00083D5E000843
:100130003D5E00083D5E00083D5E00083D5E000833
:100140003D5E00083D5E00083D5E00083D5E000823
:100150003D5E00083D5E00083D5E00083D5E000813
:100160003D5E00083D5E00083D5E00083D5E000803
:100170003D5E00083D5E00083D5E00083D5E0008F3
:100180003D5E00083D5E00083D5E00083D5E0008E3
:100190003D5E00083D5E00083D5E00083D5E0008D3
:0C01A0003D5E00083D5E00083D5E00086A
:1001B0007BB972B90029BEBF00204FF0004106E0B4
:1001C00008BF00281CBF6FF000414FF0FF3000F067
:1001D00057B8ADF1080C6DE904CE002909DB002BFE
:1001E0001ADB00F069F8DDF804E0DDE9022304B071
:1001F0007047404261EB4101002B1BDB00F05CF8D3
:10020000DDF804E0DDE9022304B0404261EB410186
:10021000524263EB43037047524263EB430300F0E7
:100220004BF8DDF804E0DDE9022304B0404261EB65
:1002300041017047524263EB430300F03DF8DDF8A3
:1002400004E0DDE9022304B0524263EB430370474C
:1002500053B94AB9002908BF00281CBF4FF0FF312D
:100260004FF0FF3000F00CB8ADF1080C6DE904CE92
:1002700000F022F8DDF804E0DDE9022304B0704765
:10028000704700BF10F8012B11F8013B012A28BF6D
:100290009A42F7D0D01A7047034611F8012B03F8A1
:1002A000012B002AF9D17047034613F8012B002ACD
:1002B000FBD1181A013870472DE9F04786468C4665
:1002C0000846089E154674461946002B40F0C28029
:1002D0008542B2FA82F245D94AB1C2F1200300FA4E
:1002E00002FC2EFA03F3954043EA0C0C94404FEACB
:1002F000154EA8B2BCFBFEF8230C0EFB18CC08FB75
:1003000000F943EA0C43994528D9EB1808F1FF3767
:1003100004D2994502D9A8F102072B44A3EB0903A3
:10032000A4B2B3FBFEFC0EFB1C330CFB00F044EA52
:100330000344A04214D92C190CF1FF3304D2A0427B
:1003400002D9ACF102032C44241A43EA07401EB13F
:10035000D440002334607360BDE8F0874746DDE792
:100360006346F1E792BB431B01214FEA154EAFB242
:10037000B3FBFEFC200C0EFB1C330CFB07F840EA21
:100380000343984562D9EB180CF1FF3004D298452D
:1003900002D9ACF102002B44A3EB0803A4B2B3FBD7
:1003A000FEFC0EFB1C330CFB07F744EA0344A74298
:1003B0004ED92C190CF1FF3304D2A74202D9ACF16B
:1003C00002032C44E41B43EA0040C0E7C2F12003CF
:1003D00020FA03F1954090402EFA03F303434FEACD
:1003E000154EAFB2B1FBFEFC0EFB1C10190C0CFB42
:1003F00007F841EA0041884504FA02F422D9691855
:100400000CF1FF3004D2884502D9ACF10200294436
:10041000A1EB08019BB2B1FBFEFC0EFB1C110CFB17
:1004200007F743EA01439F420ED9EB180CF1FF3165
:1004300004D29F4202D9ACF102012B44DB1B41EAFA
:10044000004192E76046E3E76146F7E76046A3E7CD
:100450006346B7E7834206D916B9002108467BE711
:10046000C6E900E0F9E7B3FA83F78FB9834201D315
:10047000724508D8BEEB020460EB030301209C46E2
:100480001EB9002168E73846FAE7C6E9004CF8E7EC
:10049000C7F1200CBB4022FA0CF41C432EFA0CF1DD
:1004A00020FA0CF3B84001434FEA14490EFA07F55D
:1004B000B3FBF9F81FFA84FE09FB18300B0C08FB9C
:1004C0000EFA43EA00439A4502FA07F240D9E318CC
:1004D00008F1FF3004D29A4502D9A8F10200234462
:1004E000A3EB0A0389B2B3FBF9F809FB183308FB45
:1004F0000EFE41EA03418E452CD9611808F1FF3305
:1005000004D28E4502D9A8F10203214443EA0040F7
:10051000A0FB0298A1EB0E014145CE46434602D313
:1005200006D14D4504D2B9EB020E68EB0403013845
:10053000002EA6D0B5EB0E0261EB030101FA0CFC14
:1005400022FA07F34CEA0303F940C6E9003198E7C1
:100550004046C5E74346D9E72DE9F047044688B051
:10056000884617460DF068FD0A220023FFF770FE4B
:10057000B8F1010F06460D4607D102460B4620464C
:1005800027490BF07FF8002011E07F6825483946A5
:10059000FFF778FE70B124483946FFF773FE48B183
:1005A000204622493A460BF089F86FF0040008B063
:1005B000BDE8F0873046294617A3D3E90023FFF7AB
:1005C000F7FD06460D4610461946194A0023FFF767
:1005D000EFFD80460F46104619464EF66022002376
:1005E000FFF7E6FD82468946104619464FF47A72B7
:1005F0000023FFF7DDFDCDE902A9CDE90623CDE912
:100600000401CDE900870B4932462B4620460BF00A
:1006100039F8B8E7AFF30080005C26050000000061
:100620000CFE00081DFE000820FE000829FE000840
:1006300080EE360041FE000810B50D4904460BF06F
:1006400021F80C4B0C4A19780C4B2046002918BF96
:100650001A460B490BF016F80522204609490BF003
:1006600011F8204608490BF00DF8002010BD00BF1E
:1006700096F500088C0100208DF5000882F5000831
:10068000C9F50008D5F50008E5F5000810B50B48D8
:10069000036803F00703022B03D9094A03210AF078
:1006A0002DFC084B9C684FF400516369054898473E
:1006B000002141F288300DF020FCF4E71402002004
:1006C0002DF600089CE60008022970B5044605D006
:1006D0001E490AF0D7FF6FF0150013E055681C495A
:1006E0002846FFF7CFFD80B91A4D2B785BB91A4B1E
:1006F000186808F0D1FE012318492B7020460AF033
:10070000C1FF002070BD1649F8E728461549FFF7DC
:10071000B9FD0546B0B90F4E33788BB10E4B186852
:1007200008F09CFD1048357003691B689B048368C2
:100730004FF4005154BF1B69DB6898470B49DDE754
:100740000B49DBE70B492046C3E700BF3EF6000834
:100750005DF600088C0100208810002063F6000878
:100760007EF60008A2F600089CE60008A7F600083E
:10077000C0F60008E1F6000830B52D4D2B6803F0F7
:100780000703022B89B004D92A4A032128460AF01C
:10079000B5FB294C20460DF03EFA60B92B685A078C
:1007A00004D0264A224801210AF0A8FB6FF0120467
:1007B000204609B030BD2269A168136823F40053B4
:1007C00013600B6820464FF420220D219847041E29
:1007D00009DA2B685B07EBD0194A1548234601213B
:1007E0000AF095FBE4E700220023CDE9062300236D
:1007F0000522CDE90323CDE9013300931149124BC2
:1008000012484FF4007208F013FC114B18601149A4
:1008100008F040FB2B6803F00703022B01D80024EB
:10082000C6E70D4A024803210AF068FBF7E700BF5C
:10083000140200200BF700089CE6000832F70008BD
:1008400055F70008402B00208D06000858030020B3
:10085000881000207BF7000884F700082DE9F04F8E
:1008600091B08407009302F004030293C2F3C20321
:1008700003F10103DDF86880039205460E460593F7
:1008800040F0BA81041D30B1072909D86FF01B0070
:1008900011B0BDE8F08F01F007063444C6F1080638
:1008A000009B4FF00009591E4FF0040A4FF0FF3330
:1008B0000193CDF810904F46CB4653460DB1009AA8
:1008C00022600598002800F3E8809848009A824248
:1008D00003D397488242C0F0E080039AA4EB050E50
:1008E00092074FEA9E0000F103810F2F00F2B180C2
:1008F000002D00F0058107F140020DEB020C019A7A
:100900000CF8200C0CF8102C049801300490E7E04F
:100910007A285DD84B280ED8472859D829282DD8B1
:10092000252852D054D820287AD02338D0F1000B73
:100930004BEB000B74E04C382E2849D8DFE800F070
:100940007048484848484848484848484B484848FC
:10095000484848484859484B4B595959704B6D487D
:100960007048184B184848827F4B48484B487F00D6
:1009700000204FF0000B4FF0040A38E02A38C0B2D4
:10098000012202FA00F010EA0E0F49D110F0625C69
:100990002FD110EA020B43D06046013C5444B4FB13
:1009A000FAF40AFB04F4002D61D0A3EB050CA44477
:1009B000B4453FF66BAF002868D1042B47D158F8F7
:1009C000043B2360043404232AE0019A013A019293
:1009D0004FF0000B24E011F8010C6C2834D111F811
:1009E000023C00206C2B8346C5D14FF0080A5346C9
:1009F000D3E708F1070828F007080734F8E802AB46
:100A000024F0070435B106982044B0423FF63EAFCB
:100A1000C4E900AB08344FF0000B4FF0080A53460E
:100A200011F8010F002878D0BBF1000F7FF470AFF0
:100A30002528F5D1019B013301934FF0010B4FF0B5
:100A4000040AECE7584694E700208346A5E7082B04
:100A500002D06FF015001BE708F1070828F007081F
:100A6000F8E80223C4E9002308340823D8E768B96A
:100A7000042B02D108F10408A4E7082BE9D108F1FE
:100A8000070828F0070808F10808EDE7059A013A79
:100A9000059258F8042B009210E7039A900720D58E
:100AA000A4EB050E4FEA9E004FF0010CBEF5007F4F
:100AB000CFD20F2FCDD8F5B107F140020DEB020ECA
:100AC000C0B2019A0EF8200C0EF8102CBCF1000FE9
:100AD0003FF41AAF60F07F000EF8200C09F1010915
:100AE0000137C5F10802043406924FF6DA7E97E723
:100AF0004FF0000CDAE7BCF1000F01D00136EFE750
:100B0000029802360028EBD10098CDE90631FFF7B4
:100B1000CBFBDDE906310644E2E7631BB3F5806FEA
:100B200097D23DB9A6F10804E018B1E6D8E4000870
:100B300090190108029A28609B082B709DF81030CC
:100B4000C2B1EB7085F80290B9F1000F05D008A88A
:100B50000022C5F1010C97420ED1C5F101030DF140
:100B600020084FF0000A01930DF1300B574512D1C8
:100B7000601B8DE66B70E5E710F8013B190608D5A0
:100B80000CEB040EB64503F07F033FF67FAE04F88E
:100B9000013B0132DFE7B9F1000F03D098F90020E3
:100BA000002A17DB029BD3B11AF80B2004F8012BA3
:100BB0000022019B18191044B0423FF667AE98F826
:100BC000000004F8010B0099039220460DF089FB08
:100BD000039A14440AF1010A08F10108C6E798F8DB
:100BE000002055F822300093029B45F822300098EF
:100BF000FFF75AFB421CDCE76FF00D0048E600BF30
:100C00002DE9F04F97B000AF90F802A0D7F880B070
:100C10003B62CBF3C0030446FA62BB61894641B92B
:100C2000457800780AEB800020444D4517D8A0EBAA
:100C30000409E378FB61BAF1000F02D01BF0010F49
:100C400016D1FB6953BBFB6A1BB13A6A4946204681
:100C500098474D4628465C37BD46BDE8F08F461C98
:100C60003046FFF721FB0130304409F10109DCE790
:100C7000237862687A62FA6A9900796104EB8301E9
:100C8000002A40F004814D460E4601EB0A094FF060
:100C900000084E4550D101EB0A0610E01BF0020F90
:100CA000D1D023789A007A6162687A62FA6A04EB9A
:100CB0008301002A7BD14D4601EB0A0690461BF0CA
:100CC000050F0CBF02230123FB62FB6906EB430AFD
:100CD0000BF00203BB625645BCD016F8021B16F897
:100CE000013C54F823909B4B994502D39A4B99456C
:100CF0003AD3BB69002B44D0786A09F0FEFC002887
:100D00003FD09648036813F0060F13D0E9468AB027
:100D10006A46934B53617B6AC2E906314FF4007314
:100D20001384904B42F8103F00234FF4125100F00F
:100D30001BFDCD46023DCEE716F8013BF96254F8A3
:100D40002300FFF7B1FAD7F88430F96A01304BB1CC
:100D5000D7F8883098453EBFD7F8843023F818007C
:100D600008F10108054494E7BB6923B1786A09F0EA
:100D7000C4FC0028C5D11BF0010F05D1FB6AED1A98
:100D8000A9E7BB6A002BA6D04846FFF78DFAD7F833
:100D9000843053B1D7F8883098453FBFD7F88420C6
:100DA000431C22F8183008F10108054493E7BAF112
:100DB000000F72D01BF0040672D0D046002607F157
:100DC000480052463B61B9620DF08BFAB96A3B6943
:100DD00001EB0A02BA62FA69F9695200FA60BA6A6A
:100DE00002EB41023A610BF00202BA603A69B96A59
:100DF0008A4257D162787A621BF0020F32440CBFEC
:100E00004FEA580100211BF0010FD2B240F09F8041
:100E10001BF0040F14BF40460020BB616270A0703D
:100E2000E1703A6A7969FB6A20469847051EFFF629
:100E300011AFBB6923707B6A6370FB69E370414645
:100E40003A6AFB6A84F802A007F148009847B0F1BB
:100E50000008C0F2BB807B693A6AA9EB0A01C91A93
:100E6000FB68C91AD7E90A0398470028C0F2B08086
:100E7000A84408EB00054FF0000B07F1380AB34512
:100E800072D300213A6AFB6A08469847E2E6564662
:100E90004FF0000807F1380093E75646D04697E731
:100EA000B04695E7BA6A12F8021BBA6212F8015C02
:100EB000284A54F82500904202D3274A90421ED374
:100EC000BA6932B1786A7B6009F017FC7B68002848
:100ED0008CD1BA6802BB08F1280207F1300C08F186
:100EE0000100944407F1580252FA80F008F1020818
:100EF0000CF8101C5FFA88F800F8105C76E7BA6905
:100F00003AB1786A7B6009F0F8FB7B6800287FF4CF
:100F10006DAF1BF0010F09D006F1280207F1300078
:100F2000711C161806F8205CCEB25FE71BF0040FA8
:100F30003FF45CAF08F1280207F1300008F101012D
:100F400002EB000808F8105C5FFA81F84EE7002019
:100F500063E700BFD8E400089019010804020020EC
:100F600019F80008040000011BF80A3087F8373030
:100F700054F82390D7F884302BB3D7F888309B45AA
:100F800021D2D7F8843033F81B803A6AFB6A0121FA
:100F900007F13700984700281ADB0544B8F1000F25
:100FA00006D14846FFF780F900F101081FFA88F8DA
:100FB0003A6AFB6A414648469847002808DB0544E0
:100FC0000BF1010B5BE74FF00008DEE7454641E619
:100FD00005463FE6014B1860704700BFB000002097
:100FE00080B505460E461746984608F07BFB03463B
:100FF0000DF068FADFF81890044649F800304246D0
:1010000030463946A84754F8090004F0F3FD00BF04
:1010100008000000034A536823F0020353600020D5
:10102000704700BF002004E0084B1A6842F4807249
:101030001A601A6842F400721A601A6842F48062F8
:101040001A60034B034A1A60704700BF003C02401D
:10105000740100200024F4002DE9F047DFF85880E7
:10106000044607464FF0010914B93846BDE8F08739
:1010700094FAA4F5B5FA85F509FA05F32E0108EB03
:1010800005156FEA030A24EA03042B7B002BEBD03F
:1010900058F806301B694BB9464404227368284649
:1010A000196807EA0A0709F0A5FEDDE72846984710
:1010B0000028D9D1F0E700BF30EC000830B5104966
:1010C000104889B000220CF0B9FF0F4D0F490022E3
:1010D0000023CDE9062300240E23CDE90334CDE916
:1010E00001440B4B00944FF44072284607F0A0FFD8
:1010F0000849284607F0CEFE204609B030BD00BFA3
:1011000019110008D008002010040020802D0020B4
:1011100061140008E1F80008014807F0EFBC00BFC7
:10112000580200202DE9F047804620480F4609F07C
:1011300031FE0646002832D000252846BDE8F0875B
:10114000237B83B12368DB680BB120469847636833
:1011500083F8069023681B69CBB963680422196879
:10116000204609F047FE013610345445E8D3B8F163
:10117000000FE2D0002DDFD02846FFF76DFF0546B7
:10118000002FF7D0002164200CF0B7FEF2E72046D4
:1011900098470028E1D009FA06F31D43E3E7044C21
:1011A000DFF810A005464FF00109DEE79C10002093
:1011B00030EC000840EC000808B5034608462BB1A7
:1011C000044A136000F072FD002008BD6FF01500A6
:1011D000FBE700BFB400002010B5044C237813B91E
:1011E000034807F08BFC0123237010BDF42A002074
:1011F0005802002010B504460B4809F0CBFD5CB145
:10120000BFF35B8F094B53E8001F013943E800121D
:10121000002AF8D1BFF35B8F05480CF01BFF05488F
:10122000BDE8104007F06ABC941000209810002020
:10123000D0080020580200200020064BBFF35B8F2F
:10124000014653E8000F43E80012002AF9D1BFF32A
:101250005B8F70479410002070B5FFF7EDFF084CCE
:10126000084E0546B44200D370BD63685B792BB16C
:1012700023685B6813B12946204698471034F1E78C
:1012800030EC000840EC000810B5044C044920463E
:1012900009F06AFB034B1C6010BD00BFC0010020B9
:1012A00024EE00088C1000200E4A0F48002310B5D1
:1012B00013700E4A13600E4A4FF47A711360FFF7F1
:1012C0007BFFFFF7E1FF00F079F90A4B0A49184666
:1012D0008B4200D310BD1A1A5C68121101322271C0
:1012E0001033F5E7F52A0020AFAD00089410002078
:1012F0009810002030EC000840EC00080146002265
:101300000148002309F051BBC0010020014809F049
:10131000EABB00BFC0010020024B0146186809F07B
:1013200036BC00BF8C100020014809F06BBC00BF28
:10133000C00100202DE9F041324B187800285FD021
:10134000FFF7E4FF0446002856D12F4B2F4C1B68B3
:10135000002B12DD0CF070FE0A220023FEF778FF4E
:10136000D4E90032C01A40F2E93361EB020198423D
:1013700071F1000101D3FFF76FFFD4E9003213F5DB
:101380007A7342F10002C4E90032BDE8F041FFF790
:10139000CBBF6B685B793BB121784B0717D52B68C6
:1013A00021461B682846984710354545F1D320460D
:1013B000FFF7B2FFBFF35B8F154B53E8001F0139F6
:1013C00043E80012002AF8D1BFF35B8FBDE7204647
:1013D0002688C1F3C20700F0A7FAC6F382160246B8
:1013E000002EDCD00028DADB01233946284600F045
:1013F00095F9B042D8D3D2E7064DDFF81C80D4E788
:10140000BDE8F081F42A002094100020C8080020D4
:101410009810002030EC000840EC000870B50D4D2D
:10142000297861B90120FFF77DFE0B4C0B4EB442C9
:1014300006D3FFF77FFF0028FBD101232B7070BD7F
:1014400063685B791BB1236820469B68984710341A
:10145000EDE700BFF52A002030EC000840EC000862
:1014600000212DE9F0470846FFF75CFE044658B31B
:101470004FF4FA784FF000090DF024F81B4B1C4A8A
:101480001B58136033B11B4B1B68092B02DD1A4834
:1014900007F034FB194FDFF860A0002544B1204667
:1014A000FFF7DAFD044618B94FF0FF384FF0FF3967
:1014B000FFF740FF064628B9B5B942464B465046AD
:1014C00007F056FB3546E9E74FF0FF384FF0FF399C
:1014D000D2E72B689B691BB100221146284698472A
:1014E0001035BD42F5D3E8E7054DFAE708000000E6
:1014F00090100020981000205802002040EC0008B6
:1015000030EC000813B5184809F044FC174B1B7861
:1015100073B1EFF31184102383F31288BFF36F8F3D
:10152000FFF708FF84F31188BFF36F8F02B010BD7F
:101530000F4B1B68002BF9D050B900220023CDE9D6
:1015400000230C4842F21072002308F04BFCEDE738
:101550000928EBD107480CF07DFD074802B0BDE833
:10156000104007F0CBBA00BF98100020F52A0020E9
:1015700090100020D00800205802002010B5064B23
:101580001B68044698472146A060044809F08CFA7D
:10159000BDE81040FFF7B6BFB4000020C001002036
:1015A000044A054B9B1AB1EBD30F34BF52F83100FC
:1015B00000207047B0EB000830EC00080B480C4BE3
:1015C00030B51B1A0B4CDB0800210430994200D1C6
:1015D00030BD10F83120256802F0070225F007051C
:1015E0002A4344F8042B0131F0E700BFB0EB0008B8
:1015F00030EC000804020020F8B50B4F0B4DED1B3A
:101600000646ED080024AC4203D14FF0FF342046DB
:10161000F8BD57F8340020B13146FEF733FE0028FC
:10162000F5D00134EFE700BFB0EB000830EC000864
:1016300000282DE9F047884615461F461DDADFF8D9
:101640009890264E4FF0000AA6EB0906360954463C
:10165000B24509F1100902D12046BDE8F08759F8DA
:101660000C0C3B4600792A464146FFF7E1FF8442D5
:1016700038BF04460AF1010AEAE7194B194AD21A9F
:10168000B5EBD20F26D203EBC5031C79BC4228BFB1
:101690003C46154EC0B200EB400056F825300722FC
:1016A000824023EA020304F0070282401343002130
:1016B000032223FA02F000F00700814202F1030244
:1016C00038BF01461E2AF4D123F007030B4346F826
:1016D0002530C1E70024DCE730EC000840EC0008CE
:1016E000B0EB000830EC000804020020F8B5094D0A
:1016F000094BED1A06460F46ED080024AC4200D314
:10170000F8BD002122B23B463046013409F06AFBA5
:10171000A4B2F3E730EC0008B0EB000870B1416808
:10172000097973B1002A17DBCBB20C4951F82200BA
:1017300003EB4303D84000F0070070474FF0FF3140
:10174000EFE707490748401AB2EBD00F3ABF01EB69
:10175000C20108791846704704207047040200202F
:10176000B0EB000830EC00082DE9F04F8FB004AF6B
:10177000C1F34A28B8600D4691467B600C0DB8F164
:10178000000F67D0002607F114034FF0040B4FF051
:101790000A0AC7F80C80C7E907667E620193CDF894
:1017A00008B0CDF800A007F11C03F968324648469E
:1017B000FFF726FAB0F5006F034620D32A480368E6
:1017C00013F0060F17D06C468AB0D9F8041004AB9A
:1017D000264DC3E9055140F2FF71D9611A464FF415
:1017E00000711984224B42F8103F4FF412513346D6
:1017F000FFF7BAFFA5462C37BD46BDE8F08FC0F312
:101800000A0804F11700184420F0070080083B6024
:10181000FFF774FD68F35325044690B13B68154A01
:10182000C7E9083600F1100107F11403F961CDE9A9
:1018300000A3CDF808B0F96807F11C034846FFF78C
:10184000DFF968F353257B68B9682A46204609F01A
:1018500005FBD0E704F1170020F007008008FFF730
:101860004DFD0446EDE700BF0C020020F6F800082D
:10187000040000012FAE00082DE9F04F87B0DDE92C
:101880001279DDE9105A0446039193469846DFB178
:10189000CDF800903B46524610210020CDF8149020
:1018A000FEF7DCFFB0F5006F06460ED31C48036858
:1018B00013F0060F30D01B4A40F2FF73022107B02D
:1018C000BDE8F04F09F023BB3E4605F11700304458
:1018D00020F0070004F007048008FFF70FFD0BF06D
:1018E000070BE40044EA8B1444EA462444EA055416
:1018F000054640B13FB1CDF800903B4652463146D7
:101900001030FEF7ABFF039943462246284607B046
:10191000BDE8F04F09F0A2BA07B0BDE8F08F00BFF4
:101920000C02002035F90008406820B1034BC01AB2
:1019300040F38F0070474FF0FF30704704020020E3
:101940000EB403B503AB014653F8042B04480193CE
:1019500004F002FC02B05DF804EB03B0704700BF76
:1019600071AF0008CA0605D48B064CBF0249034973
:10197000FFF7E6BF704700BFE50001086DF90008FA
:101980002DE9F04F89B09B46149B06939DF84CA01F
:10199000159B0593169B179E049304460D4690468F
:1019A000BAF1000F00F09D8006F48073079309F0F0
:1019B00017FA06F00209024600283ED09149204657
:1019C000FFF7BEFF0746B9F1000F08D016F0440F2D
:1019D00035D18D492A462046FFF7B2FF074406F06D
:1019E000010353B1894B8A4953F82A20894B204679
:1019F000002A08BF1A46FFF7A3FF06F48073002BE6
:101A000049D006F00803002B63D1B8F1000F66D06F
:101A1000814942462046FFF793FF0546069B3D4419
:101A2000002B6DD1049B002B73D1F30700F1E480F0
:101A300031462046FFF796FFD8E00746C3E7774BCD
:101A400018680028CAD0764B4FF47A791B68B5FB2A
:101A5000F3F54FF46163B5FBF0F100FB115509FBA1
:101A600005F54FF03C0CB1FBF3F203FB1211B5FB93
:101A7000F0FEB1FBFCF300FB1E550CFB131109FB40
:101A800005F50091B5FBF0F56649CDE901E5204685
:101A9000FFF756FFA2E706F00803EBB1624B63497C
:101AA00053F82A202046FFF74BFF0546B8F1000FF8
:101AB00005D0594942462046FFF742FF0544BBF195
:101AC000000FABD05A495A462046FFF739FF05446C
:101AD000A4E74FF0000BE1E706F00805E6E745460E
:101AE0009CE7BBF1010F069B06D1002B64D1049B40
:101AF000002B7BD000250CE0002BF8D04D485CE09B
:101B00004D48069B4D49224608F0C6FD049B002B1C
:101B100068D0DFF82C81DFF82C91049F3146102F1C
:101B2000204628BF1027FFF71DFF4FF0000B5D4533
:101B300045DC059B49461A782046FFF701FF4FF028
:101B4000010B1BF0070F03D141462046FFF7F8FEBB
:101B50005F453BD9059B494613F80B202046FFF70C
:101B6000EFFE0BF1010BBBF1100FEAD13649204615
:101B70004FF0000BFFF7E4FE5A46059B9A5CA2F17A
:101B800020015F2928BF2E2230492046FFF7D8FECA
:101B90000BF1010BBBF1100F1DD01BF0070F03D190
:101BA00041462046FFF7CCFE5F455A46E5D8414600
:101BB0002046FFF7C5FEEBE71F485546A1E7414623
:101BC0002046FFF7BDFE0BF1010BB0E72049204690
:101BD000FFF7B6FEC5E7059B3B440593049BDB1B63
:101BE00004939AD1BAF1000F7FF41FAF204609B0D9
:101BF000BDE8F04F09F0AFB9064A05492046FFF7A6
:101C00009FFE15E74809010875F9000838EE00083D
:101C10000E03010870F900089AF90008A4100020CA
:101C2000A01000207EF900084CEE00089EF9000884
:101C3000A4F90008A7AF000871AF000859610008B7
:101C4000B1F90008A9F90008B3F900082C09010846
:101C5000AFF9000873B542F20F738B4228BF0B46F1
:101C600005680F4A04460521684608F0BFF9636815
:101C70000C495B6806460B22284609F05EF963684A
:101C80003246694628465B6809F057F96368064999
:101C90005B681B22284609F050F902B070BD00BFF6
:101CA000F1150108D1F90008B5F90008074A00212B
:101CB0000123904206D8064A01B901231360054B5F
:101CC0001860704740085B000121F2E740420F00B6
:101CD000A0100020A4100020014B036000207047DA
:101CE00060EE0008F0B40D4B0D4E5F6A0D4BB34231
:101CF00003D36FF08500F0BC70475C68BC420AD328
:101D00001D6945B194F802C08488E4B2A44502D1AB
:101D10002B46F0BC18472433E9E700BFA810002089
:101D200054030020300300202DE9F047144CDFF865
:101D30005480DFF8549005460E461746444503D3B9
:101D40006FF08500BDE8F0876268D9F824309A42C8
:101D500013D3A3698BB1A9889078C9B2884205D101
:101D60003A4631462846BDE8F04718475279012ADD
:101D700003D13A463146284698472434DEE700BF6F
:101D80003003002054030020A81000202DE9F0416A
:101D90000B4CDFF8308005460E461746444502D30B
:101DA0006FF0850009E063690BB92434F6E73A4621
:101DB0003146284698470028F7D1BDE8F08100BF9A
:101DC0003003002054030020024B00221A605A60A6
:101DD000704700BF6311002070B50B4B0B4CA34242
:101DE00001D3002070BD196A1E7F00220439D5B2CC
:101DF000AE4201D82433F2E7013211F83250854265
:101E0000F5D10120EEE700BF30030020540300208D
:101E100073B58488E4B263060D468DF8074007D099
:101E20002046FFF7D9FFD8B1174B93F8BA00B8B1E5
:101E30001648154E036803F007039DB1022B04D921
:101E4000134A2346032109F0F1F89DF8070004F036
:101E50005FFDF3691BB10DF10701082098470120D0
:101E600002B070BD022B04D90A4A2346032109F0AF
:101E7000DDF89DF8070004F071FDF369002BEED04A
:101E80000DF107010920E9E7A81000203C0200201D
:101E9000FDF9000810FA000808B503460448026876
:101EA000520703D0034A012109F0C0F8002008BD01
:101EB0003C02002025FA000838B5054604F0ACFDC8
:101EC00010F1780F044615D11148036813F0060F7E
:101ED00004D0104A2B46022109F0A8F8284609F040
:101EE000A7F80D4AD2F8C43023EA0003C2F8C43080
:101EF00000240AE00028F1D0054803685B0704D0FD
:101F0000064A2B46012109F091F8204638BD00BF52
:101F10003C02002040FA0008A810002061FA0008E6
:101F200008B509480378C3F341130A3350F8233046
:101F30003BB100F1080200F110019847C043C00F07
:101F400008BD1846FCE700BFA810002004282DE9B2
:101F5000F74FDFF89C9004460F4615D001282FD18B
:101F6000DFF8908098F8B93053B300F0F3FE224DBB
:101F70004D4522D22A6A4FF0000A2B7F5FFA8AF67B
:101F8000B34204D82435F3E7FFF71EFFE8E702EB7E
:101F9000C6060192307904F03FFD8346307909F09E
:101FA00047F8D8F8C430019A23EA0003BBF1000FC8
:101FB000C8F8C4300AF1010ADFDA002388F8B93022
:101FC0000D4D4D4508D30B4B1B6A6BB1394620466E
:101FD00003B0BDE8F04F1847EB681BB13A46214605
:101FE000284698472435ECE703B0BDE8F08F00BFE2
:101FF00054030020A81000203003002073B50446CD
:1020000080788DF8000023796279314D43EA02230C
:10201000ADF80230E37803F003038DF8043009F0E3
:1020200007F8D5F8C430184206460CD0A4782046EC
:1020300000F072FE2046FFF73FFF0BF0ACFE10B938
:1020400096200BF082FF68460AF007FD10F1780F2A
:1020500025D12048036813F0060F05D09DF8003005
:102060001D4A022108F0E2FF9DF8000004F0A0FCE8
:1020700010F1780F22D11748036813F0060F05D02E
:102080009DF80030154A022108F0D0FFD5F8C43081
:102090000120334385F8B900C5F8C4300CE00028AE
:1020A000E2D00C4803685A0705D09DF800300C4A6E
:1020B000012108F0BBFF002002B070BD0028E5D070
:1020C000044803685B07F6D09DF80030054AEFE747
:1020D000A81000203C02002083FA0008CAFA000879
:1020E000A6FA0008EAFA00082DE9F047A84EB369FD
:1020F00004460F461546FBB9237803F01F03012B56
:1021000000F09E80022B00F0068133BB94F90000A2
:102110002A686178002834DA062912D008292BD0E1
:10212000D9B901231370517096F8C3305B0043F0A6
:1021300001031370022328E198470028DCD1002016
:102140000DE06288100A011F0129844605D907287D
:1021500003D8716AD2B20C781CB96FF01500BDE8D3
:10216000F0874E78664503D19A4200F00981013329
:102170002144F0E70B7808E196F8BA301370012398
:1021800003E101390829E8D801A353F821F000BF81
:102190002B2200085B210008392200085B2100087F
:1021A000B52100085B2100085B2100085B210008C5
:1021B000C32100086088C0B204F01EFB0028BED016
:1021C000CBE76388756A63BBFFF7FEFD638886F81B
:1021D000BA30F369002BB2D06E4903209847AEE7BE
:1021E0006B78042B10D0052B11D0022B04D16F7902
:1021F0006388BB4208BF01202B781D442B78002B3D
:10220000EED10028A9D0DFE795F80380F4E76388D2
:10221000BB42F1D1B8F1000FEED12846FFF7EEFE38
:10222000EAE7FF270020B846E8E76388012B94D14E
:10223000002386F8C33082E76388012B8DD1F8E74D
:1022400096F8BA30D5F800C0002B86D0A388756AFE
:102250005FFA83FE2A46107800283FF47EAF51785B
:10226000022904D192F80480F04500F295800244DE
:10227000F1E78CF800208CF8012039605FE7154405
:1022800096E00B2A7FF469AF00274FF0FF08C146A4
:10229000BA4606E06B78042B0FD0052B21D02B78A3
:1022A0001D442B78002BF5D1F36913B1514607205B
:1022B0009847002F7FF443AF4FE795F80280A3883B
:1022C00095F803909845EAD163889945E7D1B8F12C
:1022D000070F1DD806EB0803AA4683F8BB90012719
:1022E000DDE7A3884345DAD16388DBB24B450AD0EA
:1022F000AF78384600F010FD3846FFF7DDFDB0FA44
:1023000080F77F09CBE72846FFF778FE0746C6E748
:10231000AA460027C3E794F900206378002A19DA57
:10232000002B7FF41AAFA3882D68DCB25B060AD0BD
:102330002046FFF751FD00283FF40FAF96F8BA3062
:10234000002B3FF40AAF294620460AF09BFB0023EE
:102350006B70EFE6012B08D0032B7FF4FEAE638891
:10236000002B7FF4FAAE012103E0618800297FF49D
:10237000F4AE2046FFF74CFD00287FF4E0AEECE61B
:10238000022829607FF4F6AE4B883B60D7E600BF99
:10239000A81000206211002094F900006278002843
:1023A000BFF66FAF002A3FF464AF0A2A7FF4D5AEC0
:1023B0002A78002A3FF4D1AE697804297FF45FAF10
:1023C000A9788B427FF45BAF072B96BF9B19002344
:1023D00093F8BB308CF80030D1E600BF2DE9F84F00
:1023E000DFF848A0DFF848B005460F46904699460A
:1023F00004264B4642463946284604F02FFB10F18E
:102400000B0F04460ED1DAF8003013F0060F05D09A
:102410002B465A460221504608F008FE07F0BEF847
:10242000013EE6D12046BDE8F88F00BF3C02002007
:102430000BFB000813B5164C237DF3B9E268A168C5
:10244000019201AB8020FFF7C9FF019AA3681344F2
:10245000A360E3689B1AE3606BB962B12369E28809
:102460009A4208DD94F8C82093FBF2F102FB113385
:102470000BB90123237502B010BD00231A4619467B
:102480008020237502B0BDE8104004F0E7BA00BF19
:10249000A810002030B585B0002302460D460193F8
:1024A000002860D100293DD108220B460DEB020126
:1024B0000AF0F5FA002804DA802004F029FA05B0C1
:1024C00030BD2E4C029A2260039A626004F13802F9
:1024D000A2609DF90820BDF80E302575002AC4E9D8
:1024E000035512DB802B0CD9254803685B0703D00A
:1024F000244A012108F002FD802004F009FA00209E
:10250000DBE713B1C4E90333D9E7FFF709FD00287E
:10251000D2D0E28823699A42D4BFE260E360FFF739
:1025200089FFCCE7154CD4E90215002D01AB04DC82
:102530000AF0B5FA0028C2DABEE72A460AF0AFFA76
:102540000028D9DB019AA3681344A360E3689B1AAF
:10255000E360002BB3D104F13803A360FFF7E0FC84
:102560000028DCD1A8E78028A9D1044BDA68002A2A
:10257000D5D11B7D002BD2D1A1E700BFA810002030
:102580003C02002032FB0008054B064A9A62064ACC
:10259000DA62064A1A63064A58629A610020704756
:1025A000A8100020E9200008E51C00088D1D000887
:1025B000291D00082DE9F3410446514D51484FF0C3
:1025C000FF334FF0FF3206F0D1F995F8B8308BB1F8
:1025D0004D48036813F0060F03D04C4A022108F05F
:1025E0008DFC6FF07704474806F038FA204602B0B9
:1025F000BDE8F0816B6A83B900F0DAF8FFF7C4FF39
:102600006B6A53B9404803685A0703D0404A012116
:1026100008F074FC4FF0FF34E5E73E482C62E861B7
:102620006E6A04F0E3F803F0EFFF041EDBDB00F05A
:10263000B3FB041ED7DB7378012B01D1F37953B9B7
:10264000314803685B0703D0334A012108F056FC88
:102650006FF01504C7E70026684685F8C830ADF866
:1026600002308DF804608DF800600AF0F6F9041E5F
:10267000B9DB802768468DF800700AF0EEF9041E79
:10268000B1DB264930460AF0DDF9041EABDB2349F5
:1026900038460AF0D7F9041EA5DB214CDFF8848008
:1026A00044451AD3002004F083F9041E9BDBD5F8BF
:1026B000C430802043F00103C5F8C43004F078F939
:1026C000041E90DBD5F8C43043F48033C5F8C43021
:1026D000012385F8B830002485E7276A0026227F89
:1026E000F3B29A4201D82434DAE707EBC30257F871
:1026F000331010790AF0A6F901360028EFD089E7E7
:10270000A8100020440200203C0200204BFB0008DF
:102710006EFB00084D1F000893FB0008952400087D
:10272000300300205403002030B51F4B8BB005AAA6
:1027300003F1100518685968144603C40833AB4206
:102740002246F7D11B7823701022002101A80BF03C
:10275000F0FD1222002115480BF0EBFD102101A81D
:1027600004F07CFC00281BDD0828B8BF08200938CD
:1027700001AB0E491A18002012F8013F0AAC04EB15
:10278000131403F00F0328336B44013014F8144C76
:1027900013F8143C0C7008284B7001F10201EBD1C6
:1027A00002480BB030BD00BFCDFB0008F72A002067
:1027B0002DE9F04F954B87B093F800A000AFBAF128
:1027C000000F04D092481C37BD46BDE8F08F904CF6
:1027D00000264FF00119FE603546B04623783BB91C
:1027E0008C4B02349C42F3D1884A01231370E9E7F1
:1027F0006378052B1DD8DFE813F0BC000600070145
:10280000BC001F005600402387F810A07B8287F889
:1028100014A007F1100004F059F840B108237B829E
:1028200007F1100004F052F808B1A7F812A07B8A53
:10283000E37123781C44D1E7E378002BF9D1A37826
:102840003BB3FB680133DBB2FB60F2E76A6894429A
:1028500022D024359D42F9D36F4803685D0716D016
:102860006D4688B06A466D4BC2E90534032342F8D1
:10287000103F00234FF4C251FEF776FFAD46664885
:1028800003685B0703D0664A012108F037FB00208C
:1028900099E7644D644BDDE7AB68002BD1D0F96854
:1028A00020469847CDE7002D61D15B4803685C075F
:1028B000EDD05E4A012108F021FBE0E72B6AA07809
:1028C00003EBC2010B79984247D14FF0010BE0783E
:1028D00000F003003875207994F805C040EA0C2018
:1028E000788294F9020000285FFA8BF328DA0BF162
:1028F00010004FF0010C0CFA00F010EA090F27D17C
:1029000043F08000387407F11000C7E90031BA6065
:1029100003F0DCFFD7E901123B68C8B93A7CA2702A
:1029200012F0800F18BF10330A7118BFDBB24FF0DE
:10293000010214BF9A4002FA0BF249EA020978E751
:10294000012000FA0BF010EA090F01D11846D9E76F
:102950000BF1010BBBF1100FB9D101322B7F9A4261
:10296000ACD32D480368590791D0314AA2E7002221
:10297000F4E7032E29D1FFF7D7FE8346C8B1FDF750
:1029800093FC0346A8B110280BD0234A126812F01A
:10299000060F06D0B860274A1F48022108F0AEFA99
:1029A000BB68102BA8BF10231A465946A01C0BF079
:1029B00098FC23786FF00201E218091B04EB530323
:1029C000D1420ED50136F6B233E7002EF1D1B8F17F
:1029D000000F0DD1104803685A073FF458AF164A4C
:1029E00068E702F801AC13F8010902F8020DE7E705
:1029F000A4EB080388F80230C3F3072388F80330F8
:102A0000FB6888F80430DDE7A04612E7F62A0020CC
:102A1000700200202D03002038020020DEFB000899
:102A2000C4FC00083003002054030020FEFB000813
:102A30003FFC00085CFC0008A7FC000810B5094B2F
:102A400000211A461C78844205D15C681CB14823D9
:102A500003FB012010BD0131042903F14803F1D12A
:102A60000020F7E7741100202DE9FF4150F8303CB9
:102A700010F8346C103304460AD1036950F8282C3E
:102A8000980740D5D2B9590715D5002344F8303CF2
:102A900054F8303C10330BD054E9097554F81C8CB1
:102AA0000BF079F900285AD0334821460BF057F93A
:102AB00004B0BDE8F08143F00403236103AB54F894
:102AC0002C1C3046FFF78AFC034658B12B4802689D
:102AD000520704D02A4A0096012108F022FA6FF02A
:102AE0001503D3E7039A54F82C3C134444F82C3CC8
:102AF00054F8283C9B1A44F8283C54F8243C1344CE
:102B000044F8243CC4E703AB54F82C1C304604F0D2
:102B100019F803460028D9D1039D54F82C3C2B44C6
:102B200044F82C3C54F8283C5B1B44F8283C54F8EF
:102B3000243C2B4444F8243C002DA6D0304609F018
:102B4000BCFFB5FBF0F303FB1055002D9DD154F8ED
:102B5000283C002B99D0304604F046F898E744F81A
:102B6000200CA4F1180005F0C9FF002DA0D04246AA
:102B700039463046A8479BE708090020400200205C
:102B8000F2FC00084B1E012B73B506460D4617D804
:102B9000FFF754FF0446A8B9012D11D101AB012262
:102BA0000DF10301304603F0CDFF019B002BF5D161
:102BB0000E4803685B0703D00D4A012108F09EF917
:102BC00002B070BD0BF0E7F804F1340108B1012D3B
:102BD00005D1084602B0BDE87040FFF745BF054883
:102BE00002B0BDE870400BF0BAB800BF4002002050
:102BF0000FFD0008080900202DE9F74F0646019156
:102C00001746984608F055FA0446002875D1EFF3A8
:102C100011830093102383F31288BFF36F8FDFF8C3
:102C2000E09000220023484605F0A2FFB8B9DFF883
:102C3000D4A0482262430AEB020BDBF8045015F1E2
:102C4000100F24D1304803685B0704D02F4A334665
:102C5000012108F05CF9484605F050FF0EE0013410
:102C6000042C09F14809DCD1274803685A0703D02E
:102C7000274A012108F042F96FF00B05009B83F30E
:102C80001188BFF36F8F284603B0BDE8F08F0AF8B4
:102C900002600C9A019BCBF814200D9ACBF810001F
:102CA000CBF8182030466FF00F02CBE90237CBF893
:102CB0004480CBF8042009F000FF68B1304609F0E9
:102CC000FCFEB7FBF0F202FB10772FB1DBF84420DB
:102CD00042F00402CBF8442018F0020F08D0482339
:102CE00003FB04A10B4834310BF039F80025C5E78C
:102CF000304603F079FF0546C0E76FF00F05C2E7E5
:102D000090110020741100204002002044FD0008B2
:102D100029FD00080809002010B5EFF311841023E5
:102D200083F31288BFF36F8FFFF788FE50B14368BB
:102D3000103307D16FF08B03436000F13401044876
:102D40000BF00DF884F31188BFF36F8F10BD00BF37
:102D500008090020F8B50E4C04251027EFF3118662
:102D600087F31288BFF36F8F6368103307D16FF05A
:102D70008B030848636004F134010AF0F0FF86F326
:102D80001188BFF36F8F013D04F14804E6D1F8BD0F
:102D9000741100200809002070B50A4C0A4E002565
:102DA000314620460AF0BFFF0122A4F11800114667
:102DB00001350AF078FF042D04F14804F0D1002019
:102DC00070BD00BFA8110020692A00080169012315
:102DD00081F84B300B6833B191F849301BB1024890
:102DE00008310AF0BCBF70470809002001690123BF
:102DF00081F84A300B6833B191F848301BB1024872
:102E000008310AF0ACBF70470809002070B50569A9
:102E1000EFF31186102383F31288BFF36F8FD5F879
:102E2000900007F057FF044686F31188BFF36F8FB9
:102E300030B104480022002305F1180106F000F823
:102E4000204670BD0809002070B5012382F8483083
:102E500013680D4614463BB192F84A3023B10E4830
:102E600002F108010AF07BFFD4F89030DA885B8920
:102E70009A4205D17DB904F118014FF47A7204E049
:102E800004F11801002DF8D00022BDE8704002487E
:102E9000002305F0D5BF70BD0809002070B50E46AF
:102EA00081880446C9B21548154608F0DEF810B30B
:102EB00094F900206378002A16DB202B04D0222B03
:102EC0000ED06FF085000AE02B681A6840F8102CCD
:102ED0009A8820F80C2C9B7900F80A3C002070BDE1
:102EE000638800F8093CF9E7212BEAD11038072361
:102EF00028603360F2E76FF01200F0E794120020D0
:102F000008B50146034808F0BEF810B1012300F8E7
:102F1000073C08BD941200200D4A03460021A0F88A
:102F200048101068C3F8940090889279A3F898002C
:102F300083F89A2083F89C1083F89B10A3F89E10C6
:102F400083F8A010402203F14C000BF0F2B900BF4F
:102F5000B8ED000810B504690023C4F8A8300C4B84
:102F6000C4F8A400596804F1A80269B9C3E90022B1
:102F700004F1080007490AF0D6FE04F118000649DA
:102F80000AF0FDFE002010BD0A605A60F0E700BFA5
:102F900094120020DDB000085130000830B54FF425
:102FA0000033426805690D4C85B042F2A100CDE9BD
:102FB0000103002385F89D30106AADF80C100079EC
:102FC0000A2201A9FFF70AFA95F89D3023B90120DA
:102FD0000AF012FE013CF7D105B030BDA186010018
:102FE00073B504698DF80710002384F84830102564
:102FF000EFF3118685F31288BFF36F8F0122D4F8A7
:1030000090000DF1070107F065FE86F31188BFF30C
:103010006F8F01280AD00AF0BEFE10B994F8A130D3
:103020006BB9094B1A780AB901221A700A220023D7
:1030300004F11801054805F003FF02B070BD00213E
:103040000A200AF05AFFD3E7092B002008090020C4
:10305000F0B5D0F88C305B681B6A1F7D85B00546E3
:10306000384608F026F8064650BB95F886303BB344
:10307000A86F0146C38831F80A2F9B1A9BB2B3F59B
:10308000806F28BF4FF4806303AA07F0D4FD044685
:10309000B0B18306A5F1180308BF00F1FF3485F82D
:1030A00030600193074B0399009322460223384670
:1030B000FFF7A2FDA86F224600F10A0107F0F1FD1B
:1030C00005B0F0BD492E000837B514460A1E054666
:1030D00021DDD4F88C0004F14C0107F0FBFD012345
:1030E00084F8493023683BB194F84B3023B1114840
:1030F00004F108010AF033FED4F88C2093889189FA
:1031000012695B1A9BB2D31A3F2B04D8012384F8AF
:10311000A03003B030BD94F89E30002BF9D0064BA0
:10312000009301940123402204F14C012846FFF74B
:1031300063FDEEE708090020C9300008F7B50D4629
:1031400001461D4807F085FF044610B30646691E78
:1031500056F8A4395F6805291BD8DFE801F01C1A6E
:10316000031C222610F8061C99B9012300F8063C1E
:103170003B6A3246187BFFF7A7FF14F85C2C42B974
:103180003B6A187D0D4B0093019602231146FFF711
:1031900033FD03B0F0BD304603B0BDE8F040FFF7AB
:1031A000BBBE012304F8053CF3E710F8053C002BF7
:1031B000EFD00023F6E700BF94120020492E00084C
:1031C00037B5094D0949002400944FF0FF334FF4FF
:1031D0008062284605F0F4FD0549284605F05AFEB0
:1031E000204603B030BD00BF08090020C0300020D9
:1031F00097FD000810B5044604F0CEFA03490246D4
:10320000204608F03FFA002010BD00BFB7FD0008BF
:1032100037B5134600220192054601AA58680A21D3
:1032200001F09CFC019C4CB920EAE0700A2180FB73
:1032300001010AF062FE204603B030BD2246034978
:10324000284608F03BFA019CF5E700BFE3FD0008C3
:1032500008B5034A034908F015FA002008BD00BF6D
:10326000D3FE0008DAFE0008F7B51746002305462E
:1032700001AA0A21B868019301F070FC1749C6B28F
:10328000284608F00DFA019C44B12246144928460C
:1032900008F014FA019C204603B0F0BD042E09D9B1
:1032A00010493246284608F009FA284608F042FA42
:1032B0000124F0E77868FEF79FF9021E07DA7A68C2
:1032C0000949284608F0FAF96FF01504E3E7334698
:1032D00012B22146204607F085FDDCE705FF000815
:1032E0006BFF000892FF0008A9FF000807B5002344
:1032F0000090694604488DF8043006F04FFB9DF8B5
:10330000040003B05DF804FB3BB3000810B50446AD
:1033100004F024FA07490246204608F0B3F9204693
:10332000054908F0AFF90548214606F051FB002099
:1033300010BD00BF08000108270001084133000844
:1033400070B58EB004460D46D0F89C600AF029FD99
:1033500003460BF0B7F8214A21491058214A002BA7
:1033600018BF1A460092204A2346844218BF0A46D4
:1033700028461E4908F086F9D4E90A23CDE900233E
:10338000284694F90E30227B194908F07BF906A9EA
:103390002022204605F08EFD636E1649024628461F
:1033A00008F070F905A920460AF009FD024628B187
:1033B0001149284608F066F90EB070BD059B6422DD
:1033C000F11A4A430091B2FBF6F20C49CDE90162D1
:1033D0002846324608F056F9EEE700BF0800000024
:1033E000B1F9000831000108181301083400010880
:1033F000400001086C00010883000108B0000108CA
:10340000F0B5002591B00446294608AF1C2209A852
:103410000AF08FFF134E1A22202138460AF089FF46
:103420002146114806F0D4FA07AA4FF4006130464D
:103430000AF0B9FC079A0097C2F5006164234B4378
:10344000DB0A05934FF40063CDE90313CDE90132A4
:10345000204606492B46A6F1400208F013F92846FB
:1034600011B0F0BD803D0020713400080101010859
:1034700070B50446D0F89C6088B00D4607A90AF0E4
:103480009EFC024628B10F49284608F0FBF808B018
:1034900070BD20460AF085FC079B0096F11ACDE925
:1034A0000131094B64224A43002818BF0346B2FB8E
:1034B000F6F20649CDE903622846224608F0E2F812
:1034C000E5E700BF83000108310001084A01010857
:1034D00038B51346054610225868002106F0B0FDA5
:1034E0000446FFF703FF38B90E492246284608F084
:1034F000E5F86FF0150038BD0AF0E4FF0A4B1B58E1
:103500009C4204D10949284608F0D8F8F1E7204642
:1035100005F0A4FE28460649224608F0B3F800202C
:10352000E9E700BFAE01010808000000C901010879
:10353000F101010838B513460546102258680021EC
:1035400006F07EFD0446FFF7D1FE38B90E4922464B
:10355000284608F0B3F86FF0150038BD0AF0B2FF46
:103560000A4B1B589C4204D10949284608F0A6F88A
:10357000F1E7204605F090FF28460649224608F06C
:1035800081F80020E9E700BFAE0101080800000053
:10359000300201085602010838B5134605461022CC
:1035A0005868002106F04CFD0446FFF79FFE38B92D
:1035B0000E492246284608F081F86FF0150038BD04
:1035C0000AF080FF0A4B1B589C4204D10949284647
:1035D00008F074F8F1E7204602F00CFB2846064993
:1035E000224608F04FF80020E9E700BFAE010108CD
:1035F0000800000091020108B60201082DE9F04F11
:1036000087B00446684604F0D5FF009F284ADFF8DB
:10361000A4A0DFF8A4B0242303FB007708212046F0
:1036200008F023F8009DBD4203D3002007B0BDE899
:10363000F08F2B680BB11A7832B92B461F4A142130
:1036400001A806F0D3FC01AB52460821204608F041
:103650000CF828460AF0DFFA194B1A4A002808BF6E
:103660005B460821204608F000F82B6AA3B11E68CB
:1036700096B1336883B1144A0821204607F0F5FF5C
:10368000B1464FF000083368104A434506D8104A47
:103690000821204607F0E9FF2435C4E759F8043F24
:1036A0000821204607F0E1FF08F10108EBE700BF21
:1036B000FD0201080C030108F402010807030108D8
:1036C000EE02010896090108110301080D03010823
:1036D000E50001082DE9F04114468846074610220E
:1036E0006068002106F0ACFCB8F1020F064607D86E
:1036F000254A20230821384607F0B7FF336816E033
:103700000A220021A06806F09BFCC5B21E4A2B4687
:103710000821384607F0A9FFB8F1030F1AD1102D80
:103720000CD0202DEAD0082D0BD13378DBB2174A0C
:103730000821384607F099FF002009E033889BB242
:10374000F5E73846124A082107F08FFF6FF01500A1
:10375000BDE8F081E0681022002106F071FC0D4AFE
:10376000034604460821384607F07FFF102D06D097
:10377000202D07D0082DE4D1E4B23470DCE7A4B2E8
:103780003480D9E73460D7E74B030108760301089A
:1037900060030108870301082DE9F04F87B000237B
:1037A0000193524BDFF848A1914601220746884613
:1037B0001A6002F013FD4FF0FF3520262C464946D3
:1037C0005246404602F02EFD411C06D16A1C41D1F2
:1037D0004849384607F072FF17E073281AD0772857
:1037E00028D0612811D1DFF810B101AADBF8000060
:1037F000102101F0B3F9019B0546002BDFD0DBF867
:1038000000203E49384607F059FF6FF0150007B019
:10381000BDE8F08FDFF8E0B001AADBF8000000217E
:1038200001F09CF9019B0446002BC8D0DBF8002076
:103830003349E7E7DFF8C0B001AADBF80000002158
:1038400001F08CF9019B0646002BB8D0DBF8002074
:103850002C49D7E7631C01D12B49BAE75FFA86F8F8
:10386000C6F3C406002C3FD002AB29461A46A6EB8D
:10387000050C0CE0B8F1100F1DD0B8F1200F20D0CE
:10388000B8F1080F2AD10878187031443344A642A1
:1038900003D80CEB01001028ECD9102CA14628BF4E
:1038A0004FF0100929464B46384601F02FF81035E5
:1038B000A4EB0904D6E7088880B21870000A587093
:1038C000E3E7086818704FEA102E83F801E04FEA2A
:1038D000104E000E83F802E0D870D6E70B4A08219C
:1038E000384607F0C2FE90E7204690E754010020DA
:1038F000D5030108DC030108541600209B030108CE
:10390000AE030108C1030108F903010860030108BF
:1039100070B50F4E044633780D4671B123B1BDE842
:1039200070400C4907F0CABE012333700A49204693
:1039300007F0A8FE0123337004E083F00103337025
:10394000002BF3D129462046BDE8704007F010BF98
:103950000A2B0020130401084E04010870B5044628
:103960003B480378182B02D10B78112B31D0013A48
:103970000B468D18AB4225D18B5C0A780370A2F1FF
:103980003003092B334C04D922F02003413B052B93
:1039900004D823683049CA54013323602368022BBA
:1039A00033D110222C48002106F04AFB2B4A136821
:1039B00003F8010B13602A4A1368013313600023D4
:1039C000236022E013F8016B182ED3D11E78112E3C
:1039D000D0D1234D23492A68204607F053FE2046C4
:1039E0000021FFF795FF204B187870B91F4A2B680C
:1039F0001168042B0ADC08B111602B6013F003017D
:103A00000BD1126813681BBA136070BD086800BA46
:103A100041F8040B043B0120EBE75B4203F0030396
:103A200058BF5942022904D1126813885BBA9BB26D
:103A3000EAE70329E9D1106802681104C2F30743D9
:103A400001F47F010B4302F47F4213430360DCE780
:103A50000B2B00209C1200200D2B0020A812002010
:103A6000A0120020780401080C2B0020A4120020D2
:103A70002DE9F84F0C462B49DFF8AC80DFF8AC900D
:103A8000DFF8ACB000230B602A4988F80030064606
:103A90000B601546012C2F4655F804AF1ED90222A3
:103AA000494650460AF06AFC80B99AF80220003A6A
:103AB00018BF012292442049022250460AF05EFCBF
:103AC00030B9012388F80030013CE3E70022F1E738
:103AD00049465046FCF7D6FBA8B9043700221146E8
:103AE000786806F0ADFA154B002211461860786828
:103AF00006F0A6FA124B134918603046FFF708FF8C
:103B00000020BDE8F88F9AF800202D2AE6D19AF817
:103B10000120002AE2D052465946304607F0B2FD55
:103B2000D2E700BF9C1200200C2B00209204010859
:103B300098040108A012002095040108A812002092
:103B4000A41200205D39000807B50A480AF063F89E
:103B500060B1094A07491268084804230093012309
:103B600000F03AFF002003B05DF804FB6FF0120094
:103B7000F9E700BF98E7000814EF000840EC0008E0
:103B800010B54468C4E90012A3604268134640219E
:103B900053F8404B53625163002302F13801C2E9EC
:103BA0000413C2E90A33C2E9063308211363116220
:103BB000C2F8B830A36823B19B6C13B10449204606
:103BC0009847A3689B6A0BB120469847002010BD18
:103BD000D53B00082DE9F34705460C4683685B6C2E
:103BE00003B19847AB685B6B73BB4FF0000904F1FE
:103BF000240704F12808218E238D626B5B1A9BB287
:103C0000D31A934228BF1346414601AA384607F00B
:103C100012F88246002844D0AB6801999B69002BBA
:103C200033D0024628469847064688B33246414676
:103C3000384607F036F856454FF00109DBD0D4E995
:103C400001310020984703E0284698470028CCD14E
:103C5000AB685B6A002B37D1628BE38A9B1A226ABE
:103C60009BB2934204F1100704F11A0828BF1346CF
:103C7000414601AA384606F0DEFF064658BB2846F4
:103C800007F071FBC4F8B86031E06FF05706CDE77C
:103C900002464146384607F004F8B9F1000FD7D084
:103CA000CDE71748036813F0060F03D0154A022129
:103CB00007F024F9AB689B69002BEED001220DF1CF
:103CC000030128469847E8E7284698470028C3D1CB
:103CD00002B0BDE8F087AB6801995B6963B1024649
:103CE0002846984702464146384606F0DAFFD4E9AE
:103CF000013101209847EBE76FF05702F3E700BF6F
:103D000024020020FF05010810B58168044618311F
:103D100001F0B6F9A168034A20461831BDE8104009
:103D200001F046B94106010838B58368D3F8783206
:103D3000DB0704461DD4C06908F03FFA60680368D9
:103D40005B689847054620B9E06808F004FCA36862
:103D50001D75A3685B6C13B1294620469847A3687C
:103D60000AF0B0FB0022C3F82023034B185801F0DF
:103D700041FF6FF00F05ECE708000000014907F074
:103D800090BB00BFE5000108F7B504468068D0F895
:103D900078325A070D4605D5002107F0AAFBE068E6
:103DA00008F0ABFBE368DB6873B9002D3BD0A66875
:103DB00006F15607384607F081FB002835D0394612
:103DC00006F5AB70FCF768FAA268E0680DF106032F
:103DD0005632294608F094FB58B9A06800F5AB713B
:103DE0005630FCF759FAA068563007F067FBADF87B
:103DF0000600204607F0AFFFA368D3F874329B0695
:103E000003D50B49606907F04CFB204600F00CFF1E
:103E1000A268BDF80630A2F85230A2682046A2F887
:103E2000503007F0FDFE03B0F0BD86F85601CBE739
:103E3000BFED00082DE9F04FA7B004465422002141
:103E400011A80AF076FA0023CDE90533A3682046CD
:103E50005633029307F086FF204607F0CAFE10B9DA
:103E60006069FFF78BFFA0681422002118300AF068
:103E700060FA204607F063FEA168E068B1F85020C0
:103E80005631002608F073FB204608F002FC4FF084
:103E9000FF37B24603960DF14408B3463546B146A6
:103EA000DDE90532012A6DD0132B6ED85FBBBBF163
:103EB000000F0AD0204608F00DFCA26814235632E9
:103EC00011A90DEB030007F0B9FCB9F1000F0CD0FC
:103ED00099F81130FE2B08D1059B26AA02EB83022C
:103EE00052F8542C0AB101330593A068059D436A2A
:103EF000002B40F0B680CEB1C3699E422DD00D9606
:103F000000F1180524E0029A0223414606A807F0B2
:103F100095FC0699D8F804200292034631B1012994
:103F20000AD148B16D4A204607F0CEFF6FF0070571
:103F3000284627B0BDE8F08F059B002B34D0D8F879
:103F4000000001F0CFF898B166B1A5680D9618355C
:103F50000CAE0FCE0FC533682B602046FFF7D4FEA2
:103F60000125E5E75E4A0121204607F0ADFFDDE7C8
:103F7000059BCBB1D8F800202946204601F054FA21
:103F8000022809D1059B132B91D9069B022B8ED1B8
:103F9000544B554A0121C6E7032805D0059B013340
:103FA00005934FF0010B7BE7039B33B9D8F8001062
:103FB00007AA484607F039FD054608F10408013F05
:103FC0009DB3EB68BBF1000F08D0F3B1204607F0BA
:103FD000C9FE204607F024FE444AC4E7ABB1A368FB
:103FE000DDF814A0AE4603F1180CBEE80F00ACE8F3
:103FF0000F00DEF80030CCF80030AB682BB96B7CDA
:10400000FE2B04BF2F7C07F1FF37D5F804C0BCF1AD
:10401000000F08D0AE46BEE80F000CAE0FC6DEF8AB
:10402000003033606646A94603E0059B53B1012387
:104030000393069B17B9022B7FF432AF059B013324
:1040400005932DE7A368DB6A13B1DB68002BEED183
:10405000274B0093274A119B0121204607F034FF8C
:10406000E5E790F82830A5EB0A05BBB190F82910D8
:104070004FF6FF72FF2918BF0A469D4202D3134430
:104080009D420BD983691C4A0121204607F01CFF81
:104090002046FFF739FE6FF0150549E7012107F0CB
:1040A0001DFAA06800F5437007F03CFAA36811AA56
:1040B000294602EB8A025B6A204698470546A068BB
:1040C0004FF0FF324FF0FF3300F5437007F0D1F9A6
:1040D000A068002107F002FA2AE700BF4F06010896
:1040E00063060108C4060108C4FF00088106010830
:1040F000B0060108C3090108E806010810B5836885
:1041000002221A7583689B6C0446BBB907F088F9D4
:104110008368D3F87832DB040BD50321084B094AB6
:1041200007F0D2FEA0686FF4805100F51E7007F012
:1041300091F92046BDE8104000F0FCBE10BD00BF64
:10414000030701080E0301082DE9F04F04468068BB
:10415000B1B0012100F51E7007F06DF9A3681B7D59
:10416000022B20D100230993A36860689E6C03682A
:104170001D6909AB0EB310221BA9A847099B93B177
:10418000A068012107F0AAF9099A1BA92046B047A7
:10419000A068002107F0A2F9A3689B6C002BE3D173
:1041A0002046FFF7ABFFA0686FF0010100F51E701D
:1041B00031B0BDE8F04F07F04DB901220DF12301F8
:1041C000A847099B002BEED09DF923209DF82330B2
:1041D000A068002AC8DB427D032A00F2F482DFE8EF
:1041E00012F0040075028C02F2020D2B67D00A2B2C
:1041F00043D0B0F87822092B6FF3CA02A0F87822D6
:1042000072D029D8002B00F00381082BA06800F0A1
:10421000E9810246D2F87412890740F1F980013B26
:10422000162B00F2F580DFE813F0B702FA01FE0169
:10423000F601B1021002F300F300F300F3001402E0
:104240001802F3002D02F3003202F300F300F30032
:10425000F3003402F30049021B2BA06841D07F2BEE
:1042600000F0CC81A3F120015E290246D2D80121C1
:1042700007F03FF99DF82310B8E0D0F87822C2F398
:10428000C7022AB1D0F87822C2F3C7020A2AC0D1E5
:10429000B0F8782263F3CA02A0F87822A568B5F8CE
:1042A0005010C1B9284607F024F9E06808F025F954
:1042B0006069FFF763FD2046FFF720FF54E7D0F861
:1042C0007822C2F3C702002AE2D0D0F87822C2F3E3
:1042D000C7020D2ADBE72046FFF7ACFDC5F8240333
:1042E000E9E70123437593E0A068D0F874329B0797
:1042F00040F18E80012107F0FCF8A068B0F8503042
:10430000FF2B00F08580B0F8522000F1560100F537
:10431000AB7009F0E6FFA368B3F852201344002500
:1043200083F85651A2681BA9142302F5AB720BA89F
:1043300007F084FA0B9914296AD830AB03EB810398
:1043400043F8545CA368B3F85220002A52D01344B7
:1043500093F85530202B02D0093B042B4AD8002972
:104360004BD100250A950A9B30AA02EB8303002655
:1043700053F854AC504607F0A1F8B3468146B04616
:10438000374616AA3946284600F0AEFB03460028F9
:1043900042D1012E68D10A9B30AA02EB830353F865
:1043A000540C07F08BF8A26806461832414628469E
:1043B00000F09AFB0568284607F080F8864205D091
:1043C000821B92B2A919204607F0C5FDA068B0F87B
:1043D0005230034493F85630202B34D0093B042B41
:1043E00031D9D0F87432DF0732D42021204600F0D2
:1043F00069FD0DE00129B4D9013900200CAB00930F
:1044000001900AAB1BAA07F03BFB05460028AAD186
:10441000606907F0B3F9A7E61B6803934A46514663
:10442000184609F0ABFF60B9039B1846FBF73CFF49
:10443000584538BF58461FFA80FB002E08BFB846C3
:10444000013601379DE70121204607F01DFCDFE71B
:10445000002107F058F82021204600F033FDA06825
:10446000012107F050F8D3E70490D1D90A9A30AB74
:1044700003EB8202C14652F8543C0393184607F0FE
:104480001DF8A268049B0590A2F840300496A2682B
:1044900049461832284600F027FB039BD0F800A0BD
:1044A00009F101094BB1BAF1000F06D0059A19467E
:1044B000504609F063FF0028E9D1A168BAF1000F66
:1044C0004ED1A1F840A0049B013B0493DFD1606969
:1044D000FFF754FC204600F02DFD0A9B30AA02EBAA
:1044E000830308F1010A53F8540C06F0E7FF414634
:1044F00011AA8146284600F0F7FA0746A0683968F5
:10450000FF2200F5AB7009F04BFF3B6803934FF6B9
:10451000FF77B84616AA514628460AF1010B00F06B
:10452000E3FA002852D0A168036801F25511002275
:1045300011F801EF985C704503D110B1013242458A
:10454000F6D1B9F1000F01D04A4507DBBA4206F1B6
:10455000FF36A8BF3A46012E97B237D0DA46D9E7E0
:104560009A48069106F0AAFF069907914A8F00EB38
:104570000B07BFB2121A504692FBF7F292B20692A4
:1045800006F09CFF0799069A3F1AB1F8400000F127
:10459000010CA1F840C0B0FBF2F102FB110080B2A7
:1045A000BFB260B9894B8A4ACDF800A006212046E7
:1045B00007F08AFC3946204600F020FB83E7854A55
:1045C00053460621204607F07FFCF3E7002F3FF417
:1045D0001FAF0399A7EB090292B24944204607F0A6
:1045E000BAFC15E7D0F874329E077FF511AF0121B0
:1045F00006F07FFF204607F0CFFC09E7D0F87432C1
:104600009D077FF505AF012106F073FFA368D3F87E
:1046100074321807EED4204607F09FFCF8E62046D7
:1046200007F0A9FBF4E6204607F09CFB204607F0C4
:10463000E0FA10B96069FFF7A1FBA068012106F05C
:1046400058FF2046FFF75AFDE2E6204607F09CFBA4
:10465000DEE6204607F0A3FBDAE6D2F874329F06C6
:1046600003D55D49606906F01CFFA368D3F8743276
:104670009E0603D55949606906F013FF204600F0F5
:1046800059FCC5E600212046FFF77EFBC0E601216C
:10469000F9E7204607F05FFB204606F0C1FE012146
:1046A000A06806F026FFA368D3F874329D067FF554
:1046B000AFAE4B49606906F0F4FEA9E6204600F073
:1046C0002DFBA068012106F014FFA1E65B2B01D1B0
:1046D000022307E6D0F87422900706D5622B08D192
:1046E0004FF0FF31204607F0F8FAA36800225A7510
:1046F0008EE6662BF9D10121F4E700224275A2680B
:10470000D2F8741289077FF52FAD313B1B2B3FF692
:104710007FAE01A151F823F095470008A14700089A
:10472000B5470008894700081144000811440008F3
:104730001144000811440008114400081144000805
:1047400011440008114400081144000811440008F5
:1047500011440008114400088F46000885460008EF
:104760004B4600081F460008114400088D4700080A
:10477000114400089947000811440008114400083A
:1047800011440008A547000803235375204607F08D
:10479000E9FA3DE603235375204607F0DCFA37E6D5
:1047A00003235375A068D0F8741201F0010181F061
:1047B000010156E603235375A368D3F874329B07AF
:1047C0007FF526AE27E700238CE500BFB0F900088F
:1047D000470701080E030108C4ED0008C9ED0008F1
:1047E000BFED00082DE9F04104468068154600F54C
:1047F0001E70002937D04FF4804106F01CFEA368DC
:10480000DD646068036800219B689847002851D1E7
:10481000204606F0ADFE00284CD1274E274FDFF88A
:10482000A080A06800F52F704FF0FF324FF0FF33EB
:10483000032105F03FFB0546A068CDB141F2883267
:10484000002300F5437006F014FE98BB20462B466B
:104850001C4A012107F038FBA068BDE8F04100F5D3
:10486000437006F05FBE6FF4804106F0F3FDC6E7CB
:104870004FF0FF334FF0FF3200F5437006F0F9FDC3
:1048800032460221204606F0F6FD3A4629462046E9
:1048900006F0F1FD20464246012106F0ECFD60687D
:1048A00003685B6903B19847A06800F5437006F0A0
:1048B00039FEB6E7BDE8F081293D0008494100080E
:1048C00029B500084D07010810B50B49044606F04C
:1048D000D9FE2046094906F0D5FE2046084906F0D3
:1048E000D1FE2046074906F0CDFE2046064A0021AB
:1048F00000F05EFB002010BD64070108A20701085C
:104900000108010855080108EF080108F8B5174625
:104910001E460A462949044606F0B4FE3EB33A78DC
:104920002749204606F0AEFE01256A0703D1254936
:10493000204606F0A7FEAE421ED97A5D20492046E9
:1049400006F0A0FE0135102DEFD11F49204606F0DC
:1049500099FEB6B91B49204606F094FE0125AE42E9
:104960002B4610D81749204606F08CFE15E0174953
:10497000204606F087FE01251449204606F082FEF7
:10498000E0E700252B46FA5C1149A2F120035F2BDA
:1049900028BF2E22204606F075FE0135102D06D0C8
:1049A0006B07DCD10749204606F06CFED7E72046AE
:1049B0000849BDE8F84006F065BE00BF05090108DA
:1049C000A9F90008B1F90008B3F90008AFF9000827
:1049D0002C0901080C0901082DE9F0430446806800
:1049E0008846D0F8201389B015461F46002960D1AB
:1049F0004FF44A7209F09DFCE06807F030FEA068B1
:104A000000F5437009F048F94FF42F794FF41F7601
:104A1000A068304409F058FCA068002283190121E5
:104A20004844103609F022FCB6F52F7F09F114092D
:104A3000EED1A36900261E60A068022100F51E7059
:104A400006F0F9FCA36850225A87A36818221A8737
:104A50002168204606F040FEA368174A66F38205E7
:104A6000C3F874526068036841461D682346A8472E
:104A70000546D0B9A36801221A75D4E90A010022BB
:104A80000023CDE906230E230393109B0495CDE963
:104A900001730094094B4FF4006204F0C9FAA36853
:104AA000C3F82003616A04F0F5F9284609B0BDE8AF
:104AB000F0836FF07705F8E7C9B40008E547000810
:104AC00010B5044613460A460146064801F044FB69
:104AD00023691B7923B12046BDE8104006F04EBE85
:104AE00010BD00BF95B7000838B50B46154648B94C
:104AF0001449154A521AB3EB920F05D251F82350BC
:104B0000284638BD84680CB90025F9E70F4A94425D
:104B10000AD30F4A944207D2184622682946904782
:104B20002B68002BECD1EFE70A4A944202D30A4AE1
:104B3000944205D3246814225343E518E358F0E760
:104B40000133F8E770EC0008A0EC0008B8ED0008AD
:104B5000B8ED0008A0EC0008B8ED0008F7B5037840
:104B60002D2B0446164605D16FF015033360002047
:104B700003B0F0BD09F0A6FC0B4F00230546C3515E
:104B80000A46204601A905F05BFAEB59222B02D117
:104B90006FF02103EAE7002BE6D1019BA342E3D0AB
:104BA0001B78002BE4D0DFE70C0000008368D3F80B
:104BB00074329B0603D50249406906F0FBBF70477B
:104BC000CFED0008014906F0F5BF00BFE500010880
:104BD0000A1E0DDC0ED042238168D1F874128906BA
:104BE00008D5002A04494069B8BF524206F0E2BF26
:104BF0004123F1E7704700BF280901080A1E0DDCB8
:104C00000ED044238168D1F87412890608D5002A91
:104C100004494069B8BF524206F0CCBF4323F1E7D4
:104C2000704700BF280901082DE9F0478568DFF8C3
:104C30006890044605F15600FBF736FB002395F813
:104C40003C7086B29846A268558FED1BB54209DBD1
:104C5000002E1FDD563360691049BDE8F0471A4445
:104C600006F0A8BF1D442A44563392F856A082F895
:104C70005680A26860691A44494606F09BFFA36803
:104C80002B4483F856A0A3685B8FDB1BF61A002722
:104C90002B46D8E7BDE8F087C4FF00080E030108E3
:104CA00008290A4617D8836893F83E10914212D01B
:104CB00083F83E208368082AD3F8743205D0990619
:104CC00009D50549406906F075BF9B0603D5034920
:104CD000406906F06FBF70472F090108D4ED000846
:104CE00038B50D4609780446FFF7DAFF6A78072AD7
:104CF00011D8A36893F83F1091420CD083F83F205D
:104D0000A368D3F874329B0605D560690249BDE8F3
:104D1000384006F04FBF38BD38090108F8B5836840
:104D2000B3F850200446002A55D0B3F85210002999
:104D300051D0553103F156050B441846A84206D30D
:104D4000014611F80169202E3CD0A8423CD286B21F
:104D50009DB2AB1B9BB2591C471CD21A014438466A
:104D600009F0CDFAA268B2F85030711B13FA81F342
:104D7000A2F85030A368B3F850201344002283F8FF
:104D8000562009B2204606F07FFFA368D3F874329C
:104D90009A0603D51049606906F00CFF3B460F4A9E
:104DA0000821204607F090F82046FFF7FFFEA36891
:104DB000D3F874329B060ED560690949BDE8F84006
:104DC00006F0F8BE0846B9E7014611F80169202E41
:104DD000BDD00846B9E7F8BDD9ED00080E030108BB
:104DE000DDED00082DE9F84F04460F4690460AB164
:104DF000FFF7DCFEA668D6F87432B6F852505B07AF
:104E000024D505F156003044FBF74EFA2A4E0546EC
:104E1000B5B9A368B3F85020A3F85220A06806F0F3
:104E2000D6FE30B1B8F1000F00D017B16069FFF7BE
:104E3000C9FE7942204609B2BDE8F84F06F024BF0A
:104E40006069314606F0B6FE013DE1E73046FBF70A
:104E50002BFAB6F85090738F19FA80F915FA80F092
:104E6000B0FBF3F2B9FBF3F39A42AA461BD0134D01
:104E7000A3684845CDDA5A8FB0FBF2F302FB130367
:104E8000461C13B96069FFF79DFEA3685344204692
:104E900093F856300AF1010B2A46082107F014F85E
:104EA000DA463046E4E75635054A731908212046AC
:104EB00007F00AF8ADE700BF181301082C09010834
:104EC0000E03010813B583688DF80710D3F8742218
:104ED0000446D00725D5B3F85210B3F850208A42C3
:104EE0001FD0481CA3F852000B449DF8072083F8FC
:104EF0005620A368D3F87412890710D5D3F87432FA
:104F000060690B4913F0040F18BF2A2206F052FE05
:104F1000204606F06EFE10B16069FFF753FE02B046
:104F200010BD01220DF10701204606F0DAFFF6E779
:104F30002C09010810B504468368094A022106F0CD
:104F4000C3FFA368D3F874329B0707D52046FFF749
:104F50006BFE2046BDE8104006F071BE10BD00BFDC
:104F60000E030108014907F09EB900BFE5000108E2
:104F7000F8B50F465168044615461E4611B11A464B
:104F800007F09EF9AB6883B131462046FFF736FE45
:104F90002046064A3B46082106F096FFA968F21D06
:104FA0002046BDE8F84007F08BB9F8BD410901087B
:104FB0002DE9F04F0F46002189B0044616460D46F4
:104FC00003AA384601F10108FFF78EFDA8B98DB19B
:104FD00026B132460821204606F076FFDFF8909091
:104FE000DFF890B0002103AA384601F1010AFFF76B
:104FF0007BFD60B909B0BDE8F08F006810B1FBF728
:1050000053F980B2854238BF05464146D8E7D0F80B
:105010000080B8F1000F0FD098F8003063B14668F7
:10502000154ACDE900584B460821204606F04CFFB2
:1050300026B96069FFF796FF5146D4E74B465A46BA
:105040000821204606F040FFAB1DB2079BB209D1F4
:1050500031680A4A914205D1324641462046FFF75F
:1050600087FFE9E71A463146204607F029F9E3E7CA
:1050700061090108A4F900084C090108C40BD28693
:10508000F7B50F6805460E46EFB13846FBF70CF949
:1050900084B2114B009308213B46104A284606F083
:1050A00013FF7168E31C9BB279B18A070DD10868C0
:1050B0000B4A904209D10A463168284603B0BDE840
:1050C000F040FFF755BF3C46E3E71A46284603B0D9
:1050D000BDE8F04007F0F4B85D0901084807010891
:1050E000C40BD28610B507490446FBF7CBF838B19C
:1050F00005492046FBF7C6F8B0FA80F0400910BD1C
:105100000120FCE7530901085609010810B583681E
:10511000D3F874329B06044603D50649406907F06C
:105120003FF9A36850225A87A36818221A870020E3
:1051300010BD00BFE1ED000808B5836902491A6897
:1051400006F0A0FA002008BD640901082DE9F3412A
:105150000D490E4C0E4EDFF83C80054606F092FAE3
:105160000022B44202F1010703D3002002B0BDE8DF
:10517000F081636A0093A36892B24146284606F024
:1051800081FA30343A46ECE77409010840EC000833
:1051900070EC00088C09010808B5024906F09CFA79
:1051A000002008BDE600010873B50E4E0446002538
:1051B000A268E0680DF1060302F5AB72012107F069
:1051C0009FF9BDF80600A36840B12A4603F5AB730A
:1051D0003146204606F056FA0135E9E783F85601D4
:1051E00002B070BD9D09010810B5044606F0B8FA7A
:1051F00003490246204606F045FA002010BD00BFD4
:105200008E040108022907B50BD153680093126878
:105210000B4B0C4906F052FA6FF0150003B05DF825
:1052200004FB8368084AD3F87432084913F0020F6C
:10523000074B18BF1A4606F025FA0020EEE700BF1C
:10524000AB090108C0090108A7090108C90901083B
:10525000F2FE000810B58368D3F874329A0604464B
:1052600003D50749406907F09BF8A368D3F8743267
:105270009B0603D50349606907F092F8002010BD32
:10528000E8ED0008EDED0008F0B5012985B0044611
:105290000AD05368009312685D4B5E4906F00EFA1F
:1052A0006FF0150005B0F0BD8368D3F8743299062D
:1052B00003D55949406907F073F86FF0F9012046AA
:1052C000FFF786FCFA212046FFF798FCA06800252E
:1052D0004FF48072294600F5AB708DF80B5009F041
:1052E00028F84E49606907F05BF8606906F046FAF5
:1052F0004FF47A766068036801221F690DF10B0193
:1053000003ABB847039BEBB9013E4FF47A70B6B2DA
:1053100008F072FC002EEDD1A368D3F874329B061E
:1053200003D53F49606907F03BF8A3683D49502227
:105330005A87A368182220461A8706F0B1F96FF041
:105340000700AFE79DF80B20A3681B2A53D093F802
:1053500056111B29CED1522A4DD15A19002382F859
:105360005631A66896F857215B2A2BD106F25710C2
:10537000022510F8011F2A463B2905F10105ADB2AF
:1053800023D1FF2AC8D002F5AB7216FA82F10022AF
:1053900011F8010F18BB86F85601FA2AA16828BF38
:1053A000FA224A87FA2BA26828BFFA231387A36838
:1053B000D3F874329A0603D51949606906F0F0FFF4
:1053C00000206FE786F85631A6E703EB83033039F8
:1053D00001EB4301B5F5807F8BB2CAD19CE7013563
:1053E00002EB8202ADB2303800EB4200B5F5807FAF
:1053F00082B2CDD190E72B440135ADB2092D83F8AF
:1054000056217FF677AFA368002283F8562183E701
:10541000AB090108C0090108F3ED0008140A0108EE
:10542000F7ED0008DA0901082DE9F04F074689B0C9
:105430001546894621B1104607F017F900285BD1BF
:10544000032455E05C463CE029460AF5AB7008F0C1
:10545000C3FF0646002854D0FAF726FF82B2601C2C
:1054600001323146304408F04AFF22465946304660
:1054700008F037FF4FF020033355BAF854300133AA
:105480001C44AAF8544008F10108002401994B1C5F
:1054900003AA48460193FFF727FB0646E8B13168A7
:1054A0000022284607F0A4FA0028EFD1D6F800B071
:1054B000D7F808A0BBF1000FC4D05846FAF7F4FEA5
:1054C00084B2BAF854302344FF2BBDDD0E4A2B467C
:1054D0000321384606F0F8FC0124B8F1000F07D08C
:1054E000B8682A4600F1540100F5AB7006F076FA70
:1054F000204609B0BDE8F08F4FF000084146022475
:10550000C5E70224E9E700BFDC0E01082DE9F843F6
:10551000054600AF0C46002948D0DFF8B890D9F80E
:1055200000305A0742D06E468AB0D1E90001A36824
:105530006A46DFF8A4C04FF00508C2E905C0C2E919
:10554000071342F8108F00234FF421514846FCF70F
:105550000BF9D9F800305B07B54627D08AB0D4E9FB
:10556000030163696A46DFF874C0C2E90713C2E940
:1055700005C042F8108F002348464FF42151FCF734
:10558000F3F8D9F800305807B5460FD0E369012188
:10559000134A484605F0BBFCD9F80030590705D03E
:1055A000A369104A0121484605F0B1FC012D0AD13A
:1055B000EFF3058307480268520704D00A4A103BFC
:1055C000294605F0A4FC2146284603F013F8BD4601
:1055D000BDE8F8831C0200202E0F01085D0F0108B2
:1055E0008C0F01089B0F0108C90F010830BFFFF79E
:1055F000FDBF00BF2DE9F0410B4EDFF8308006EB18
:105600000807CC1B054632460949204608F069FECA
:10561000A01942460021083C08F08BFEC5F8A840BE
:1056200007F10800BDE8F08100000000080000005C
:10563000B8ED0008054B5A699B689A421FBF044A9F
:10564000536843F080535360704700BFBC2A00206A
:1056500000ED00E0F8B5374C23685B0706460D46C1
:1056600003D03549204607F050F8344B9B6ADF04DD
:1056700051D52368580703D031492E4807F045F823
:1056800017202E4B9B6A190507D523685A0703D0AC
:105690002C49284807F039F81820284FBB6A9B0589
:1056A00019D52368580703D02749224807F02DF859
:1056B000BB6BBA6A11040DD52268520704D0234A85
:1056C0001C48012105F023FC26B11C4A936A23F4EF
:1056D000004393621920194B9B6A5B0507D5236829
:1056E0005F0703D01A49134807F00FF81A20134B2D
:1056F0009A6AD60511D52368590703D015490D4874
:1057000007F003F81B200D4A936A43F47F4393622A
:1057100000232B70F8BD1620B3E79B6A9A04F2D5DC
:1057200023685B0703D00C49024806F0EEFF1C20FB
:10573000E9E700BF1C020020DC0F010800ED00E0DB
:10574000F20F010803100108161001082F100108BC
:10575000441001085F1001087710010810B52D4CA6
:1057600023685A0703D02C49204606F0CEFF2B4B66
:105770009B6A9B014BD52368580703D028492548CD
:1057800006F0C3FF1E20254B9B6AD90107D523686D
:105790005A0703D023491F4806F0B7FF1F201F4BAD
:1057A0009B6A1B0307D52368580703D01E49194875
:1057B00006F0ABFF2120194B9B6A590307D52368DC
:1057C0005A0703D01949134806F09FFF2220134BB4
:1057D0009B6A9B0307D52368590703D014490D48DA
:1057E00006F093FF23200D4B9B6ADA0307D523684D
:1057F0005B0703D00F49074806F087FF2420074ABC
:10580000936A6FEA03436FEA1343936210BD1D204E
:10581000B9E700BF1C020020A610010800ED00E05F
:10582000BE100108D1100108EB1001080911010890
:105830002E110108481101082DE9F047454D2B684C
:10584000894659078046174603D04349284606F043
:105850005CFF424B9B6ADA0639D52B685B0703D0A5
:105860003F493C4806F051FF11243C4B9B6A1E0700
:1058700007D52B68580703D03A49364806F045FF4C
:105880001224DFF8D8A0DAF82830990721D52B6840
:105890005A0703D034492F4806F037FFDAF834604E
:1058A000DAF828301B0651D52B685C0705D02F4A43
:1058B00028483346012105F02AFBB9F1000F04D036
:1058C000264A936A23F080039362132403E0102492
:1058D000CBE76FF01506214B9B6AD80707D52B68DD
:1058E000590703D022491B4806F00FFF14241B4B15
:1058F0009B6A9A0607D52B685B0703D01D4915489C
:1059000006F003FF1524154B9A6AD50602D49A6A4D
:1059100090070AD55B68190507D54146304600F067
:1059200043FA10B180F3098802240C4B9A6A92065C
:1059300042BF5A6A22F400525A629A6A42F0FF0247
:105940009A6200233B702046BDE8F0876FF0150691
:10595000BBE700BF1C0200207311010800ED00E04E
:105960008911010803100108BC110108D4110108B4
:10597000EA110108771001082DE9F041744B8AB053
:10598000D3F8048000AF0446C8F30806002585F369
:105990001188BFF36F8F02F07F43B3F17F4F0AD1BD
:1059A00002F00C03082B15D16A480368590702D08E
:1059B000694906F0AAFE00252C460023FB71F31E60
:1059C000092B00F29F80DFE803F00A91948D9D9DE2
:1059D0009D9D9D9712074CBF0C460125EDE75D4E3E
:1059E00033685B0703D05D49304606F08EFE002326
:1059F000FB71574BDA6A900708D53368590703D013
:105A00005749544806F081FE00233CE0DA6A002A38
:105A100004DA33685A07F7D05249F2E7DB6A5B00D1
:105A2000F2D53368580703D04F494A4806F06DFE57
:105A3000474BA1695A6942F480725A61BFF34F8F94
:105A4000BFF36F8F5A6931F8021C22F480725A61D9
:105A5000BFF34F8FBFF36F8F4DF60272914208D0A4
:105A60009A6AD2B28AB3FA1D01212046FFF7E4FEFA
:105A70003AE03368590705D023683C4A354801218C
:105A800005F045FA2368FA79DAB907F1080604F156
:105A9000200C20686168324603C20834644516460B
:105AA000F7D17A6A002D4DD0C2F3080121B96FEA0F
:105AB00052226FEA42227A6207F108011846FFF784
:105AC00025FD2837BD46BDE8F0819A6A12F47F4F64
:105AD00004D0F91D0120FFF7BDFD05E09B6AB3F579
