:020000040800F2
:10000000001D0020E91D0008934F0008D51D0008C1
:10001000D51D0008D51D0008D51D000800000000F2
:10002000000000000000000000000000A91E000801
:10003000D51D000800000000491E0008992D000889
:10004000312000083120000831200008312000084C
:10005000312000083120000831200008312000083C
:10006000312000083120000831200008312000082C
:10007000312000083120000831200008312000081C
:10008000312000083120000831200008312000080C
:1000900031200008312000083120000831200008FC
:1000A00031200008312000083120000831200008EC
:1000B00031200008312000083120000831200008DC
:1000C00031200008312000083120000831200008CC
:1000D00031200008312000083120000831200008BC
:1000E00031200008312000083120000831200008AC
:1000F000312000083120000831200008312000089C
:10010000312000083120000831200008312000088B
:10011000312000083120000831200008312000087B
:10012000312000083120000831200008312000086B
:10013000312000083120000831200008312000085B
:10014000312000083120000831200008312000084B
:10015000312000083120000831200008312000083B
:10016000312000083120000831200008312000082B
:10017000312000083120000831200008312000081B
:10018000312000083120000831200008312000080B
:1001900031200008312000083120000831200008FB
:0C01A00031200008312000083120000848
:1001AC0053B94AB9002908BF00281CBF4FF0FF31D2
:1001BC004FF0FF3000F00CB8ADF1080C6DE904CE37
:1001CC0000F010F8DDF804E0DDE9022304B070471C
:1001DC00704700BF034613F8012B002AFBD1181AF5
:1001EC00013870472DE9F04786468C460846089E34
:1001FC00154674461946002B40F0C2808542B2FA6F
:10020C0082F245D94AB1C2F1200300FA02FC2EFA5F
:10021C0003F3954043EA0C0C94404FEA154EA8B2F8
:10022C00BCFBFEF8230C0EFB18CC08FB00F943EAD0
:10023C000C43994528D9EB1808F1FF3704D299459E
:10024C0002D9A8F102072B44A3EB0903A4B2B3FB18
:10025C00FEFC0EFB1C330CFB00F044EA0344A042F2
:10026C0014D92C190CF1FF3304D2A04202D9ACF1F1
:10027C0002032C44241A43EA07401EB1D440002345
:10028C0034607360BDE8F0874746DDE76346F1E70D
:10029C0092BB431B01214FEA154EAFB2B3FBFEFCE0
:1002AC00200C0EFB1C330CFB07F840EA034398456B
:1002BC0062D9EB180CF1FF3004D2984502D9ACF19D
:1002CC0002002B44A3EB0803A4B2B3FBFEFC0EFB11
:1002DC001C330CFB07F744EA0344A7424ED92C19F4
:1002EC000CF1FF3304D2A74202D9ACF102032C4427
:1002FC00E41B43EA0040C0E7C2F1200320FA03F1FB
:10030C00954090402EFA03F303434FEA154EAFB2DB
:10031C00B1FBFEFC0EFB1C10190C0CFB07F841EAA0
:10032C000041884504FA02F422D969180CF1FF3017
:10033C0004D2884502D9ACF102002944A1EB080192
:10034C009BB2B1FBFEFC0EFB1C110CFB07F743EA46
:10035C0001439F420ED9EB180CF1FF3104D29F429E
:10036C0002D9ACF102012B44DB1B41EA004192E7BC
:10037C006046E3E76146F7E76046A3E76346B7E705
:10038C00834206D916B9002108467BE7C6E900E08E
:10039C00F9E7B3FA83F78FB9834201D3724508D8D2
:1003AC00BEEB020460EB030301209C461EB9002146
:1003BC0068E73846FAE7C6E9004CF8E7C7F1200CC5
:1003CC00BB4022FA0CF41C432EFA0CF120FA0CF36D
:1003DC00B84001434FEA14490EFA07F5B3FBF9F89C
:1003EC001FFA84FE09FB18300B0C08FB0EFA43EACB
:1003FC0000439A4502FA07F240D9E31808F1FF309E
:10040C0004D29A4502D9A8F102002344A3EB0A03B3
:10041C0089B2B3FBF9F809FB183308FB0EFE41EA6D
:10042C0003418E452CD9611808F1FF3304D28E4557
:10043C0002D9A8F10203214443EA0040A0FB029830
:10044C00A1EB0E014145CE46434602D306D14D45A4
:10045C0004D2B9EB020E68EB04030138002EA6D0CF
:10046C00B5EB0E0261EB030101FA0CFC22FA07F367
:10047C004CEA0303F940C6E9003198E74046C5E76A
:10048C004346D9E738B50C4A0C480D4C032104F00F
:10049C00B1FC0C4B9D684FF400516B6909489847AF
:1004AC0006482246032104F0A5FC002141F28830C5
:1004BC0005F0BCF9EFE700BFE262000854600008E9
:1004CC00F3620008F85B000810B588B0254A26488E
:1004DC00032104F08FFC254C204605F0C6F848B9E2
:1004EC00234A2148012104F085FC6FF012042046B8
:1004FC0008B010BD2269A168136823F4005313607F
:10050C000B6820464FF420220D219847041E06DA72
:10051C00184A15482346012104F075FCE7E7002230
:10052C000023CDE9062300230522CDE90323CDE9E1
:10053C00013300931049114B11484FF4007203F032
:10054C0055F810490E4805F0DBF80F4A0648032110
:10055C0004F050FC4FF0FF314FF0FF3005F066F91E
:10056C00F8E700BFFF62000854600008F85B000861
:10057C00286300083D630008C009002091040008AE
:10058C00C00000205D630008666300082DE9F04F91
:10059C0091B08407009302F004030293C2F3C203E8
:1005AC0003F10103DDF86880039205460E460593BE
:1005BC0040F0BA81041D30B1072909D86FF01B0037
:1005CC0011B0BDE8F08F01F007063444C6F10806FF
:1005DC00009B4FF00009591E4FF0040A4FF0FF33F7
:1005EC000193CDF810904F46CB4653460DB1009A6F
:1005FC0022600598002800F3E8809848009A82420F
:10060C0003D397488242C0F0E080039AA4EB050E16
:10061C0092074FEA9E0000F103810F2F00F2B18088
:10062C00002D00F0058107F140020DEB020C019A40
:10063C000CF8200C0CF8102C049801300490E7E016
:10064C007A285DD84B280ED8472859D829282DD878
:10065C00252852D054D820287AD02338D0F1000B3A
:10066C004BEB000B74E04C382E2849D8DFE800F037
:10067C007048484848484848484848484B484848C3
:10068C00484848484859484B4B595959704B6D4844
:10069C007048184B184848827F4B48484B487F009D
:1006AC0000204FF0000B4FF0040A38E02A38C0B29B
:1006BC00012202FA00F010EA0E0F49D110F0625C30
:1006CC002FD110EA020B43D06046013C5444B4FBDA
:1006DC00FAF40AFB04F4002D61D0A3EB050CA4443E
:1006EC00B4453FF66BAF002868D1042B47D158F8BE
:1006FC00043B2360043404232AE0019A013A01925A
:10070C004FF0000B24E011F8010C6C2834D111F8D7
:10071C00023C00206C2B8346C5D14FF0080A53468F
:10072C00D3E708F1070828F007080734F8E802AB0C
:10073C0024F0070435B106982044B0423FF63EAF92
:10074C00C4E900AB08344FF0000B4FF0080A5346D5
:10075C0011F8010F002878D0BBF1000F7FF470AFB7
:10076C002528F5D1019B013301934FF0010B4FF07C
:10077C00040AECE7584694E700208346A5E7082BCB
:10078C0002D06FF015001BE708F1070828F00708E6
:10079C00F8E80223C4E9002308340823D8E768B931
:1007AC00042B02D108F10408A4E7082BE9D108F1C5
:1007BC00070828F0070808F10808EDE7059A013A40
:1007CC00059258F8042B009210E7039A900720D555
:1007DC00A4EB050E4FEA9E004FF0010CBEF5007F16
:1007EC00CFD20F2FCDD8F5B107F140020DEB020E91
:1007FC00C0B2019A0EF8200C0EF8102CBCF1000FB0
:10080C003FF41AAF60F07F000EF8200C09F10109DB
:10081C000137C5F10802043406924FF6DA7E97E7E9
:10082C004FF0000CDAE7BCF1000F01D00136EFE716
:10083C00029802360028EBD10098CDE90631FFF77B
:10084C00C9FCDDE906310644E2E7631BB3F5806FB2
:10085C0097D23DB9A6F10804E018B1E6785A000821
:10086C00886C0008029A28609B082B709DF8103049
:10087C00C2B1EB7085F80290B9F1000F05D008A851
:10088C000022C5F1010C97420ED1C5F101030DF107
:10089C0020084FF0000A01930DF1300B574512D18F
:1008AC00601B8DE66B70E5E710F8013B190608D567
:1008BC000CEB040EB64503F07F033FF67FAE04F855
:1008CC00013B0132DFE7B9F1000F03D098F90020AA
:1008DC00002A17DB029BD3B11AF80B2004F8012B6A
:1008EC000022019B18191044B0423FF667AE98F8ED
:1008FC00000004F8010B00990392204605F02BF838
:10090C00039A14440AF1010A08F10108C6E798F8A1
:10091C00002055F822300093029B45F822300098B5
:10092C00FFF758FC421CDCE76FF00D0048E600BFF7
:10093C002DE9F04F97B000AF90F802A0D7F880B037
:10094C003B62CBF3C0030446FA62BB61894641B9F2
:10095C00457800780AEB800020444D4517D8A0EB71
:10096C000409E378FB61BAF1000F02D01BF0010F10
:10097C0016D1FB6953BBFB6A1BB13A6A4946204648
:10098C0098474D4628465C37BD46BDE8F08F461C5F
:10099C003046FFF71FFC0130304409F10109DCE758
:1009AC00237862687A62FA6A9900796104EB8301B0
:1009BC00002A40F000814D460E4601EB0A094FF02B
:1009CC0000084E454CD101EB0A0610E01BF0020F5B
:1009DC00D1D023789A007A6162687A62FA6A04EB61
:1009EC008301002A77D14D4601EB0A0690461BF095
:1009FC00050F0CBF02230123FB62FB6906EB430AC4
:100A0C000BF00203BB625645BCD016F8021B16F85D
:100A1C00013C54F82390994B994502D3984B994536
:100A2C0036D3BB69002B40D0786A03F09AFE0028BD
:100A3C003BD0E9468AB06A46924B53617B6AC2E965
:100A4C0006314FF4007313848F4B42F8103F8F48DC
:100A5C0000234FF4125100F02FFC023DCD46D2E79B
:100A6C0016F8013BF96254F82300FFF7B3FBD7F8F3
:100A7C008430F96A01304BB1D7F8883098453EBFC5
:100A8C00D7F8843023F8180008F10108054498E7DA
:100A9C00BB6923B1786A03F064FE0028C9D11BF04E
:100AAC00010F05D1FB6AED1AADE7BB6A002BAAD08A
:100ABC004846FFF78FFBD7F8843053B1D7F888300E
:100ACC0098453FBFD7F88420431C22F8183008F112
:100ADC000108054497E7BAF1000F72D01BF0040629
:100AEC0072D0D046002607F1480052463B61B962ED
:100AFC0004F031FFB96A3B6901EB0A02BA62FA6988
:100B0C00F9695200FA60BA6A02EB41023A610BF0E1
:100B1C000202BA603A69B96A8A4257D162787A623B
:100B2C001BF0020F32440CBF4FEA580100211BF09E
:100B3C00010FD2B240F09F801BF0040F14BF40464F
:100B4C000020BB616270A070E1703A6A7969FB6A3F
:100B5C0020469847051EFFF615AFBB6923707B6ACC
:100B6C006370FB69E37041463A6AFB6A84F802A041
:100B7C0007F148009847B0F10008C0F2BB807B69D0
:100B8C003A6AA9EB0A01C91AFB68C91AD7E90A0320
:100B9C0098470028C0F2B080A84408EB00054FF03D
:100BAC00000B07F1380AB34572D300213A6AFB6A8D
:100BBC0008469847E6E656464FF0000807F138001D
:100BCC0093E75646D04697E7B04695E7BA6A12F8CF
:100BDC00021BBA6212F8015C284A54F825009042B4
:100BEC0002D3274A90421ED3BA6932B1786A7B602D
:100BFC0003F0B7FD7B6800288CD1BA6802BB08F102
:100C0C00280207F1300C08F10100944407F1580256
:100C1C0052FA80F008F102080CF8101C5FFA88F800
:100C2C0000F8105C76E7BA693AB1786A7B6003F039
:100C3C0098FD7B6800287FF46DAF1BF0010F09D085
:100C4C0006F1280207F13000711C161806F8205C1A
:100C5C00CEB25FE71BF0040F3FF45CAF08F1280243
:100C6C0007F1300008F1010102EB000808F8105CF4
:100C7C005FFA81F84EE7002063E700BF785A00085E
:100C8C00886C0008846300080400000134600008CC
:100C9C001BF80A3087F8373054F82390D7F8843093
:100CAC002BB3D7F888309B4521D2D7F8843033F852
:100CBC001B803A6AFB6A012107F13700984700282C
:100CCC001ADB0544B8F1000F06D14846FFF782FA4B
:100CDC0000F101081FFA88F83A6AFB6A4146484657
:100CEC009847002808DB05440BF1010B5BE74FF03C
:100CFC000008DEE7454645E6054643E6014B18602D
:100D0C00704700BF0000002080B505460E46174610
:100D1C00984602F0B9FE034604F09EFEDFF81890E8
:100D2C00044649F80030424630463946A84754F844
:100D3C00090001F06DF800BF08000000034A536879
:100D4C0023F0020353600020704700BF002004E032
:100D5C00084B1A6842F480721A601A6842F40072E6
:100D6C001A601A6842F480621A60034B034A1A60D4
:100D7C00704700BF003C0240300000200024F4000B
:100D8C002DE9F047DFF85880044607464FF001097B
:100D9C0014B93846BDE8F08794FAA4F5B5FA85F590
:100DAC0009FA05F32E0108EB05156FEA030A24EA8C
:100DBC0003042B7B002BEBD058F806301B694BB986
:100DCC004644042273682846196807EA0A0703F0A8
:100DDC00A1FFDDE7284698470028D9D1F0E700BFEE
:100DEC008460000830B51049104889B0002204F026
:100DFC008AFD0F4D0F4900220023CDE90623002464
:100E0C000E23CDE90334CDE901440B4B00944FF490
:100E1C004072284602F0EAFB0849284604F070FCB0
:100E2C00204609B030BD00BF4D0E0008C80500209B
:100E3C0040010020000C0020691100084C640008DF
:100E4C00014802F02DBB00BFAC0000202DE9F0479B
:100E5C00804620480F4603F035FF0646002832D066
:100E6C0000252846BDE8F087237B83B12368DB6827
:100E7C000BB120469847636883F8069023681B697A
:100E8C00CBB9636804221968204603F043FF01368E
:100E9C0010345445E8D3B8F1000FE2D0002DDFD068
:100EAC002846FFF76DFF0546002FF7D00021642080
:100EBC0004F0BCFCF2E7204698470028E1D009FA80
:100ECC0006F31D43E3E7044CDFF810A005464FF092
:100EDC000109DEE7C0070020846000089460000868
:100EEC00014B53F820007047A860000808B5034672
:100EFC0008462BB1044A136000F074FC002008BDB6
:100F0C006FF01500FBE700BF0400002010B5044C87
:100F1C00237813B9034802F0C3FA0123237010BDE0
:100F2C00A0090020AC00002010B504460B4803F0CB
:100F3C00C9FE5CB1BFF35B8F094B53E8001F01394D
:100F4C0043E80012002AF8D1BFF35B8F054804F088
:100F5C00E6FC0548BDE8104002F0A2BAB807002034
:100F6C00BC070020C8050020AC0000200020064B68
:100F7C00BFF35B8F014653E8000F43E80012002AD1
:100F8C00F9D1BFF35B8F7047B807002070B5FFF73E
:100F9C00EDFF084C084E0546B44200D370BD6368A3
:100FAC005B792BB123685B6813B1294620469847BF
:100FBC001034F1E7846000089460000810B5044C0C
:100FCC000449204603F004FD034B1C6010BD00BF18
:100FDC007000002094600008B00700200D4A0E48F5
:100FEC00002310B513700D4A13600D4A4FF47A713B
:100FFC001360FFF77BFFFFF7E1FF0A4B0A49184626
:10100C008B4200D310BD1A1A5C6812110132227186
:10101C001033F5E7A1090020EB4C0008B8070020BD
:10102C00BC07002084600008946000080146002280
:10103C000148002303F0EDBC70000020014803F0D0
:10104C0086BD00BF70000020024B0146186803F0FB
:10105C00D2BD00BFB0070020014803F007BE00BF9F
:10106C007000002070B5264B1878002846D0FFF78A
:10107C00E5FF054600283ED1224B234C1B68002B74
:10108C0012DD04F03EFC0A220023FFF789F8D4E9B4
:10109C000032C01A40F2E93361EB0201984271F15F
:1010AC00000101D3FFF772FFD4E9003213F57A7314
:1010BC0042F10002C4E90032BDE87040FFF7CCBF3A
:1010CC0063685B7923B1236829461B6820469847DF
:1010DC001034B442F4D32846FFF7B6FFBFF35B8F4E
:1010EC000A4B53E8001F013943E80012002AF8D1DB
:1010FC00BFF35B8FC0E7064C064EEAE770BD00BF3E
:10110C00A0090020B8070020C0050020BC07002063
:10111C00846000089460000870B50D4D297861B9A1
:10112C000120FFF793FE0B4C0B4EB44206D3FFF796
:10113C0099FF0028FBD101232B7070BD63685B798C
:10114C001BB1236820469B6898471034EDE700BF1D
:10115C00A1090020846000089460000800212DE99A
:10116C00F0470846FFF772FE044658B34FF4FA787E
:10117C004FF0000904F070FC1B4B1C4A1B58136009
:10118C0033B11B4B1B68092B02DD1A4802F088F99E
:10119C00194FDFF860A0002544B12046FFF7F0FDA1
:1011AC00044618B94FF0FF384FF0FF39FFF75AFFDC
:1011BC00064628B9B5B942464B46504602F0A4F94A
:1011CC003546E9E74FF0FF384FF0FF39D2E72B688F
:1011DC009B691BB100221146284698471035BD4229
:1011EC00F5D3E8E7054DFAE708000000B407002046
:1011FC00BC070020AC00002094600008846000084C
:10120C0013B5184803F05EFD174B1B7873B1EFF361
:10121C001184102383F31288BFF36F8FFFF722FF23
:10122C0084F31188BFF36F8F02B010BD0F4B1B6896
:10123C00002BF9D050B900220023CDE900230C4833
:10124C0042F21072002302F02DFFEDE70928EBD1DA
:10125C00074804F064FB074802B0BDE8104002F0F8
:10126C001FB900BFBC070020A1090020B407002053
:10127C00C8050020AC00002010B5064B1B680446C6
:10128C0098472146A060044803F042FCBDE810409A
:10129C00FFF7B6BF0400002070000020044A054B85
:1012AC009B1AB1EBD30F34BF52F8310000207047BA
:1012BC0034600008846000082DE9F04F8FB004AF53
:1012CC00C1F34A28B8600D4691467B600C0DB8F10D
:1012DC00000F63D0002607F114034FF0040B4FF0FE
:1012EC000A0AC7F80C80C7E907667E620193CDF83D
:1012FC0008B0CDF800A007F11C03F9683246484647
:10130C00FFF716FBB0F5006F03461CD36C468AB092
:10131C00D9F8041004AB2648C3E9050140F2FF716B
:10132C00D9611A464FF400711984224B42F8103FD0
:10133C00214833464FF41251FFF7BEFFA5462C3718
:10134C00BD46BDE8F08FC0F30A0804F1170018443D
:10135C0020F0070080083B60FFF768FE68F3532518
:10136C00044690B13B68154AC7E9083600F11001F4
:10137C0007F11403F961CDE900A3CDF808B0F968C1
:10138C0007F11C034846FFF7D3FA68F353257B6833
:10139C00B9682A46204603F0DDFCD0E704F11700BB
:1013AC0020F007008008FFF741FE0446EDE700BF80
:1013BC0061640008040000013C600008334D000823
:1013CC002DE9F04F87B0DDE91279DDE9105A0446BA
:1013DC00039193469846BFB1CDF800903B465246D8
:1013EC0010210020CDF81490FFF7D0F8B0F5006F65
:1013FC0006460AD3184A194840F2FF73022107B077
:10140C00BDE8F04F03F0FFBC3E4605F11700304439
:10141C0020F0070004F007048008FFF707FE0BF02C
:10142C00070BE40044EA8B1444EA462444EA0554CE
:10143C00054640B13FB1CDF800903B46524631468F
:10144C001030FFF7A3F8039943462246284607B00D
:10145C00BDE8F04F03F07EBCA06400083C600008BF
:10146C00406820B1034BC01A40F3CF0070474FF0D7
:10147C00FF307047346000080EB403B503AB01466F
:10148C0053F8042B0448019300F052FF02B05DF8AE
:10149C0004EB03B0704700BF5D4E0008CA0605D4CC
:1014AC008B064CBF02490349FFF7E6BF704700BFEC
:1014BC00D9640008D86400082DE9F04F89B09B4628
:1014CC00149B06939DF84CA0159B0593169B179E99
:1014DC00049304460D469046BAF1000F00F09D802F
:1014EC0006F48073079303F013FC06F0020902461E
:1014FC0000283ED091492046FFF7BEFF0746B9F1C0
:10150C00000F08D016F0440F35D18D492A462046DD
:10151C00FFF7B2FF074406F0010353B1894B8A4928
:10152C0053F82A20894B2046002A08BF1A46FFF799
:10153C00A3FF06F48073002B49D006F00803002BA0
:10154C0063D1B8F1000F66D0814942462046FFF7BF
:10155C0093FF0546069B3D44002B6DD1049B002B4D
:10156C0073D1F30700F1E48031462046FFF796FF74
:10157C00D8E00746C3E7774B18680028CAD0764BEB
:10158C004FF47A791B68B5FBF3F54FF46163B5FB47
:10159C00F0F100FB115509FB05F54FF03C0CB1FBCC
:1015AC00F3F203FB1211B5FBF0FEB1FBFCF300FBF5
:1015BC001E550CFB131109FB05F50091B5FBF0F55D
:1015CC006649CDE901E52046FFF756FFA2E706F094
:1015DC000803EBB1624B634953F82A202046FFF70E
:1015EC004BFF0546B8F1000F05D05949424620463D
:1015FC00FFF742FF0544BBF1000FABD05A495A46E6
:10160C002046FFF739FF0544A4E74FF0000BE1E754
:10161C0006F00805E6E745469CE7BBF1010F069B83
:10162C0006D1002B64D1049B002B7BD000250CE051
:10163C00002BF8D04D485CE04D48069B4D492246A6
:10164C0003F05EF8049B002B68D0DFF82C81DFF8E8
:10165C002C91049F3146102F204628BF1027FFF7EE
:10166C001DFF4FF0000B5D4545DC059B49461A7884
:10167C002046FFF701FF4FF0010B1BF0070F03D1C2
:10168C0041462046FFF7F8FE5F453BD9059B49468E
:10169C0013F80B202046FFF7EFFE0BF1010BBBF10B
:1016AC00100FEAD1364920464FF0000BFFF7E4FE4D
:1016BC005A46059B9A5CA2F120015F2928BF2E2275
:1016CC0030492046FFF7D8FE0BF1010BBBF1100F90
:1016DC001DD01BF0070F03D141462046FFF7CCFE6F
:1016EC005F455A46E5D841462046FFF7C5FEEBE775
:1016FC001F485546A1E741462046FFF7BDFE0BF1BA
:10170C00010BB0E720492046FFF7B6FEC5E7059B65
:10171C003B440593049BDB1B04939AD1BAF1000F55
:10172C007FF41FAF204609B0BDE8F04F03F083BB38
:10173C00064A05492046FFF79FFE15E7E0640008BE
:10174C00E4640008B860000809650008DB64000860
:10175C000C650008C8070020C4070020ED640008D1
:10176C00CC6000081065000816650008934E000850
:10177C005D4E00083D230008236500081B6500082A
:10178C0025650008276500082165000873B542F23D
:10179C000F738B4228BF0B4605680F4A0446052180
:1017AC00684602F0BDFC63680C495B6806460B2278
:1017BC00284603F032FB63683246694628465B686C
:1017CC0003F02BFB636806495B681B22284603F079
:1017DC0024FB02B070BD00BF3766000846650008E8
:1017EC002A650008074A00210123904206D8064AC0
:1017FC0001B901231360054B1860704740085B006A
:10180C000121F2E740420F00C4070020C807002066
:10181C00F8B5074F0D4604464618B44201D1284688
:10182C00F8BD14F8011BBB6801485B689847F4E7E6
:10183C00D85C0008014B036000207047146100085D
:10184C002DE9F047064600AF0C46002936D0E94694
:10185C008AB0D1E90012A3686D462148A8464FF022
:10186C00050AC5E90501C5E9072348F810AF1D486D
:10187C00424600234FF42151FFF71EFDCD46D4E91B
:10188C0003126369AD461848C5F810A0C5E90501F7
:10189C00C5E907231348002342464FF42151FFF7B3
:1018AC000BFDCD46E369114A0E48012103F0ABFA5A
:1018BC00A3690F4A0B48012103F0A5FA012E07D1A9
:1018CC00EFF305830B4A0748103B314603F09BFAB4
:1018DC002146304601F040FCBD46BDE8F08700BF14
:1018EC008C65000864600008BB650008EA650008A8
:1018FC00F96500082766000830BFFFF7FDBF00BF81
:10190C002DE9F0410B4EDFF8308006EB0807CC1BBD
:10191C00054632460949204604F01DF8A0194246F6
:10192C000021083C04F025F82C6707F10800BDE8FD
:10193C00F08100BF0000000004000000946000086B
:10194C00054B5A699B689A421FBF044A536843F07F
:10195C0080535360704700BF7409002000ED00E015
:10196C0070B5294C06460D462848294903F012FB50
:10197C00A36AD9043CD52548264903F00BFB172054
:10198C00A36A1A0504D52148234903F003FB182048
:10199C001D4CA36A9B0512D51C48204903F0FAFA8A
:1019AC00A36BA26A100409D51D4A1848012103F043
:1019BC002AFA1EB1A36A23F40043A3621920124C25
:1019CC00A36A590504D51148164903F0E3FA1A2005
:1019DC00A36ADA050ED50D48134903F0DBFA1B2078
:1019EC00094A936A43F47F43936200232B7070BDC2
:1019FC001620C5E7A36A9B04F2D504480B4903F0F3
:101A0C00C9FA1C20ECE700BF00ED00E064600008A0
:101A1C003A660008506600086166000874660008A3
:101A2C008D660008A2660008BD660008D566000831
:101A3C0010B5204C2049214803F0ACFAA36A990157
:101A4C0036D51E481E4903F0A5FA1E20A36ADA01FA
:101A5C0004D51A481B4903F09DFA1F20154CA36AA4
:101A6C001B0304D51548184903F094FA2120A36AE6
:101A7C00590304D51148154903F08CFA22200D4C5A
:101A8C00A36A9A0304D50D48114903F083FA232065
:101A9C00A36ADB0304D509480E4903F07BFA242022
:101AAC00044A936A6FEA03436FEA1343936210BDCF
:101ABC001D20CBE700ED00E004670008646000081F
:101ACC001C6700082F670008496700086767000853
:101ADC008C670008A66700082DE9F843364D804650
:101AEC00894636483649174603F054FAAB6ADE0687
:101AFC0027D53449314803F04DFA1124AB6A1D0740
:101B0C0004D531492D4803F045FA12242A4DAB6A0D
:101B1C00980718D52D49294803F03CFA6E6BAB6A2F
:101B2C00190646D52A4A25483346012103F06BF99C
:101B3C00B9F1000F03D0AB6A23F08003AB6213241E
:101B4C0003E01024DAE76FF015061B4DAB6ADA07D9
:101B5C0004D52049194803F01DFA1424AB6A9B06DE
:101B6C0004D51D49154803F015FA1524124B9A6A31
:101B7C00D50602D49A6A90070AD55B68190507D571
:101B8C004146304600F008FA10B180F3098802246F
:101B9C00094B9A6A920642BF5A6A22F400525A6260
:101BAC009A6A42F0FF029A6200233B702046BDE81D
:101BBC00F8836FF01506C2E700ED00E064600008E2
:101BCC00D1670008E7670008616600081A6800081A
:101BDC003268000848680008D56600082DE9F04115
:101BEC00664B8AB0D3F8048000AF0446C8F30805EE
:101BFC00002686F31188BFF36F8F02F07F43B3F199
:101C0C007F4F07D102F00C03082B12D15C495D48C1
:101C1C0003F0C0F9002634460023FB71EB1E092BA0
:101C2C0000F28A80DFE803F00A80837C8888888849
:101C3C00888610074CBF0C460126EDE752495148E7
:101C4C004E4D03F0A7F90023FB71EB6A9A0705D5FB
:101C5C004E494C4803F09EF9002332E0EB6A002B0E
:101C6C0001DA4B49F5E7EB6A5B00F5D54949454884
:101C7C0003F090F96B69A26943F480736B61BFF355
:101C8C004F8FBFF36F8F6B6932F8022C23F4807384
:101C9C006B61BFF34F8FBFF36F8F4DF602739A4298
:101CAC0008D0AB6ADBB273B3FA1D01212046FFF7F3
:101CBC0013FF37E02368384A3248012103F0A3F8B8
:101CCC002368FA79DAB907F1080504F1200C2068C9
:101CDC0061682A4603C2083464451546F7D17A6A0E
:101CEC00002E45D0C2F3080121B96FEA52226FEAE7
:101CFC0042227A6207F108011846FFF7A1FD283746
:101D0C00BD46BDE8F081AB6A13F47F4F04D0F91DDA
:101D1C000120FFF725FE05E0AB6AB3F5803F9BD3AE
:101D2C00FFF786FE0346CCE7FA1D0021BEE7F91D3E
:101D3C000020EEE719498CE7194A1A4B18F4F87F82
:101D4C00E8468AB018BF13466A461749C2E905131C
:101D5C004FF400731384103D144BD56142F8103FBF
:101D6C00084800234FF41151FFF7A6FAC54673E754
:101D7C0022F4FF7222F00102BBE700BF00ED00E08D
:101D8C009568000864600008C0680008D7680008FF
:101D9C00F868000806690008256900084169000810
:101DAC007C68000867680008656900080400000189
:101DBC00044B5A6942F010025A615A6922F0080227
:101DCC005A61704700ED00E0EFF30880EFF30981F2
:101DDC0001B57246FFF702FF01BD00BF0A4880F350
:101DEC000888102080F3118808484FF404614018CB
:101DFC0080F30988EFF314800221084380F31488E0
:101E0C00BFF36F8F00F090F8001D0020400F0020F2
:101E1C00084B9B6883420BD1EFF3058343B1064B10
:101E2C005A6842F080525A605A6A22F400425A624E
:101E3C0001F030BE7409002000ED00E014498A68FE
:101E4C004FF030001044EFF3098C80E8F01F1020A5
:101E5C0080F31288BFF36F8F0E4F4FF000664A6904
:101E6C008A603E60106F0C4C2060506F00235367EB
:101E7C0080F3118804B5104600F0F2F8BDE8044078
:101E8C0002F1300090E8F01F8CF3098870470000D5
:101E9C007409002004ED00E0F00700201EF0040F90
:101EAC000CBFEFF30880EFF30980816911F8021C75
:101EBC000229FFD001B5724603F061F801BD00BFE5
:101ECC0040B2002807DB044A4109012300F01F003F
:101EDC00834042F82130704700E100E040B2002816
:101EEC00A8BF00F1604001F10101B8BF064B4FEAF9
:101EFC000111ACBF00F5614000F00F00C9B2B4BFD6
:101F0C00195480F80013704714ED00E0044B054A97
:101F1C0023F07F039360BFF34F8FBFF36F8F704736
:101F2C000000000800ED00E008B5FFF7EFFF0B4ADA
:101F3C00D2F8883023F47003C2F88830EFF314839E
:101F4C0023F0040383F31488BFF36F8F01F0F0F9CF
:101F5C0001F0C2FE00F05AF801F038FA00ED00E092
:101F6C0042F8203C009B42F81C3C0A49019B42F879
:101F7C00183C029B42F8143C21F001014FF0807395
:101F8C0042F8043C42F8081C0023203A02654367DF
:101F9C00704700BF150D0008094A0346906870B1E0
:101FAC0013F1160F006E05D0A0F140029A4205D82D
:101FBC00834203D2814228BF002070470020704723
:101FCC007409002008B51546094A0A4B9060026F47
:101FDC001A600E4600F044F82C4686F3098800205F
:101FEC00054B98472046002100220023034C204734
:101FFC0074090020F0070020B14F0008150D0008EF
:10200C00014B10221A61704700ED00E004480023D8
:10201C001021C21801335B2B82F80013F9D17047E1
:10202C0000E100E008B5EFF30583064A103B02EB34
:10203C00C30152F8330049688847BDE80840FFF7F0
:10204C007FBC00BFF85C0008024B034A0348012127
:10205C0000F08AB800000320000000201461000882
:10206C00026E054B403A1A60044A4021C3E9011242
:10207C001846012100F082B8F407002000000B156F
:10208C0008B503461048D0F89020C2F30722013A55
:10209C00934207D90D480E4A012102F0B4FE6FF0AD
:1020AC00150008BDC0F898300A6822F01F021A43C8
:1020BC0042F01002C0F89C208A6842F00102C0F87D
:1020CC00A0201846EDE700BF00ED00E05C600008C2
:1020DC007C690008F0B50E4685B01F460446002505
:1020EC00B5420DDA606810B397B1431E18420AD09E
:1020FC00104A11482B46012102F085FE6FF01502A3
:10210C00104605B0F0BD1F28F2D921680B42EFD163
:10211C002368019302F05AFFA36801A90343D0B2CC
:10212C000393FFF7ADFF10F1160FE7D0421C0135FA
:10213C000C34D5E7A26900085C600008044B05224A
:10214C00C3F89420BFF34F8FBFF36F8F704700BF5E
:10215C0000ED00E0BFF35F8F024B0022C3F8942028
:10216C00704700BF00ED00E010B5034C012322784E
:10217C00FFF7B0FF207010BDA309002008B50B4A73
:10218C0000231278FFF7A6FF10F1160F07D0084AAC
:10219C000021D2F89030C3F30723984200DB08BD2E
:1021AC00C2F89800C2F8A0100130F2E7A309002091
:1021BC0000ED00E02DE9F04357485849D0F8903035
:1021CC000D68C3F307239D4285B000F2A180FFF791
:1021DC00C1FF49680022954201F10C011AD1504C03
:1021EC00504F25706846FFF725FBDFF83C81DFF880
:1021FC003C9106460025AE421FD12378464900206B
:10220C00D1F89020C2F3072293427BDBFFF796FFB5
:10221C0000204CE0C0F8982051F80C3C23F01F0330
:10222C00134343F01003C0F89C3051F8043C43F0C6
:10223C000103C0F8A0300132CDE7009800EB051186
:10224C004FEA051CCB683B40B3F5000F44D00AD8CD
:10225C00B3F5001F2ED0B3F5800F34D0B3F5801F2B
:10226C0010D00135C7E7B3F1807F3ED0B3F1007FCA
:10227C00F7D150F80C3088684A6802F0A7FE40F499
:10228C00802009E050F80C3088684A6802F09EFE05
:10229C0040F0885040F43020039001A92078CDE91B
:1022AC000123FFF7EDFE002828DA6FF0150005B0CA
:1022BC00BDE8F08350F80C3088684A6802F086FE5E
:1022CC0040EA0800E8E750F80C3088684A6802F0E9
:1022DC007DFE40EA0900DFE750F80C3088684A6858
:1022EC0002F074FE40F08270D6E750F80C3088682B
:1022FC004A6802F06BFE40F08870CDE7237801331A
:10230C002370AEE7C1F89830C1F8A000013377E72D
:10231C004FF0FF30CBE700BF00ED00E0206100087C
:10232C00A30900200000F0FF0000081100000206C5
:10233C00F0B587B007460E461446002110226846B9
:10234C001D4603F016FB02238DF802302A46054B7E
:10235C00019321466846CDE9047601F00BFF07B0E6
:10236C00F0BD00BFF94F000808B5024B1B68984739
:10237C00002008BD00080020034B044A1860937825
:10238C0043F00203937070470008002010000020F7
:10239C0008B50649064821F00701C1F1005202F5C3
:1023AC00403202F070F9002008BD00BF471D00202C
:1023BC00040800202DE9F041104E114F0546002471
:1023CC004FF001082B7871691A19D2B208FA02F28F
:1023DC0001EA02008A4309D153FA84F3706157F879
:1023EC0033201AB107EBC303596890476A7801345C
:1023FC00E3B29A42E6D2BDE8F08100BF003C014056
:10240C0010080020044B184400230133994200F8B3
:10241C00012BFADC704700BF4000002007B50622F4
:10242C0001210020FFF7EEFF002211460620FFF7E6
:10243C0055FD012108460722FFF7E4FF0022114653
:10244C000720FFF74BFD082201210220FFF7DAFFDE
:10245C00002211460820FFF741FD0922012103202B
:10246C00FFF7D0FF002211460920FFF737FD0A22A3
:10247C0001210420FFF7C6FF002211460A20FFF7B6
:10248C002DFD052108461722FFF7BCFF002211463F
:10249C001720FFF723FD282206210A20FFF7B2FFA1
:1024AC00002211462820FFF719FD4FF480430748FE
:1024BC004422CDE9002383681B6823B16946984701
:1024CC0003B05DF804FB6FF05700F9E7185B0008E8
:1024DC00034660B1B0FA80F2C2F11F02D2B20549D4
:1024EC008856054A11680B431360FFF7E9BCFF22BD
:1024FC00F5E700BF40000020003C0140024A136891
:10250C0023EA000313607047003C0140032921D8E3
:10251C00DFE801F0020C10190F4B9A6822EA000256
:10252C009A60DA6822EA0002DA6070470A4B9A680D
:10253C000243F5E7084BDA680243DA609A6822EA4C
:10254C0000029A607047044B9A6802439A60DA68FA
:10255C001043D860704700BF003C014030B5B0B1AB
:10256C00B0FA80F3C3F11F03DBB20B4850F83340D1
:10257C008C4204D100EBC3056D68954205D044B97B
:10258C0040F8331000EBC3004260002030BDFF2345
:10259C00EBE76FF00F00F9E71008002060B1B0FA1C
:1025AC0080F3C3F11F03DBB2044A002142F833105D
:1025BC0002EBC30251607047FF23F5E710080020BF
:1025CC0000F00302043292000F23934043EA900080
:1025DC00C3B20233054A52F82320030C02EA10401E
:1025EC0093FAA3F3B3FA83F3D84070470038014051
:1025FC0038B5254B18680B88C3F30B03072B0D4616
:10260C00144611D8CBB1023B052B06D8DFE803F0FA
:10261C00320332301E264FF4FA4020602B68B3F59B
:10262C00805F29D2002038BD402B0DD008D823F074
:10263C000402302AF1D0382BEFD06FF08500F2E78E
:10264C00442B09D0A82BF7E78008E6E700F0B2F896
:10265C004FF4A873C00858434008DEE700F0AAF80E
:10266C004FF4A873C00858430723B0FBF3F0D4E72A
:10267C000648D2E70020D0E7C3F313330133B0FB95
:10268C00F3F02060CEE700BF3000002000127A008B
:10269C00F8B5444F444C00F0ADF8384602F05AFD02
:1026AC0000F03EFCA368414AC3F303131578D35CD6
:1026BC0047FA05F520FA03F6AE4202D2284600F09E
:1026CC005DFC236823F480232360236843F4803368
:1026DC002360354B1A689103FCD55A6F42F0010206
:1026EC005A675A6F9207FCD59A6802F00C02082AB6
:1026FC0017D11A68940707D41A6842F001021A60BD
:10270C00294A13689807FCD5274B9A6822F00302D4
:10271C009A609A6812F00C0FFBD19A6822F0F002C2
:10272C009A60214C236823F08073236023689901FD
:10273C00FCD4636823F440336360636823F07063F4
:10274C0043F0E063636000F039F8236843F0807372
:10275C002360154B1A689201FCD59A6822F0F0029E
:10276C009A609A6822F0030242F002029A609A6818
:10277C0002F00C02082AFAD1AE4202D3284600F02D
:10278C00FDFB0B4B084A1F60936823F4E05343F4A2
:10279C00A0539360936823F4604343F40043936025
:1027AC000020F8BD007A030A003802405B6B000879
:1027BC00300000200048704700127A00084B09498D
:1027CC005A681140084A0A435A605A68074922F469
:1027DC0040325A605A681140054A0A435A607047A1
:1027EC00003802400080BFFF085440000080BFF05A
:1027FC0008544007064B1A6C42F080521A641B6C4A
:10280C0082B003F080530193019B02B0704700BF6C
:10281C000038024008B5074802F027FF38B10648D7
:10282C00FFF7AAFD0448FEF769FA002008BD6FF017
:10283C001200FBE7D85C0008492800080A2838B5C4
:10284C00074D044604D1AB680D215B6828469847B8
:10285C00AB6803485B68E1B29847204638BD00BFBF
:10286C00D85C00082DE9F843D0F80480D0F810901B
:10287C00D8F8080017460D461E4602F0C2FBB7F505
:10288C00001F044616D12846D8F80840FFF798FEDA
:10289C0084420CD1294602F0B4FB0446FFF72EFE0D
:1028AC002046FFF77BFE00212046FFF72FFE00207D
:1028BC00BDE8F883B7F5800F20D0B6F1806F19D042
:1028CC00B6F1C06F18D0B6F1007F1AD102261049AC
:1028DC004A462046FFF742FEB0B9D8F80810284601
:1028EC0002F092FB20463146FFF710FE2046FFF720
:1028FC00EFFDDCE70126EAE70326E8E76FF0850049
:10290C00D6E76FF01500D3E76FF00F00D0E700BFEC
:10291C00D553000838B50369044658600A4D28465B
:10292C0002F0A3FE60B1AB6861681B680C3123B187
:10293C002846984700EAE07038BD6FF05700F9E779
:10294C006FF01200F8E700BF185B00082DE9F047A4
:10295C001E4F044600EBC1060025B44201D10020F5
:10296C0014E02068C30600F01F0911D4656845F017
:10297C002005C0F3481AC0F34420102823D857F878
:10298C002080B8F1000F0DD16FF01200BDE8F08778
:10299C00B9F1100F04D0B9F1110FEAD16568E8E76D
:1029AC003025E6E7404602F060FE0028ECD04B46AE
:1029BC002A460AF00F01404602F01CFD002804F1E3
:1029CC000804CADAE2E76FF01500DFE71C620008C2
:1029DC00024A0348012102F00DBA00BFB86A000890
:1029EC007C600008F8B503690C465E682379416881
:1029FC00012B34D09A1E55425541AD026279022A00
:102A0C009CBF354F37F812C0A27988BF4FF4005CD9
:102A1C00042A27D0003B18BF01231B03E279012AAB
:102A2C000A680CBF4FF440770027A642D1681CD12E
:102A3C0021F4B05129430B43D360136923F4405361
:102A4C0043EA0C03136143681A68536923F4407317
:102A5C003B4353613168BDE8F84002F0D9BD4FF4F7
:102A6C00C065CBE74FF48053D8E701F4C0618D42C9
:102A7C001FBFD16821F4C0612943D160426811683D
:102A8C000A6902F4405294451FBF0A6922F440526D
:102A9C0042EA0C020A6142681168CA6802F4805268
:102AAC0093421FBFCA6822F480521343CB60436821
:102ABC001A68536903F440739F421FBF536923F490
:102ACC0040733B43536121683368994203D002F051
:102ADC009FFD23683360F8BDDC620008F7B504691C
:102AEC00466805463248206002F0BFFD48B9314ABD
:102AFC003148012102F07EF96FF01204204603B038
:102B0C00F0BD2068F16883681B683BB92B4A2A48E2
:102B1C00012102F06FF96FF05704EFE79847044674
:102B2C00E0B9306A01AA002102F07CFC041EE5DB4E
:102B3C00019B002219791868FFF708FF041EDDDBE2
:102B4C006E682B6934685F68E36823F40053E360B4
:102B5C00706802F08AFD48B9194AC9E7174A164845
:102B6C00012102F047F9002CC8DBDAE7D6E90101B4
:102B7C008368DB6803B1984704F10C0353E8003F0A
:102B8C0043F00C0304F10C0141E80032002AF3D1AC
:102B9C0039462846FFF726FF337D1BB1636943F0A6
:102BAC0008036361E36843F40053E3600024A5E782
:102BBC00185B0008E66A00087C600008056B0008DA
:102BCC00256B00082DE9F04143681D680369D3F8B3
:102BDC0004800B790C46012B4979A67937D102294F
:102BEC0050D9042E4BD04FF480574FF4C0620323BE
:102BFC008B4244D1002F7DD0002A14BF0322042223
:102C0C00B2423CD1E37983B1012B38D13C4B9D428C
:102C1C000BD0A3F54C439D4207D003F580639D4236
:102C2C0003D003F54C439D4229D1EB6823F40053A8
:102C3C00EB602146FFF7D6FEEB6843F40053EB60E4
:102C4C0094E8030088E803000020BDE8F081022B23
:102C5C0008D1022921D9042E11D04FF480624FF4EF
:102C6C008057C4E702290A461FD9042E04D133B970
:102C7C004FF480571A46BAE763BB0329C0D06FF0F4
:102C8C008500E2E71F4A042E32F811C0F7D04FF44A
:102C9C00C062033B012B10D8F1E71A4A042E32F81C
:102CAC0011C0ECD04FF48062F3E7164A042E32F8D0
:102CBC0011C016D1002BE2D11A464FF48057BCF547
:102CCC00805F13D0BCF5405F12D0BCF1000F8ED1E9
:102CDC0001238DE7033B012BD1D90022BFE7002252
:102CEC00D7E7002BFBD11A461F46E8E700237FE706
:102CFC0002237DE7002A14BF0222032280E700BFD3
:102D0C0000100140DC62000810B54FF0E0230F49C1
:102D1C009C691A6908689B690D4902F4803234B9C0
:102D2C0093B903464AB90A681044C01A10BD002B67
:102D3C0008BF03460AB9A342F5D90A6802440A60DF
:102D4C004FF0E0221269EEE70446F3E77009002029
:102D5C006C0900200A4B102283F82320094B44F203
:102D6C00A0121A60084B002018604FF0E02344F2C8
:102D7C009F125A6198611A6942F007021A617047F2
:102D8C0000ED00E0700900206C090020684620F07E
:102D9C0007018D4619B5FFF7B7FF114B1149D3E960
:102DAC0000420868001942F10002C3E900020E4A11
:102DBC0000230B60D2E9004144F2A013001BB0FBCE
:102DCC00F3F043431B1941F10001C2E9003101F05A
:102DDC0069F8FEF7B5FDBDE819408546704700BFA0
:102DEC00080600206C090020000600202DE9F041A7
:102DFC00DFF8DC8099B1421C0BD14FF0E022136953
:102E0C0023F0010313614FF07F43C8F80030BDE895
:102E1C00F081D8F80060012807DC00270BE0431C88
:102E2C00D8F80060F7D140F2E53040F2E633984232
:102E3C00A8BF1846471EEFF31185102383F31288A1
:102E4C00BFF36F8FFFF760FF224C4FF0E0239969BF
:102E5C00D4E90023801843F10003C4E900031E4B9E
:102E6C0000221A601D4B1A68831A2ED444F2A01C3F
:102E7C000CFB073303F583431F33B3FBFCF7131A27
:102E8C000CFB073340F21A42934238BF1346144AE4
:102E9C00934228BF13464FF0E022C8F80030013BA4
:102EAC0090695361002393618142A1EB0003D4E943
:102EBC00001238BF9B195B1842F10002C4E90032C2
:102ECC0085F31188BFF36F8FA1E740F21A43E2E755
:102EDC0070090020080600206C0900200006002064
:102EEC002094FF0038B5EFF31185102383F312887B
:102EFC00BFF36F8F084B1C68084B1B68E41AFFF775
:102F0C0003FF85F31188BFF36F8F44F2A0132044A5
:102F1C00B0FBF3F038BD00BF08060020000600200F
:102F2C0008B513498B6803F00C03042B1CD0082B39
:102F3C001CD14A684B68496813F4800314BF0D48D0
:102F4C000D48C1F3881118BF002302F03F02A1FB0A
:102F5C000001FDF725F9064B5B68C3F30143013310
:102F6C005B00B0FBF3F008BD0248FCE70248FAE74F
:102F7C000038024000127A000024F400002800F00F
:102F8C00CC80674B1A6802F44042B2F5404F51D1E5
:102F9C0002F10F6202F58C52904211D91A6802F4B8
:102FAC004042B2F5004F51D105235D4A126802F43C
:102FBC004042B2F5804F74D1012B38BF012370E031
:102FCC00584A904208D91A6802F44042B2F5004FB0
:102FDC0040F095800423E8E75349884219D8534AB6
:102FEC0090421ED8524A904252D91B6803F4404377
:102FFC00B3F5004F4FF001033AD0494A126802F47E
:10300C004042B2F5804F4CD18842D5D8474A9042C5
:10301C003CE01A6802F44042B2F5004F53D003234F
:10302C00EBE71A681B6803F44043B3F5804F4FF08D
:10303C000203C0E71A6802F44042B2F5004F4DD1CA
:10304C0002F10F6202F5A342904207D91B6803F408
:10305C004043B3F5804F4FF00503ACE7314A904243
:10306C004DD8314A90422ED8304A9042DAD80023BB
:10307C002F4A904213D92A4B1B6803F44043B3F5F3
:10308C00804F46D1294B98424FF0010333D993E737
:10309C001A6802F44042B2F5004F1CD10023204ABA
:1030AC00126824490A6822F00F021A430A600A685F
:1030BC0002F00F0293421CBF0A6802F00F02981A2A
:1030CC0018BF012070471B6803F44043B3F5804FD1
:1030DC004FF003036FE71B680023E2E71B6803F460
:1030EC004043B3F5804FF7D10F4B98420FD80F4B9D
:1030FC00984210D800230E4A9042D2D95CE71B6844
:10310C0003F44043B3F5804F4FF0040353E703231C
:10311C0052E70123C5E70223C3E70120704700BF34
:10312C0000700040000E2707804A5D05008793035E
:10313C0080C3C901003C024010B50446FDF7ECFF0A
:10314C000348044A012101F055FE204602F098FA8A
:10315C00646000086B6B00082DE9F843044600AF6F
:10316C000D46EFF31188102383F31288BFF36F8F92
:10317C000428294A98BF294B9668117C94BF53F8B0
:10318C002030274BE9468AB06A462648C2E9073107
:10319C0040F201339384244BC2E9050442F8103FFA
:1031AC00224800234FF43151FEF786F8CD4645B145
:1031BC00EB69C3F3080323B11D4A1C48012101F03C
:1031CC0019FE2EB1304602F09EFA08B1037803B90D
:1031DC001848E9468AB06A46174BD061C2E90536F1
:1031EC0040F201331384154B42F8103F00230F4873
:1031FC004FF41151FEF760F82946CD462046FFF7F3
:10320C009BFF88F31188BFF36F8F3046FEF700FEEB
:10321C00BD46BDE8F88300BF74090020B062000809
:10322C007A6B0008906B00080500000164600008D0
:10323C00B86B0008886B0008D96B0008040000010B
:10324C0038B50A4B53F82040013053F82050A542B2
:10325C0000D838BD606830B1037FDB0701D402F0C1
:10326C0017FA0834F3E723689847FAE7C4620008B2
:10327C0070B52A4B2A4C2B4D012286B003201A70B4
:10328C00FFF7DEFF00F046FF0420FFF7D9FF2646CC
:10329C00AE4204F1300410D300F002FB204C224E5D
:1032AC00AC4226D300F010FBFDF70EF91F4A137B3E
:1032BC0023F00103137306B070BD54F80C3C059356
:1032CC0054F8103C049354F8143C039354F8183CF1
:1032DC00029354F81C3C019354F8203C009354E99D
:1032EC000A2354E90C0100F035F954F8303C5E65C2
:1032FC00CDE7D4E90A23B3F1FF3F08BFB2F1FF3F9A
:10330C0005D052EA0301206803D100F099FB303458
:10331C00C6E73146183000F035FDF8E7A409002067
:10332C00D05F0008D05F0008055800089006002008
:10333C000648074A08B5121A002102F0C0F90548E0
:10334C00054A0021121A02F0BAF908BDC00000208B
:10335C00A8090020000000100000001070B5002328
:10336C0086B00122CDE90423134E144D01930F2294
:10337C00CDE902321249142303FB005506EBC016AB
:10338C0004464FF4C07000FB04110E4B00954FF433
:10339C00A072304600F0DEF8737B0B4AEE6023F02F
:1033AC00040373734FF4046304FB033313442C744E
:1033BC006B6006B070BD00BF1006002074090020C1
:1033CC0080170020D3560008400F0020BFB5002006
:1033DC00FFF736FF2A4B83F308882A4C2A4F636980
:1033EC0043F4007363610025F02384F82230E57701
:1033FC0025766576A57684F82050636A43F4E0233D
:10340C006362FEF7D5FCFEF7FBFD4FF0FF33A362C2
:10341C00E362FEF7CFFEFEF717FEFDF7DFFD1B485C
:10342C001B4C00F00FF902F01FF9FDF791FC012085
:10343C00FFF706FF0220FFF703FF00F079FA154BA8
:10344C0015495C61154B05930123CDE903534FF4EA
:10345C0080623B46CDE901550095204600F07AF894
:10346C00627B064622F004022046627302F087F962
:10347C002846FFF773FF3A4631462046FEF7A2FD79
:10348C008017002000ED00E07D32000810070020BE
:10349C0090060020740900200019002047640008E1
:1034AC0070B5EFF31186102383F31288BFF36F8F7F
:1034BC000468A0421AD0CCB1D4E9003213605A602F
:1034CC00637B002523F002036373C4E90055A560F8
:1034DC0004F1180002F0E9F92046A56702F04FF953
:1034EC0031460848BDE8704000F0B4B9D0E902326A
:1034FC009A4218BF0133836086F31188BFF36F8F34
:10350C0070BD00BFA509002013B5EFF31181102485
:10351C0084F31288BFF36F8F846844B1013C8460DC
:10352C0081F31188BFF36F8F002002B010BD52EAF7
:10353C00030406D181F31188BFF36F8F6FF00F0076
:10354C00F3E7CDE900230246014800F061F9ECE70E
:10355C00A50900202DE9F043073285B022F00702BF
:10356C000E461F461099017300F158037F32C0E9D3
:10357C0016330446002322F03F020421836041737A
:10358C003F2A0F98A073C4E90633E37306F1400990
:10359C00A2F1400805D883F31188BFF36F8F08465A
:1035AC0002DFB51829462046FEF7AAF907300E9B14
:1035BC0020F00700A066C4E9189802930D9B0193B4
:1035CC002D1A0C9B00932A463B4631462046FEF7AB
:1035DC00C7FC00236365044B9B6803B1DB6EE36699
:1035EC00284605B0BDE8F08374090020F0B587B01B
:1035FC0000250595109D04950F9D03950E9D029534
:10360C00DDE912760D9D01950C9D00950446FFF7A2
:10361C00A1FFB6F1FF3F08BFB7F1FF3F05D056EA57
:10362C00070305D1204600F00BFA204607B0F0BD89
:10363C003A46334604F11800014900F0A3FBF4E7C5
:10364C000558000840F2011383810023C0E91833A8
:10365C00C366014B9860704774090020094A93684F
:10366C006FF00A019967084958674B6843F080531B
:10367C004B60002383F31188BFF36F8F9368986FAF
:10368C00704700BF7409002000ED00E070B590F9A0
:10369C000D20437B002A36DBD90634D11B4C63F05A
:1036AC007F032246437352F8183FE169934207D1D6
:1036BC00C0E900210860E06111E09942F8D01B6874
:1036CC00002BF5D090F90E5093F90E60B542F4D062
:1036DC00AE42F2DD5968C0E9003108605860A56956
:1036EC00954200D005B9E568A3685A7BD20604D18F
:1036FC00DA897F2A01D9AA6932B1AB4202D02846B5
:10370C0000F092FA656170BD6361FCE774090020FA
:10371C0038B590F90D20437B002A014604DA03F0FA
:10372C007F03437301F0F1FF0D4D2A46AB6852F84D
:10373C00184F944200D004B9EC688B4207D05A7BE6
:10374C00D20604D1DA897F2A01D9A2692AB1A3420F
:10375C0002D0204600F068FA23466B6138BD00BFEA
:10376C0074090020B3F1FF3F08BFB2F1FF3F03D053
:10377C000249183000F006BB704700BF055800081E
:10378C0070B590F90D20437B002A014604DA03F052
:10379C007F03437301F0B9FF4B7B1C4C63F07F0339
:1037AC0022464B7352F8183FE069934207D1C1E9A6
:1037BC0000200160E16111E09842F8D01B68002BF9
:1037CC00F5D091F90E5093F90E60B542F4D0AE429B
:1037DC00F2DD5868C1E9003001605960A569A36841
:1037EC00954200D005B9E5688B4207D05A7BD206CA
:1037FC0004D1DA897F2A01D9AA692AB1AB4202D055
:10380C00284600F011FA2B46636170BD7409002044
:10381C00F8B50E4B0C4611460D4A98681060DDE960
:10382C000667EFF31182102282F31288BFF36F8FB9
:10383C009D68284601F07BFF284632463B46FFF741
:10384C0091FF2046BDE8F840FFF708BF740900203F
:10385C009409002049B9EFF3058030B9054B5A693A
:10386C009B689A4201D0FFF7F9BE81F31188BFF330
:10387C006F8F704774090020034648B9EFF3058237
:10388C0032B9064A51699268914201D0FFF7E6BEFF
:10389C0083F31188BFF36F8F704700BF740900204A
:1038AC00EFF31181102383F31288BFF36F8F054B55
:1038BC009A68D37B013BD37381F31188BFF36F8F6D
:1038CC00704700BF7409002070B5EFF31186102308
:1038DC0083F31288BFF36F8F144DAB68DA7B013220
:1038EC00DA732A4652F8184F944200D004B9EC68A7
:1038FC005A7BD20604D1DA897F2A01D9A2692AB16E
:10390C00A34202D0204600F08FF923466B6186F368
:10391C001188BFF36F8FEFF31180102383F312889C
:10392C00BFF36F8FBDE87040FFF7A6BF740900208E
:10393C00024B03F11802C3E90622704774090020F8
:10394C0070B5EFF31186102383F31288BFF36F8FDA
:10395C001B4CA168E0690B68814214BF1A46002217
:10396C0049680B605960A368E1692AB9154AC3E933
:10397C0000210B60E3610CE093F90E0092F90E50FC
:10398C00A84218D0854216DD5168C3E900210B60AE
:10399C005360A5690B4B9D4200D005B9E568A3683F
:1039AC009D4202D0284600F03FF965613046BDE8E3
:1039BC007040FFF753BE8A42D8D01268D5E700BFDB
:1039CC00740900208C090020F8B550EA0103064662
:1039DC000C4603D1FFF7B4FF0020F8BDEFF31187BD
:1039EC00102383F31288BFF36F8F124D124BA8680C
:1039FC001860FFF78DFEA868104923463246183030
:103A0C0000F0C0F9AA68537B43F0040353730446D7
:103A1C003846FFF723FEAB68D3E90A23B3F1004F16
:103A2C0008BF002AD8D101F068FF201A20EAE07004
:103A3C00D3E700BF74090020940900200558000842
:103A4C0038B50446EFF31185102383F31288BFF3C6
:103A5C006F8F437B5B070FD5183001F026FF637B1C
:103A6C0023F0040320466373FFF710FE2946054834
:103A7C00BDE83840FFF7EEBE85F31188BFF36F8FBA
:103A8C0038BD00BFA5090020014B9868704700BFE6
:103A9C00740900202DE9F8430446077BEFF31185E8
:103AAC00102383F31288BFF36F8F437B190705D55F
:103ABC0085F31188BFF36F8FBDE8F883D90943F004
:103ACC0008025AD14273A36813B1204601F025FEB7
:103ADC0004F1180001F0E9FEA66D04F15808B04598
:103AEC0011D04FF0000976B1304601F016FE06F108
:103AFC00180001F0DAFEC6F878903046FFF7C6FDE4
:103B0C00A66DB045EFD1DFF8B880D8F808309C42EC
:103B1C003BD1EFF30589B9F1000918BF4FF001094A
:103B2C00D8F81860274A964200D00EB9D8F80C6025
:103B3C00B34202D0304600F077F8C8F81460B9F1FF
:103B4C00000F02D02048FFF77DFDD8F808309C42CA
:103B5C0031D1EFF3058373BB227BD20718D42846EF
:103B6C00FFF77CFDFB07A7D5002383F31188BFF378
:103B7C006F8F0423184602DF9EE703F07F0343F0A8
:103B8C000803437301F0C1FD9DE74FF00009C7E73F
:103B9C0085F31188BFF36F8F83F31188BFF36F8F99
:103BAC000423184602DFEFF31180102383F31288ED
:103BBC00BFF36F8FD4E785F31188BFF36F8FD1E715
:103BCC00740900208C09002010070020044BC01A37
:103BDC00044BC0105843044B01221A54704700BFC9
:103BEC0090070020ABAAAAAAA5090020C3897F2BA5
:103BFC0012D80A4B1B6863B1094B90F90E201B6855
:103C0C009A4209DB437BDB0606D1064BC31A18BF6D
:103C1C00012303F0010070470023FAE73400002071
:103C2C00980900201006002070B50E4B0E4C1E7C1F
:103C3C0006EB460304EBC3040546204601F035FEB3
:103C4C000A4B002228469A55FFF7D0FF48B1084B83
:103C5C0008491A68013A2046D317BDE8704000F0B5
:103C6C0091B870BD7409002090070020A5090020B0
:103C7C0034000020D93B000838B5EFF31185102330
:103C8C0083F31288BFF36F8F104B114A9C68106836
:103C9C00A04206D1FFF7C8FF85F31188BFF36F8FE1
:103CAC0038BD00211B7C11600A4AD35C002BF3D079
:103CBC002046FFF79BFF0028EED0637BDB0602D18A
:103CCC002046FFF75DFD2046E4E700BF74090020A5
:103CDC0094090020A50900200A480B4A0B4908B595
:103CEC00121A01F0EEFC0A480A4A0B49121A01F0AA
:103CFC00E8FC0A480A4A0B49BDE80840121A01F0D0
:103D0C00E0BC00BF00000020BC000020886C000854
:103D1C000000002000000020886C0008000000104B
:103D2C0000000010446D0008024B1868984208BF50
:103D3C000020704738000020034B1B680BB9FFF7BD
:103D4C00D1B80020704700BF9C09002030B570B17D
:103D5C000B4B5B6898420AD0036843B1D3E904214A
:103D6C00D0E90445121941EB0501C3E90421D0E95E
:103D7C00003213605A600023C0E9003330BD00BF2D
:103D8C0038000020B3F1FF3F08BFB2F1FF3F2DE92F
:103D9C00F84F0446994615461F467AD08160EFF3DA
:103DAC001188102383F31288BFF36F8FB9F1000FC2
:103DBC00DFF8E4A020DBFFF7BFFFDAE900270135CD
:103DCC0049F100092D1849EBE073C4E90453AD180F
:103DDC00064643EB07074FF00109FFF7A5FFDFF895
:103DEC00BCE0DEF804A00346EBB9C4E900EACAF86B
:103DFC000040CEF8044028E0DAE900126FF001032D
:103E0C005B1A4FF0FF3161EB02025B1B62EB0902A4
:103E1C00012B72F10001BCBF01230022C0E9043266
:103E2C004FF00009D9E7D3E9041CD4E904208A42F5
:103E3C0070EB0C0B24DA891A5A686CEB0000C3E99E
:103E4C000410C4E9003214605C60FFF76DFF84421B
:103E5C000ED1134B1B685BB9B9F1000F02D1FFF700
:103E6C006BFF0646304601F009FD0021FEF7BEFF50
:103E7C0088F31188BFF36F8F28463946BDE8F88F59
:103E8C00521A60EB0C009A45C4E90420ADD01B68B3
:103E9C00AAE700252F46EFE7A807002038000020EE
:103EAC009C0900202DE9F047EFF31185102383F3D3
:103EBC001288BFF36F8FDFF8A490DFF8A480C9F8E5
:103ECC000000FFF731FF00260027D9F80030D8E9B1
:103EDC0000ECD91750B1D0E90442A34271EB020AAD
:103EEC001CDAE41A62EB0102C0E9044213EB0E0384
:103EFC004FF000044CEB01012046C8E90031C9F831
:103F0C00004001F0BBFC2146FEF770FF85F31188E1
:103F1C00BFF36F8FBDE8F047FFF7AEBE14EB0E0298
:103F2C004CEBE473C0E90467C8E90023FFF70EFF0C
:103F3C0085F31188BFF36F8F83689847EFF3118572
:103F4C00102383F31288BFF36F8FD9F800301B1B3B
:103F5C00C9F80030FFF7E8FEB7E700BF9C09002066
:103F6C00A807002010B5EFF31184102383F31288F7
:103F7C00BFF36F8FFFF7E0FE054A0346D2E900015D
:103F8C00181841EBE37184F31188BFF36F8F10BDE8
:103F9C00A8070020F8B50546EFF31187102383F32B
:103FAC001288BFF36F8F036823B187F31188BFF3B7
:103FBC006F8FF8BDD0E90A46611C46F10002022958
:103FCC0072F1000236D3012C76F10002BCBF012441
:103FDC001E46013C46F1FF3601F093FC013041F1E5
:103FEC000001001946EB0101012871F1000130DBE1
:103FFC0001F087FC013041F100016FF00203001960
:10400C0046EB010183426FF000438B4126DB01F04C
:10401C0078FC013041F100016FF00102001946EB10
:10402C000103121A4FF0FF3161EB03031C492846C0
:10403C00FFF7A8FE2B6B01332B632B6A93B93C461D
:10404C002B4653F8185F9D4200D0D5B984F31188E4
:10405C00ADE76FF001024FF0FF33E7E700224FF0BE
:10406C000043E3E787F31188BFF36F8F2B6A284671
:10407C009847EFF31184102383F31288BFF36F8FEB
:10408C00DEE7284601F08AFB0023AB6784F3118836
:10409C00BFF36F8F2846BDE8F84001F070BB00BF3E
:1040AC00A13F00082DE9F04105461C4690461F46ED
:1040BC00EFF31186102383F31288BFF36F8FB4F1E3
:1040CC00FF3F08BFB2F1FF3F05D186F31188BFF364
:1040DC006F8FBDE8F081002C09DB012A74F100031D
:1040EC00BCBF0122002412F1FF3844F1FF372846EF
:1040FC0001F0DBFBDDE906010023C5E90A012B63B6
:10410C0042463B4628460249FFF73CFEDDE700BF2E
:10411C00A13F0008014800F04BBB00BF3E6C0008FB
:10412C000CB430B58BB004460D462022002102A8F9
:10413C0001F01FFC02238DF80A30002D0C4B039369
:10414C00069412DB01D06B1E1C440FAA0E99079427
:10415C0002A8019200F00EF815B1069B00221A700D
:10416C000BB0BDE8304002B070470024EDE700BF53
:10417C00555A00082DE9F04F8DB0436802938378AF
:10418C0015469A07804640F10D8100240E78002ECA
:10419C0000F00A81252E0BD04B1C03930134029B9B
:1041AC004146304698470028C0F2F6800399EDE767
:1041BC004E788B1C252E0393F0D00027B946BB46B6
:1041CC00BBF11F0F38D8A6F12003102B0AD8DFE85B
:1041DC0003F02A0909300909092109090928092DBF
:1041EC0009091F00A6F13003092B33D92A2E37D128
:1041FC001BF0400F55F8043B40F08280002BA7BF0A
:10420C004BF0200B9946C3F100094BF0280B01E051
:10421C004BF0010B039B13F8016B0393002ECFD1D2
:10422C0030E04BF0020B4BF0040BF3E74BF0080BB8
:10423C00F0E74BF0100BEDE7BBF17F0F19D8A6F1AF
:10424C003003092BD2D81BF0400F03D00A2101FBFD
:10425C000737DFE70A2101FB09394BF0200BD9E7BF
:10426C002E2E06D11BF0400F40F09E804BF0400BE1
:10427C00D0E76C2E31D02BD8682E36D06A2E3CD09D
:10428C004C2E3AD0002F46F02003B8BF2BF0400242
:10429C00A3F16501BCBF1FFA82FB0027022901D9DB
:1042AC00612B2FD1073525F00705DFF8ACA20835B7
:1042BC0007271BF0080F66D00AEB070B56465E4526
:1042CC0063D1A4EB0A0A06EB0A02A9EB07096FE11A
:1042DC00742E9FD07A2E9DD0D4E71BF0800F18BF80
:1042EC004BF4007B4BF0800B94E71BF4807F18BFE2
:1042FC004BF4007B4BF4807B8CE74BF4207B89E701
:10430C001F4687E7A6F16301122900F2F080DFE86F
:10431C0011F013004F00EE00EE00EE00EE004F0027
:10432C00EE00EE00EE00EE00EE00FE00E900EE0006
:10433C00EE001B00EE00AF0055F8043B8DF8183072
:10434C0001270DF1180AB4E755F804AB834BBAF109
:10435C00000F08BF9A461BF0400F14BF39464FF0B0
:10436C00FF31504601F00DFB0746A2E7029B414688
:10437C002020984700280FDB013EB742F6D34C446F
:10438C00A41BB14698E74E46F7E716F8010B029BC3
:10439C0041469847002892DA98F8023043F004031B
:1043AC0088F802304FF0FF3420460DB0BDE8F08F96
:1043BC001BF0800F34D01BF4007F2CD0073525F078
:1043CC000705AA4669685AF8080B2BF01005002956
:1043DC00ADB237DA404261EB410145F480650DF135
:1043EC00180B0A235A4601F0D8FAA0EB0B030193E1
:1043FC006B0662D5019B25F001019F4289B240F307
:10440C00A180002E00F0998015F0100240F09C80E5
:10441C00BB460D4623E0AA465AF8040BC117D4E755
:10442C00AA461BF4807F5AF8041B01D10846F5E715
:10443C001BF4007F15BF48B208B241F3C01141F321
:10444C00C031C2E750EA0103C9D11BF0400FC6D0FE
:10445C00002FC4D12BF0110295B2BB46019740F24C
:10446C00064115EA01021CBF0BF1010B00222CE0E6
:10447C002BF010021FFA82FB0A231BF0800C49D090
:10448C001BF400711DBF073525F00705AA46AA4687
:10449C001ABF5AF8080B69685AF8040B50EA010560
:1044AC0045D12BF016051BF0400FADB242D0002FBA
:1044BC0040D12BF0170295B2019715F0100248D09D
:1044CC00019B002E42D103F1010B29075AD4EB07B3
:1044DC0006D5D9456FDD0199A9EB0B035F18CB46C7
:1044EC005B4649E04BF0100B10237826C5E7782B80
:1044FC0004D1C6F1780343F01003BEE7029B41469A
:10450C00252098470028FFF647AF023447E60823DA
:10451C000026B2E7AA461BF480715AF8040BBDD0F2
:10452C001BF400711ABFC0B2614680B2B6E72BF023
:10453C00060295B20DF1180B54E725F01105ADB23A
:10454C00BB468CE70D46B8E73B460D4603F1020B24
:10455C00BBE7DDF804B082E7806C0008796C0008DA
:10456C00CDE904324146029B202098470028FFF6F3
:10457C0013AF049B059A01339945F1DCA4EB0B01B5
:10458C00CC189B460AB3029B414630209847002822
:10459C00FFF602AF8EB901342744019B391B9942B7
:1045AC0024DC1D465DBB019AA9EB0B092244554640
:1045BC001446914435E0019F92E70234414630465F
:1045CC00029B98470028E7DAE6E640F206410D42E6
:1045DC00E2D015F0020F14BF2B20202015F4806FB1
:1045EC0004F10104414618BF2D20E9E7029B414626
:1045FC0030209847002804F10104CEDACCE606AB53
:10460C00013D4146585D029B98470028CADAC3E633
:10461C00029B414620209847002804F10104FFF634
:10462C00BBAEA9EB0403002BF2DCBFE5704700EB3B
:10463C00C100408840087047F8B50346FFF7F7FF04
:10464C00B0FA80F0C0F11F0003EB800CCA00DCF85C
:10465C001060171D0C4606328DB256B9012101FAB5
:10466C0000F0D9680143D960CCF81040DD539D525D
:10467C00F8BDF1000431585AD85303EBC0009E52D8
:10468C00C5805D52F4E7043A2DE9F041CC1D11448C
:10469C0024F0070421F007010E1BF708B7FA87F284
:1046AC00C2F12405AD004FF000080735C2F120021D
:1046BC00ED0804604146A760C4F80C80920004F138
:1046CC00100001F056F96B0043F00103638004EB1A
:1046DC00C5027B1B5900A4F800805180A21924F854
:1046EC003550A2F80280A35304EBC70329465A881D
:1046FC0042F001025A802046BDE8F041FFF79CBF12
:10470C002DE9F04706460D46174698462BB398F808
:10471C00004093F80190DB78A40004EB430498F874
:10472C0002301C4444444FF0000ACA4509D3D8F85F
:10473C00042008F1080339463046AC46BDE8F04782
:10474C00604714F8013B48F823402046FBF742FD34
:10475C00013004440AF1010AE7E76FF01500BDE8E7
:10476C00F08770B5002502462846144614F8013B24
:10477C000BB9184609E098B18D4207D1702B04D0C3
:10478C00A3F140023A2A0BD8002070BDA3F14006D9
:10479C003A2E05D853780135941C002BE9D0002013
:1047AC00252B08BF80F001002246DEE70020704771
:1047BC000FB407B504A951F8040B019100F097FA56
:1047CC0003B05DF804EB04B0704710B50369024602
:1047DC0013F0080009D11368D4689C4297BF126A81
:1047EC00E31AD31A01200B6010BD00231846FAE718
:1047FC0013B501A90446FFF7E8FF20B1019BE2685D
:10480C00013B13440193206A019BC01A013802B08A
:10481C0010BD10B5044650182269236AD20702D580
:10482C00013B184010BD984228BFC01AFAE710B5DA
:10483C0004460A46C168FFF7ECFF2369E06023F0E9
:10484C000803236110BD38B50D46C2698B000168A1
:10485C0043F0020342F82130044601682A46FFF770
:10486C00D8FFE36861682060984202BF236943F077
:10487C00080323612A462046FFF7CBFF606038BD52
:10488C002DE9F74FC768C6699B4606EB8703009373
:10489C0016F8273003F00303022B04468846914692
:1048AC004FF000030BD01360CBF8003023699B074B
:1048BC0013D44FF0000A504603B0BDE8F08F56F801
:1048CC00271013608908CBF80030EFD0FFF7AFFF4B
:1048DC00E368A3604FF0010AEDE7A36906EB8700DC
:1048EC00984716F8272012F0010A0546E1D012F07D
:1048FC0002021FD0B8F1000F03D041462046FFF74B
:10490C00A2FF61682A462046FFF783FFD4E9022103
:10491C009142606006D12A462046FFF77AFF4FF09D
:10492C00000AA060A2682260E260226942F00802DC
:10493C002261C0E7014620460192FFF778FFE36849
:10494C00A360B8F1000F04D02168E369019A43F821
:10495C00212005EB0802CBF8002021682046FFF748
:10496C0058FF2369206043F00803236116F82730B1
:10497C006FF3000306F82730009BC9F80030A9E755
:10498C0070B504461546FFF744FF2368834205D1F2
:10499C002369216023F00803236170BDE269AB0039
:1049AC0043F0020342F82130204661682A46FFF7A3
:1049BC0030FF6060F1E738B503695B07044606D544
:1049CC00456AFFF715FF85422CBF6562606238BDF2
:1049DC0038B50D4604461C22002100F0CAFFEB68D6
:1049EC00A361AB6863612B68E3616B68236200228F
:1049FC0062622A6923B1591E194208BF42F00102B2
:104A0C002261012204F128000021BDE8384000F0A9
:104A1C0065BE2DE9F04F87B000250093036A03951E
:104A2C008B4204460E4692460595A94639D3EFF3C0
:104A3C00118B102383F31288BFF36F8F059AD8461E
:104A4C002AB129462046FFF79BFF0023059304A9B2
:104A5C002046FFF7BAFE0499B14207462AD32268D2
:104A6C00E36913F8221021F0030103F8221003EB81
:104A7C008209216832462046FFF7CBFEE3682060AE
:104A8C00984212D0002788F31188BFF36F8F0399D7
:104A9C0029B162690AB12046904700230393002F85
:104AAC00C5D1484607B0BDE8F08F236943F0080331
:104ABC002361E7E718B12046FFF7C5FEE3E7009B4B
:104ACC005AEA03021CD0019100F014FE0199B8B906
:104ADC00BBF1000F14D187F31188BFF36F8F009BCC
:104AEC00524604F12800FEF70FFDEFF31188102356
:104AFC0083F31288BFF36F8FB0FA80F77F09C2E798
:104B0C0005AB03AA20462568FFF7BAFE0746BAE7AD
:104B1C0070B50446836908460D4698470246EFF384
:104B2C001186102383F31288BFF36F8F2B7843F019
:104B3C0001032B7061682046FFF76BFE6060204616
:104B4C00FFF739FF86F31188BFF36F8F70BD2DE926
:104B5C00F04104461027EFF3118687F31288BFF358
:104B6C006F8F236913F0080FA36802D16268934218
:104B7C0000D9226AE169D21A32B986F31188BFF3DF
:104B8C006F8F4FF0000833E011F8232012F0030070
:104B9C0001EB8308F1D0022803D151F82350AD0862
:104BAC0005D1D00712D4A369404698470546A168A1
:104BBC002A462046FFF72DFE2946A0602046FFF727
:104BCC0036FE86F31188BFF36F8FC4E742F0020202
:104BDC0001F823204046A369A56898472946024658
:104BEC002046FFF716FEA06086F31188BFF36F8F87
:104BFC004046BDE8F081F8B50446836908460D4689
:104C0C0098470646EFF31187102383F31288BFF3FE
:104C1C006F8F2B786FF300032B7023699B0705D5DF
:104C2C00E268E36903EB82039D421AD12B786FF3A0
:104C3C0041032B70D4E90231994204D1324620460B
:104C4C00FFF7E7FDA06031462046FFF7F0FD87F344
:104C5C001188BFF36F8F04F12800BDE8F840FEF710
:104C6C001FBC2B6860F39F032B60F0E7EFF31181FF
:104C7C00102383F31288BFF36F8F036913F0080FAF
:104C8C00836802D14268934200D9026AD31A81F335
:104C9C001188BFF36F8F181E18BF01207047704723
:104CAC0003785B075FBF03684288C3F34A2303EBB7
:104CBC0012105DBF173020F00700800800207047ED
:104CCC00002070470346BFF35B8F53E8000F421C74
:104CDC0043E800210029F8D1BFF35B8F704708B57A
:104CEC0000F00FFE0A220023FBF75AFA08BD1FB58D
:104CFC000023CDE90201CDE900331A4619461846C6
:104D0C00FCF75EFB05B05DF804FB0120FCF70CB969
:104D1C00002070474368DA714368196043680122C8
:104D2C005A71FCF7F3B870B515460C4669B1D2E967
:104D3C0001369B1B99420AD813680A4601469819FA
:104D4C0000F009FEAB682344AB60204670BD6FF0E9
:104D5C001B00FBE770B50E4615461946044618B9FC
:104D6C00BDE87040FCF7E0B833B1C2F34A23103011
:104D7C00120D184400F0EFFDC4E900562046BDE8C2
:104D8C007040FCF779BA2DE9F3415F1C4FEA8708B4
:104D9C00064608F1170020F0070080080C4615465F
:104DAC00FCF744F90023ADF805308DF807308DF889
:104DBC00047068B10346019A43F8102FA8F104015E
:104DCC002A46294452F8045B43F8045F8A42F9D11D
:104DDC00A20102F4E07242EA482222F07F4222F45D
:104DEC007002002322F03F02314602B0BDE8F041D0
:104DFC00FFF7B0BF07B50123019201AAFFF7C3FF6C
:104E0C0003B05DF804FB07B5CDE9002302236A4625
:104E1C00FFF7B9FF03B05DF804FBF8B506460D4685
:104E2C0014461F4604B9F8BD214628463A46B047F9
:104E3C00241A0544F6E710B5426881680446D2E9A5
:104E4C0000230068FFF7E9FF636800221A6010BDB9
:104E5C0038B54B681A68CB689A4205460C4602D1A5
:104E6C000846FFF7E8FF6368BFF35B8F53E8002F3A
:104E7C00511C43E800100028F8D1BFF35B8FA368E6
:104E8C009D54002038BD0A2838B504460D4602D181
:104E9C000D20FFF7DDFF29462046FFF7D9FF002044
:104EAC0038BD2DE9F043054687B008460E8891F8C9
:104EBC000090D1F808800C461746FCF7D1FA011E79
:104ECC00C6F38216C9F3C2091EDB4846FCF7E6F9A5
:104EDC0003462146608851F8102B0196C2F34A22F2
:104EEC00002A01EB0204C0F30B1008BF00210022C2
:104EFC00CDE90407CDE90214009241462846FCF79F
:104F0C00DBFA07B0BDE8F0830023E2E743681B68D7
:104F1C005B6800201961704743681B681A68526807
:104F2C00536070472DE9F04143681B685A680121B2
:104F3C0011751D68D5E90136D3E900482F681CB9F5
:104F4C006B681C60BDE8F081214630464246B8478C
:104F5C00241A0644F3E743681B681868FCF716BC70
:104F6C0070B543681D686B6818690C46FBF7B8FF91
:104F7C00214603460F222868BDE8704018470146B9
:104F8C000068FCF75DBC08B5FCF7B6FCBDE8084052
:104F9C00FCF7D6BC0A460121FFF72CBF00210120EB
:104FAC00FCF74EBC61B662B680F31188BFF36F8F0D
:104FBC00704772B6002383F31188BFF36F8FBFF372
:104FCC004F8F30BF62B6BFF36F8F7047202809D95F
:104FDC00B0F1004F08D80138B0FA80F0C0F11F00D2
:104FEC0040007047082070473E20704708B5D1E953
:104FFC0004319847002008BD08B5FDF7B5F900202D
:10500C0008BD01208840704700F003020432920072
:10501C000F23934043EA900010B5C3B29B0003F1F9
:10502C00804303F59C33020C9C6892FAA2F2B2FA0C
:10503C0082F224EA104091400143996010BD0B8824
:10504C00C3F30B0303F57D62C2F30B02782A82B023
:10505C0014D803F1804303F50E3348681A680243F1
:10506C001A600B88C3F30B0303F1804303F50E3373
:10507C0000201B680193019B02B070476FF0850004
:10508C00FAE70B88C3F30B0303F57D62C2F30B0243
:10509C00782A9FBF03F1804303F50E3349681A68E1
:1050AC009DBF8A4300201A606FF085007047072867
:1050BC0008D8EA23C34013F0010F14BF00206FF08F
:1050CC00850070476FF08500704710B50888C0F3F5
:1050DC000B00FFF7ECFF00281FDB4A68FF2A1BD0F0
:1050EC0093B203F1804303F50E33C2F38454186872
:1050FC00C2F3054204FA02F220EA02021A6049687D
:10510C008BB203F1804303F50E33CA0E1868C1F35A
:10511C0005418A4002431A60002010BD0888C0F384
:10512C000B0008B500F57D63C3F30B03782B0AD88D
:10513C0000F1804000F50E304B680268934314BFB9
:10514C000120022008BDFFF7B2FF002814BF012088
:10515C000220F7E7704743685B681B690B6000200F
:10516C00704743685B68586942400A4042405A6144
:10517C000020704743685B68002099617047436862
:10518C005B68090499610020704743685A68536949
:10519C004B4053610020704710B503699868F8B113
:1051AC00884219D1DC6808689860A14200D1D860A7
:1051BC00002008602AB19A680A60DA68996002B91E
:1051CC00D960002010E0814206D108682060D868C0
:1051DC008142EDD1DC60EBE7044600680028F2D197
:1051EC00002AE8D16FF0150010BDF0B5446801201D
:1051FC00676888401E46C2F3801327EA00078B407D
:10520C003B43636090FAA0F7B7FA87F7D4F808C06D
:10521C004FF0030E7F000EFA07F72CEA070C90FAFA
:10522C00A0F7B7FA87F7C2F3C1137F00BB4043EA7C
:10523C000C03A36090FAA0F3B3FA83F3E7685B0066
:10524C000EFA03F327EA030790FAA0F3B3FA83F3F9
:10525C0002F030055B00C2F341229A403A43202D04
:10526C00E26016D107292BD890FAA0F3226A2BB34F
:10527C00B3FA83F39B000F2101FA03F322EA030232
:10528C0090FAA0F3B3FA83F39B0006FA03F31343EB
:10529C00236290FAA0F3B3FA83F3226890FAA0F099
:1052AC005B000321B0FA80F02D0901FA03F34000F2
:1052BC0022EA030385401D432560F0BD2B46D9E748
:1052CC00030A616A93FAA3F282B1B2FA82F29200F3
:1052DC000F2793FAA3F3B3FA83F307FA02F29B00B6
:1052EC0021EA02029E4016436662D2E72A46EEE7A6
:1052FC0012F4003CF8B505460C4613461DD0960733
:10530C0014D550075DD55022D90611D542F4007240
:10531C0003F4C061B1F5806F42D0B1F5C06F19D004
:10532C00B1F5007F18D142F0800215E01022EBE7B6
:10533C009F06EDD542F48062EAE7D60305D5D00688
:10534C0005D4C2F340129202E2E73022E0E74FF4B8
:10535C000072DDE742F4C07213F440372E6908D0B6
:10536C00306920FA04F1C9075FBF0121A140014354
:10537C003161BCF1000F06D0180314D56968012304
:10538C004968A3408B61686800232146FFF72DFF15
:10539C0027B9336923FA04F2D2070CD40020F8BDE4
:1053AC0042F48072D8E75903EDD50121A14028467B
:1053BC00FFF7E5FEE7E70122A24023EA020333618F
:1053CC00ECE76FF08500EAE770B50B468968054697
:1053DC0011B15E680C6801B970BD8A682A4002D0B0
:1053EC004B68304698471CB1236821461C46F2E7AF
:1053FC002346FAE7F8B51F46044640680E461546A4
:10540C00FFF7F3FE112F07D101212B0501FA06F14D
:10541C0004D563685B6899610020F8BD2046FFF7EE
:10542C00AEFEF9E730B5036813600579046804EB48
:10543C00C504A34202D36FF0010030BD5C798C42ED
:10544C0001D00833F0E70020F7E74368C1F34B10B5
:10545C001B6801F01F01C05801238B40034214BF8D
:10546C000123002313700020704710B54368C1F36B
:10547C004B101A6801F01F01845801238B40234301
:10548C008350002010BD10B54368C1F34B1418684D
:10549C0001F01F01235801228A4023EA0203235002
:1054AC00002010BD38B504460D46FFF7DEFF294637
:1054BC002046FFF7E8FF002038BD82B00368019357
:1054CC00019B43680193019B02B0704708B5436888
:1054DC00186802680368D9070368C2F3C00248BFA2
:1054EC0042F002029B07036848BF42F004025907CE
:1054FC00036848BF42F02002DB0542BF6FF48073A3
:10550C0042F008020360D10701D5FFF7D6FF9307DD
:10551C0001D5FFF7D2FF510701D5FFF7CEFF930658
:10552C0001D5FFF7CAFF104608BD10B543681B68CC
:10553C0010201A681206FCD5EFF3118280F3128842
:10554C00BFF36F8F1C68240604D482F31188BFF359
:10555C006F8FEEE7596082F31188BFF36F8F10BD28
:10556C0008B54368186803681A0701D5FFF7A5FF4B
:10557C0003689B0643BF43680B7000204FF0FF305D
:10558C0008BD03695B681B680B6043681B68DB68BC
:10559C0003F4C063B3F5806F2FD0A3F5C06CDCF1BE
:1055AC00000343EB0C030B7143681B681B6903F48A
:1055BC004053B3F5805F22D0B3F5405F21D0002B70
:1055CC000CBF012303234B7143681B68DA68DB684B
:1055DC00D20403F4C06316D5002B14BF0323042399
:1055EC008B7143681B685B6903F44073A3F54072CD
:1055FC0053425341CB71002070470223D3E7002361
:10560C00E1E70223DFE7002B14BF02230323E7E7C4
:10561C0037B50269436810681C680D46D968836801
:10562C00DB681BB9FDF7D4F903B030BD01AA98476C
:10563C000028F7DBE368019823F400431921E360A9
:10564C00AA00AB0FA0FB0101FAF7AAFD6422B0FB84
:10565C00F2F102FB11031B013233B3FBF2F303EB48
:10566C0001139BB2A360DFE7704740B1C368587861
:10567C0010F001001EBF1878B0FA80F04009704796
:10568C00EFF31183102383F31288BFF36F8FFEE7C0
:10569C0010B54369044633B90020E268537843F0EF
:1056AC000103537010BD98470028F5D00028B8BFEF
:1056BC004042E368FF28A8BFFF201870EDE700F018
:1056CC0058B900F048B908B51024EFF3118384F3EE
:1056DC001288BFF36F8FFFF76CFCF6E73AB18A4282
:1056EC0005D3C0E90212C0E90000002070476FF03A
:1056FC0015007047EFF30580003818BF0120704784
:10570C006FF05700704700207047D0E900321360EB
:10571C005A600023C0E90033704708B5FFF7F5FF66
:10572C00437B23F0020343730023836008BD38B529
:10573C0004460D46FDF7ECFF637B43F002036373F5
:10574C00E5B1A5602B689D4209D16B68C4E9005393
:10575C001C606C6012E06A689A42F6D01B68002BE1
:10576C00F3D094F90E2093F90E108A42F3D09142A3
:10577C00F1DD5A68C4E9003214605C6038BD10B5C4
:10578C00EFF31184102383F31288BFF36F8FFDF7AF
:10579C007DFF84F31188BFF36F8F10BD08B5EFF355
:1057AC001181102282F31288BFF36F8F83680BB1C3
:1057BC00FFF7B3FF81F31188BFF36F8F08BD10B5EE
:1057CC000146EFF31184102383F31288BFF36F8F1C
:1057DC00437B13F0280F0AD183680BB1FFF79DFFB1
:1057EC004B7B23F004034B730846FDF74FFF84F308
:1057FC001188BFF36F8F10BD01211838FFF7DFBF81
:10580C0008B50346EFF31181102282F31288BFF31F
:10581C006F8F0068834207D008B1FFF77EFF81F3DA
:10582C001188BFF36F8F08BD0020F8E738B5044628
:10583C000D46FEF7C9F8B5F1FF3F08BFB4F1FF3FC5
:10584C000346204614D013F109004FEAE37141F1ED
:10585C0000010A2871F100030BD36FF00A03834295
:10586C004FF004038B4106D30A220023FAF798FC6D
:10587C0038BD0020FCE76FF00040F9E708B50246A0
:10588C00FEF752FA70B1D0E904319B1A61EBE27267
:10589C00B3F1004F72F1000104DA002AACBF1846D4
:1058AC00002008BD6FF00040FBE738B50246EFF36F
:1058BC001185102383F31288BFF36F8F0368CBB16C
:1058CC00FEF732FA04461046FEF740FA00224FF07B
:1058DC0000438442C0E9042306D1FEF72DFAFFF7FA
:1058EC00CDFF0021FDF782FA002085F31188BFF36C
:1058FC006F8F38BD6FF01500F7E708B5FEF732FB78
:10590C0008BDFEF72FBB0023C0E9081200F11802F6
:10591C00C0E90622C0E9003303634363704710B546
:10592C000446FFF7C2FFA8B9636A0BB1204698473B
:10593C0004F11800FFF764FF60B1FFF720FFEFF3ED
:10594C001180102383F31288BFF36F8FBDE81040D2
:10595C00FDF792BF10BD0A44914200F1FF3300D114
:10596C00704710B511F8014B03F8014F9142F9D172
:10597C0010BD02440346934200D1704703F8011B4B
:10598C00F9E710B5024601448A42134603D01C784D
:10599C000132002CF8D1181A10BDF0B5C3F137073D
:1059AC000446FFB203F01F031046082BE6B233D0B7
:1059BC00102B3ED06508A40844EA817445EAC175F1
:1059CC002D194FEA910242EB5102290941EA027169
:1059DC006D1842EB1212290A41EA02616D1842EB72
:1059EC001222290C41EA02416D1842EB1242AD1809
:1059FC0042F10002EC0844EA4274D10804EB840240
:105A0C00A6EB4205EDB2092D0CD90134A5F10A051E
:105A1C0041F10001EDB212E0E40844EA417406F0F1
:105A2C000705C908303554EA010200F8015BBCD106
:105A3C00F0BD240944EA017406F00F050909092D8B
:105A4C0084BFED19EDB2EDE7D1E9043293421EBFEC
:105A5C005A1C0A61187070470148006870470000B2
:045A6C00F00700201F
:085A700070A7FF7F0100000098
:105A780000000000185B0008490D00080000000045
:105A880000000000385B000800000000B85C000857
:105A980000000000F85B000800000000585B0008E8
:105AA80000000000785C000800000000585C000856
:105AB80000000000985C000800000000385C000846
:105AC80000000000185C000800000000D85B000817
