:020000040800F2
:100000000061002071670008F1F100085D670008D9
:100010005D6700085D6700085D670008000000007C
:1000200000000000000000000000000095680008CB
:100030005D67000800000000E16700083D8E0008D1
:10004000256B0008256B0008256B0008256B000850
:10005000256B0008256B0008256B0008256B000840
:10006000256B0008256B0008256B0008256B000830
:10007000256B0008256B0008256B0008256B000820
:10008000256B0008256B0008256B0008256B000810
:10009000256B0008256B0008256B0008256B000800
:1000A000256B0008256B0008256B0008256B0008F0
:1000B000256B0008256B0008256B0008256B0008E0
:1000C000256B0008256B0008256B0008256B0008D0
:1000D000256B0008256B0008256B0008256B0008C0
:1000E000256B0008256B0008256B0008256B0008B0
:1000F000256B0008256B0008256B0008256B0008A0
:10010000256B0008256B0008256B0008256B00088F
:10011000256B0008256B0008256B0008256B00087F
:10012000256B0008256B0008256B0008256B00086F
:10013000256B0008256B0008256B0008256B00085F
:10014000256B0008256B0008256B0008256B00084F
:10015000256B0008256B0008256B0008256B00083F
:10016000256B0008256B0008256B0008256B00082F
:10017000256B0008256B0008256B0008256B00081F
:10018000256B0008256B0008256B0008256B00080F
:10019000256B0008256B0008256B0008256B0008FF
:0C01A000256B0008256B0008256B00088B
:1001B0007BB972B90029BEBF00204FF0004106E0B4
:1001C00008BF00281CBF6FF000414FF0FF3000F067
:1001D00057B8ADF1080C6DE904CE002909DB002BFE
:1001E0001ADB00F07CF8DDF804E0DDE9022304B05E
:1001F0007047404261EB4101002B1BDB00F06FF8C0
:10020000DDF804E0DDE9022304B0404261EB410186
:10021000524263EB43037047524263EB430300F0E7
:100220005EF8DDF804E0DDE9022304B0404261EB52
:1002300041017047524263EB430300F050F8DDF890
:1002400004E0DDE9022304B0524263EB430370474C
:1002500053B94AB9002908BF00281CBF4FF0FF312D
:100260004FF0FF3000F00CB8ADF1080C6DE904CE92
:1002700000F035F8DDF804E0DDE9022304B0704752
:10028000704700BF10F8012B11F8013B012A28BF6D
:100290009A42F7D0D01A7047034611F8012B03F8A1
:1002A000012B002AF9D17047034613F8012B002ACD
:1002B000FBD1181A01387047430803F05533C01AB0
:1002C00000F03333800800F03330184400EB101096
:1002D0004FF0013300F00F305843000E70472DE906
:1002E000F04786468C460846089E154674461946D1
:1002F000002B40F0C2808542B2FA82F245D94AB161
:10030000C2F1200300FA02FC2EFA03F3954043EAFF
:100310000C0C94404FEA154EA8B2BCFBFEF8230C1F
:100320000EFB18CC08FB00F943EA0C43994528D989
:10033000EB1808F1FF3704D2994502D9A8F102075A
:100340002B44A3EB0903A4B2B3FBFEFC0EFB1C334E
:100350000CFB00F044EA0344A04214D92C190CF120
:10036000FF3304D2A04202D9ACF102032C44241A78
:1003700043EA07401EB1D440002334607360BDE8F7
:10038000F0874746DDE76346F1E792BB431B012157
:100390004FEA154EAFB2B3FBFEFC200C0EFB1C3334
:1003A0000CFB07F840EA0343984562D9EB180CF1BF
:1003B000FF3004D2984502D9ACF102002B44A3EBE4
:1003C0000803A4B2B3FBFEFC0EFB1C330CFB07F7C7
:1003D00044EA0344A7424ED92C190CF1FF3304D24E
:1003E000A74202D9ACF102032C44E41B43EA0040CB
:1003F000C0E7C2F1200320FA03F1954090402EFAA5
:1004000003F303434FEA154EAFB2B1FBFEFC0EFB04
:100410001C10190C0CFB07F841EA0041884504FA4E
:1004200002F422D969180CF1FF3004D2884502D9B0
:10043000ACF102002944A1EB08019BB2B1FBFEFC28
:100440000EFB1C110CFB07F743EA01439F420ED938
:10045000EB180CF1FF3104D29F4202D9ACF102013A
:100460002B44DB1B41EA004192E76046E3E761462B
:10047000F7E76046A3E76346B7E7834206D916B9B4
:10048000002108467BE7C6E900E0F9E7B3FA83F705
:100490008FB9834201D3724508D8BEEB020460EBEA
:1004A000030301209C461EB9002168E73846FAE79D
:1004B000C6E9004CF8E7C7F1200CBB4022FA0CF467
:1004C0001C432EFA0CF120FA0CF3B84001434FEA1A
:1004D00014490EFA07F5B3FBF9F81FFA84FE09FB7D
:1004E00018300B0C08FB0EFA43EA00439A4502FA57
:1004F00007F240D9E31808F1FF3004D29A4502D937
:10050000A8F102002344A3EB0A0389B2B3FBF9F874
:1005100009FB183308FB0EFE41EA03418E452CD936
:10052000611808F1FF3304D28E4502D9A8F1020305
:10053000214443EA0040A0FB0298A1EB0E01414593
:10054000CE46434602D306D14D4504D2B9EB020E46
:1005500068EB04030138002EA6D0B5EB0E0261EB68
:10056000030101FA0CFC22FA07F34CEA0303F940F9
:10057000C6E9003198E74046C5E74346D9E70000A1
:100580002DE9F047044688B08846174610F05FFC16
:100590000A220023FFF75CFEB8F1010F06460D4664
:1005A00007D102460B46204627490DF0E5FD002005
:1005B00011E07F6825483946FFF764FE70B1244892
:1005C0003946FFF75FFE48B1204622493A460DF012
:1005D000EFFD6FF0040008B0BDE8F0873046294613
:1005E00017A3D3E90023FFF7E3FD06460D461046A7
:1005F0001946194A0023FFF7DBFD80460F461046D7
:1006000019464EF660220023FFF7D2FD8246894646
:10061000104619464FF47A720023FFF7C9FDCDE961
:1006200002A9CDE90623CDE90401CDE900870B49F4
:1006300032462B4620460DF09FFDB8E7AFF3008011
:10064000005C2605000000009D3D0108AE3D01084C
:10065000B13D0108BA3D010880EE3600D23D0108E7
:1006600038B5204D204904460DF086FD2946204628
:100670000DF082FD20461D490DF07EFD20461C49EF
:100680000DF07AFD20461B490DF076FD20461A49F3
:100690000DF072FD204619490DF06EFD20461849F7
:1006A0000DF06AFD294620460DF066FD20461549ED
:1006B0000DF062FD2046144905220DF05DFD032278
:1006C000204612490DF058FD294620460DF054FDF4
:1006D00020460F490DF050FD20460E490DF04CFD0F
:1006E000002038BD6F4101082A2D0108492D01085D
:1006F000812D0108BB2D0108F12D01082A2E0108CA
:10070000642E01088D2E0108BE2E0108EF2E01086F
:10071000202F0108AC330108F8B51A4D0027022933
:100720000446164628606F602F7216D1526816492B
:100730006A600DF021FD154839460AF099FD2B7AC3
:10074000A3B97268124920460DF016FD20461149E2
:100750000DF012FD6FF0010009E0012908D10E49EA
:100760000DF00AFD094839460AF082FD0020F8BD67
:100770000A490DF001FD204606490DF0FDFC6FF021
:100780001500F4E7F8160020582F01089908000812
:10079000FA2F0108CD2F01087E2F0108AC2F010888
:1007A000194B1A4970B50446002518605D601D722A
:1007B0000DF0E2FC20461649164E0DF0DDFC2046F9
:1007C00015490DF0D9FC204614490DF0D5FC2946F9
:1007D00013480AF04DFD314620460DF0CDFC4FF494
:1007E000005220460F490DF0C7FC314620460DF05F
:1007F000C3FC20460C490DF0BFFC20460B490DF010
:10080000BBFC284670BD00BFF81600201830010858
:100810003A3001086F4101084F3001086930010882
:10082000D1090008833001089F300108D930010840
:10083000022938B5044605D010490DF09DFC6FF033
:1008400015000DE055680E492846FFF71BFD40B91D
:100850000C4B0D4901221A7020460DF08DFC002032
:1008600038BD0A492846FFF70DFD18B9054B084960
:100870001870F1E707492046DFE700BFF4300108B0
:10088000833E0108703100200B3101082631010838
:100890002A31010847310108F0B5384C99B00646B5
:1008A00010F035F96168054619B1FFF7EBFC002837
:1008B00043D101230CA93046237210F03DF9304991
:1008C00020682A460DF058FCDDE90C232D492068EC
:1008D0000DF052FC202204A93046276809F038FFA9
:1008E0002949024638460DF047FC28492846FFF7BB
:1008F000C9FC20BB264B0FCB6D4685E80F00254970
:1009000020680DF039FC2449206805220DF034FCE4
:10091000224B23491A6820680DF02EFC214B2249F6
:100920001B7818AA02EB830353F8602C20680DF0A3
:1009300023FC1E4920680DF01FFC19B0F0BD1C49B6
:100940002846FFF79FFC0028F3D11A4920680DF0D4
:1009500013FC0322104920680DF00EFC1649206894
:100960000DF00AFC154B16491A68164B20681B68D7
:100970000DF002FC144B15491A68D7E7F816002051
:100980007031010895310108AE310108BA31010812
:1009900060200108C3310108DA3101086801002034
:1009A000EA31010871310020FD310108A33301084B
:1009B0000B320108173201082E3201080C170020F3
:1009C0005132010804170020081700206A3201087C
:1009D00070B588B0054610F09AF8084B0446694691
:1009E000202228461E6809F0B3FE05490346224628
:1009F00030460DF0C1FB08B070BD00BFF8160020F6
:100A00007B32010838B5144C237803F0FF0563B935
:100A1000012112480CF02EFB294611480CF02AFB4C
:100A200023780133DBB2237038BD2378012B05D145
:100A30000A4800210CF01EFB0121EEE7237807484D
:100A4000022B4FF00101F5D00CF014FB04480021FB
:100A50000CF010FB0023E6E771310020BC230108F5
:100A6000B423010870B51848036803F00703022B8C
:100A700003D9164A03210CF0BBFF1548154C144D41
:100A8000154E0CF0EFFA237813B12378032B04D121
:100A900028460CF0E7FA304603E02378012B03D117
:100AA00028460CF0DFFA02E02378022BF3D00B4B40
:100AB000186830B118680A21A0FB010110F028F96C
:100AC000E1E70146FAE700BFE402002087320108AF
:100AD000BC23010871310020B42301086801002003
:100AE0002DE9F04F99B000AF1422002107F110005A
:100AF00010F075FB07F10A03BB61644C0223FB6134
:100B00004FF0000854F8060C0FF03AFF78B94FEA9E
:100B100008185F4B5F4853F8083019680CF08FFBDA
:100B20006437BD46BDE8F08F4FF00108EAE714F8DE
:100B3000013C2BB154F8060C836821461B6898478A
:100B40001034B8F1000FEFD03C22002107F124004F
:100B500010F045FB00264E4C4FF00009A346637988
:100B600053B12379012202FA03F37B61A37B87F857
:100B70002030E37B87F821302068836807F110017B
:100B80005B6898470BEB0913DFED437A9B7A980675
:100B900007F1600303EB460306F10106F6B24CBF12
:100BA000B7F90A507D8923F83C5C1E2E4FEA091ADA
:100BB00008BF002607F124021E2332F8021B07EEAD
:100BC000101A013BB8EEC77A13F0FF0377EE877A6D
:100BD000F3D1F3EE0E6A87EEA67A304B1D60304BF0
:100BE000FCEEC77AC7ED017AC3ED007A2D487A682A
:100BF000836801215B6898476379E3B1E379A07961
:100C0000042B0ABF2368A2899B68DA4408BF1A89AB
:100C10009AF80A10A37B890644BF03F1FF33DBB2C5
:100C20006A4307F10C013B60FA6006F0E1FE10B97F
:100C3000FD683B681D411C4B1D601C4B1B78D3B1EC
:100C40001B48036803F00703022B14D9134BEA4631
:100C50008AB01B686A461749C2E907357B68536248
:100C60000623C2E9051942F8103F00234FF443510F
:100C700001F0D6FAD5460A20002110F049F81034C8
:100C8000B9F1000F7FF467AFC14668E7CA230108D6
:100C9000C423010898320108000000000C1700204E
:100CA00008170020B819010804170020703100202F
:100CB000E4020020BC320108022938B5044615467A
:100CC00005D011490DF058FA6FF0150038BD506885
:100CD0000CF0E4F938B16D682846FFF7E5FA0A2808
:100CE00001D82B7813B909492046EBE72D2BFAD010
:100CF000284610F07CFA064B064918601A68204610
:100D00000DF03AFA0020E1E7E6320108FE32010870
:100D1000680100201C33010808B507480CF08FFA61
:100D200006480CF08CFA06480CF089FABDE8084039
:100D300004480CF084BA00BF6F4101084433010835
:100D4000703301089E3301082DE9F041844D88B0CD
:100D50002B6803F00703022B08AF04D9814A032153
:100D600028460CF045FE80480FF00AFE50B92B686B
:100D70005C0704D07D4A7A4801210CF039FE6FF0FF
:100D800012040FE07A484FF4D0110CF04CF9041E15
:100D90000CDA2B68590705D0764A714823460121A1
:100DA0000CF02FFE2046BD46BDE8F0816E480FF0E6
:100DB000E7FD20B92B685807E1D06F4ADBE76F48A1
:100DC0004FF4D0110CF02FF9041EE2DB00220023B7
:100DD000CDE9062300240523CDE90334CDE9014400
:100DE000674B684900944FF40072674809F07CFD36
:100DF000664B1860664909F09BFC4FF480316548EA
:100E00000CF011F90146D8B12B685A0716D06D467F
:100E10008AB008AA604BC2E90530604B1B68C2E982
:100E2000073440F2013393845D4B42F8103F4C4845
:100E300023464FF4315101F0F3F9AD460024B1E7F8
:100E4000564CA6682369D6F81880B8F1000F3AD03E
:100E50001B6813F0010F14BF4FF000734FF0806355
:100E60004FF0A0722046C04700282ED14D494E4B6E
:100E70004B60F36901228A600BB1204698472B68CA
:100E800003F00703022B14D923686C468AB008AA22
:100E90004649C2E905134FF4007111840023444907
:100EA000D36142F8101F2E484FF4135101F0B8F9E6
:100EB000A546404C20460FF063FD00BB21683E482C
:100EC0000CF0BDF9BAE76FF057002B685B07B5D09F
:100ED00023686C468AB008AA3849D361C2E9051074
:100EE00040F20131918400232D49136242F8101F12
:100EF0001B484FF4315101F093F9A5469EE7A368D2
:100F00002F491B6820469847014608B12D48D7E76E
:100F1000002200230324CDE90623CDE90204CDE914
:100F200000000490284B294929484FF4806209F0B9
:100F3000DBFC284B1860284909F0FAFB2B6803F00A
:100F40000703022B04D9254A054821460CF050FD21
:100F5000002144F620600FF0DBFEFFF7DDFE6DE7B9
:100F6000E4020020CA3301082C180108F1330108FB
:100F7000BC230108143401083A340108B4230108E1
:100F8000650A00088036002058050020F41600206D
:100F9000BA310108AC2301085E34010804190108C4
:100FA0000500000110170020050A0008BD340108E3
:100FB00004000001B8190108D93401088734010878
:100FC0004F360108F5340108E10A0008003200201C
:100FD00040040020F01600200B32010824350108DF
:100FE0002DE9F04F91B08407009302F004030293BF
:100FF000C2F3C20303F10103DDF8688003920546E2
:101000000E46059340F0BA81041D30B1072909D876
:101010006FF01B0011B0BDE8F08F01F007063444FB
:10102000C6F10806009B4FF00009591E4FF0040A54
:101030004FF0FF330193CDF810904F46CB46534607
:101040000DB1009820600598002800F3E8809848CA
:10105000009A824203D397488242C0F0E080039A0C
:10106000A4EB050E92074FEA9E0000F103810F2FBB
:1010700000F2B180002D00F0058107F140020DEB78
:10108000020C019A0CF8200C0CF8102C049801307A
:101090000490E7E07A285DD84B280ED8472859D825
:1010A00029282DD8252852D054D820287AD0233862
:1010B000D0F1000B4BEB000B74E04C382E2849D8D4
:1010C000DFE800F0704848484848484848484848E1
:1010D0004B484848484848484859484B4B59595943
:1010E000704B6D487048184B184848827F4B4848F1
:1010F0004B487F0000204FF0000B4FF0040A38E00F
:101100002A38C0B2012202FA00F010EA0E0F49D1CB
:1011100010F0625C2FD110EA020B43D06046013C14
:101120005444B4FBFAF40AFB04F4002D61D0A3EBA1
:10113000050CA444B4453FF66BAF002868D1042BDE
:1011400047D158F8043B2360043404232AE0019A71
:10115000013A01924FF0000B24E011F8010C6C28C9
:1011600034D111F8023C00206C2B8346C5D14FF0DE
:10117000080A5346D3E708F1070828F007080734A0
:10118000F8E802AB24F0070435B106982044B042D9
:101190003FF63EAFC4E900AB08344FF0000B4FF010
:1011A000080A534611F8010F002878D0BBF1000F50
:1011B0007FF470AF2528F5D1019B013301934FF0E7
:1011C000010B4FF0040AECE7584694E700208346F1
:1011D000A5E7082B02D06FF015001BE708F1070800
:1011E00028F00708B8EC027B84ED007B0834082364
:1011F000D8E768B9042B02D108F10408A4E7082B4A
:10120000E9D108F1070828F0070808F10808EDE718
:1012100005980138059058F8040B009010E7039AE0
:10122000900720D5A4EB050E4FEA9E004FF0010C6D
:10123000BEF5007FCFD20F2FCDD8F5B107F1400218
:101240000DEB020EC0B2019A0EF8200C0EF8102C15
:10125000BCF1000F3FF41AAF60F07F000EF8200CD5
:1012600009F101090137C5F10802043406924FF66D
:10127000DA7E97E74FF0000CDAE7BCF1000F01D0FF
:101280000136EFE7029A0236002AEBD10098CDE949
:101290000631FFF709F8DDE906310644E2E7631B92
:1012A000B3F5806F97D23DB9A6F10804E018B1E616
:1012B00048160108A45D0108029A28609B082B705B
:1012C0009DF81030C2B1EB7085F80290B9F1000FB3
:1012D00005D008A80022C5F1010C97420ED1C5F136
:1012E00001030DF120084FF0000A01930DF1300BBE
:1012F000574512D1601B8DE66B70E5E710F8013B96
:10130000190608D50CEB040EB64503F07F033FF633
:101310007FAE04F8013B0132DFE7B9F1000F03D0E3
:1013200098F90020002A17DB029BD3B11AF80B2092
:1013300004F8012B0022019B18191044B0423FF61B
:1013400067AE98F8000004F8010B0099039220465C
:101350000FF01DFF039A14440AF1010A08F1010875
:10136000C6E798F8002055F822300093029B45F814
:1013700022300098FEF798FF421CDCE76FF00D006A
:1013800048E600BF2DE9F04F97B000AF90F802A0FB
:10139000D7F880B03B62CBF3C0030446FA62BB616E
:1013A000894641B9457800780AEB800020444D45D4
:1013B00017D8A0EB0409E378FB61BAF1000F02D063
:1013C0001BF0010F16D1FB6953BBFB6A1BB13A6AD4
:1013D0004946204698474D4628465C37BD46BDE8FD
:1013E000F08F461C3046FEF75FFF0130304409F1B4
:1013F0000109DCE7237862687A62FA6A9900796108
:1014000004EB8301002A40F004814D460E4601EBB7
:101410000A094FF000084E4550D101EB0A0610E0D2
:101420001BF0020FD1D023789A007A6162687A6249
:10143000FA6A04EB8301002A7BD14D4601EB0A06D0
:1014400090461BF0050F0CBF02230123FB62FB69D2
:1014500006EB430A0BF00203BB625645BCD016F8FC
:10146000021B16F8013C54F823909B4B994502D37C
:101470009A4B99453AD3BB69002B44D0786A0BF05C
:10148000B7FE00283FD09648036813F0060F13D02C
:10149000E9468AB06A46934B53617B6AC2E90631DA
:1014A0004FF400731384904B42F8103F00234FF425
:1014B000125100F0B5FECD46023DCEE716F8013BD5
:1014C000F96254F82300FEF7EFFED7F88430F96A8A
:1014D00001304BB1D7F8883098453EBFD7F88430FB
:1014E00023F8180008F10108054494E7BB6923B10B
:1014F000786A0BF07DFE0028C5D11BF0010F05D1E5
:10150000FB6AED1AA9E7BB6A002BA6D04846FEF796
:10151000CBFED7F8843053B1D7F8883098453FBF19
:10152000D7F88420431C22F8183008F1010805443C
:1015300093E7BAF1000F72D01BF0040672D0D046C8
:10154000002607F1480052463B61B9620FF01FFECA
:10155000B96A3B6901EB0A02BA62FA69F969520099
:10156000FA60BA6A02EB41023A610BF00202BA6019
:101570003A69B96A8A4257D162787A621BF0020FDF
:1015800032440CBF4FEA580100211BF0010FD2B2C8
:1015900040F09F801BF0040F14BF40460020BB6149
:1015A0006270A070E1703A6A7969FB6A20469847D8
:1015B000051EFFF611AFBB6923707B6A6370FB6980
:1015C000E37041463A6AFB6A84F802A007F14800DA
:1015D0009847B0F10008C0F2BB807B693A6AA9EB7A
:1015E0000A01C91AFB68C91AD7E90A0398470028F3
:1015F000C0F2B080A84408EB00054FF0000B07F1E3
:10160000380AB34572D300213A6AFB6A0846984704
:10161000E2E656464FF0000807F1380093E75646D9
:10162000D04697E7B04695E7BA6A12F8021BBA624D
:1016300012F8015C284A54F82500904202D3274A48
:1016400090421ED3BA6932B1786A7B600BF0D0FD4C
:101650007B6800288CD1BA6802BB08F1280207F128
:10166000300C08F10100944407F1580252FA80F05E
:1016700008F102080CF8101C5FFA88F800F8105CFA
:1016800076E7BA693AB1786A7B600BF0B1FD7B68A6
:1016900000287FF46DAF1BF0010F09D006F128027E
:1016A00007F13000711C161806F8205CCEB25FE717
:1016B0001BF0040F3FF45CAF08F1280207F1300083
:1016C00008F1010102EB000808F8105C5FFA81F8EC
:1016D0004EE7002063E700BF48160108A45D01083B
:1016E000CC02002052360108040000011BF80A3029
:1016F00087F8373054F82390D7F884302BB3D7F8D5
:1017000088309B4521D2D7F8843033F81B803A6A61
:10171000FB6A012107F13700984700281ADB0544CE
:10172000B8F1000F06D14846FEF7BEFD00F10108F2
:101730001FFA88F83A6AFB6A4146484698470028EB
:1017400008DB05440BF1010B5BE74FF00008DEE717
:10175000454641E605463FE6014B1860704700BF2D
:101760006C01002080B505460E461746984609F0E4
:101770001DFC03460FF05EFFDFF81890044649F8A1
:101780000030424630463946A84754F8090005F073
:1017900011F800BF080000002DE9F843446905690D
:1017A000C76840F26C73E1170135E41841F100019C
:1017B000022D8CBF00230123E41A61F100010029EE
:1017C000064607F1FF3751DA6FF4C77020184FF45F
:1017D000C8724FF0000361F10001FEF7E9FC264BEF
:1017E00003FB0044D6E90083B6684FEAE37C4FF080
:1017F0003C0E99466346C6FB0E93A9FB0EC60EFB34
:101800000366A30840F26D1E022D0EFB0433024650
:101810003B448CBF6FF00200092064270544B4FBF1
:10182000F7F499201B1B154C45431CEB080C4FF09B
:10183000050005F10205B5FBF0F5A2FB04202B44E1
:1018400004FB010146EBE87698180D4A41F10003CC
:1018500080180C4A63F10003A0FB020102FB031194
:1018600010EB0C0041EB0601BDE8F8834FF4C872A1
:1018700000232046B1E700BF70FEFFFFB13A02002F
:101880009405F5FF8051010010B5FFF785FF024672
:101890000FF0D0FE0B460349002444501046194671
:1018A00010BD00BF0C000000034A536823F0020380
:1018B00053600020704700BF002004E0EFF3118068
:1018C000102383F31288BFF36F8F094B1A683AB95C
:1018D000084A116841F4807111601168C905FCD58E
:1018E0001A6801321A6080F31188BFF36F8F704756
:1018F0001C1700200070004038B5EFF3118510234D
:1019000083F31288BFF36F8F104B1A6892B9104C93
:10191000237853B90F48036813F0060F03D00E4A1B
:1019200002210CF065F80123237085F31188BFF3C1
:101930006F8F38BD012A01BF08490A6822F48072FE
:101940000A601A68013A1A60EFE700BF1C1700200E
:1019500072310020FC0200200637010800700040B0
:10196000084B1A6842F480721A601A6842F40072D6
:101970001A601A6842F480621A60034B034A1A60C4
:10198000704700BF003C0240300200200024F400F9
:1019900030B585B0D0E90123C16802916421594373
:1019A000B1FBF2F1CDE900210E4D01680446D21AD7
:1019B0000D480BF044FCD4E9062329460B480BF0F4
:1019C0003EFCD4E90C23CDE90223D4E90A23CDE976
:1019D00000230748D4E9082329460BF030FC05B062
:1019E00030BD00BF42390108433701088337010881
:1019F000A8370108F0B5A1B0D0F8BC600F68054663
:101A00000FF085F8044608B1037833B91A4A2B461B
:101A10000B2101A80AF0FEF801AC694628460FF038
:101A200084F8024628B1154821460BF008FC002333
:101A30000093009BCDE9104614A9F61A2846129689
:101A40000FF07AF898B904A80FF080F858B91498F4
:101A5000159D6424A0FB0401DDE9042304FB0511AA
:101A6000FEF7F6FB139010A8B84721B0F0BD04A80C
:101A70000FF06CF8F7E700BF8C3B0108EF37010867
:101A800000B589B0CDE906010E4806A909F00AFCA7
:101A900005AA0D484FF400610FF03BF8024670B9FB
:101AA000059B6421C3F500604143C90A02914FF4CC
:101AB0000061CDE90001054905480BF0C0FB09B004
:101AC0005DF804FBF5190008804E00201738010866
:101AD0001B38010810B5044604480BF0B0FB214642
:101AE0000348BDE81040FFF7CBBF00BF51380108E5
:101AF0009119000838B5054C00250020FFF7EAFFD2
:101B0000204629460FF004F9F7E700BFC027090077
:101B10002DE9F047DFF85880044607464FF00109E9
:101B200014B93846BDE8F08794FAA4F5B5FA85F5FE
:101B300009FA05F32E0108EB05156FEA030A24EAFA
:101B400003042B7B002BEBD058F806301B694BB9F4
:101B50004644042273682846196807EA0A070BF00E
:101B6000C3FEDDE7284698470028D9D1F0E700BF3B
:101B7000C81E010830B51049104889B000220FF086
:101B800068F90F4D0F4900220023CDE906230024F8
:101B90000E23CDE90334CDE901440B4B00944FF4FF
:101BA0004072284608F0A0FE0849284608F0C0FD0B
:101BB000204609B030BD00BFD11B0008A80C002092
:101BC00088070020803D0020191F00087238010896
:101BD000014808F0E1BB00BF400300202DE9F047B9
:101BE000804620480F460BF04FFE0646002832D0B4
:101BF00000252846BDE8F087237B83B12368DB6896
:101C00000BB120469847636883F8069023681B69E8
:101C1000CBB963680422196820460BF065FE0136D3
:101C200010345445E8D3B8F1000FE2D0002DDFD0D6
:101C30002846FFF76DFF0546002FF7D000216420EE
:101C40000FF066F8F2E7204698470028E1D009FA3D
:101C500006F31D43E3E7044CDFF810A005464FF000
:101C60000109DEE730170020C81E0108D81E010850
:101C700008B5034608462BB1044A136000F074FD12
:101C8000002008BD6FF01500FBE700BF70010020C9
:101C900010B5044C237813B9034808F07DFB0123E9
:101CA000237010BD733100204003002010B504469E
:101CB0000B480BF0E9FD5CB1BFF35B8F094B53E8B8
:101CC000001F013943E80012002AF8D1BFF35B8FEF
:101CD00005480FF0CAF80548BDE8104008F05CBBA5
:101CE000281700202C170020A80C002040030020FB
:101CF0000020064BBFF35B8F014653E8000F43E81B
:101D00000012002AF9D1BFF35B8F7047281700201B
:101D100070B5FFF7EDFF084C084E0546B44200D3FE
:101D200070BD63685B792BB123685B6813B129468A
:101D3000204698471034F1E7C81E0108D81E010854
:101D400010B5044C044920460BF088FB034B1C6083
:101D500010BD00BF84020020E423010820170020EA
:101D60000E4A0F48002310B513700E4A13600E4A36
:101D70004FF47A711360FFF77BFFFFF7E1FF00F08C
:101D800079F90A4B0A4918468B4200D310BD1A1A3A
:101D90005C681211013222711033F5E774310020B2
:101DA000A3D80008281700202C170020C81E0108FF
:101DB000D81E010801460022014800230BF06FBB2A
:101DC0008402002001480BF008BC00BF8402002000
:101DD000024B014618680BF054BC00BF20170020CE
:101DE00001480BF089BC00BF840200202DE9F041BE
:101DF000324B187800285FD0FFF7E4FF0446002834
:101E000056D12F4B2F4C1B68002B12DD0FF01FF803
:101E10000A220023FEF71CFAD4E90032C01A40F26D
:101E2000E93361EB0201984271F1000101D3FFF740
:101E30006FFFD4E9003213F57A7342F10002C4E96E
:101E40000032BDE8F041FFF7CBBF6B685B793BB177
:101E500021784B0717D52B6821461B6828469847E1
:101E600010354545F1D32046FFF7B2FFBFF35B8F36
:101E7000154B53E8001F013943E80012002AF8D13E
:101E8000BFF35B8FBDE720462688C1F3C20700F091
:101E9000A7FAC6F382160246002EDCD00028DADB51
:101EA00001233946284600F095F9B042D8D3D2E74D
:101EB000064DDFF81C80D4E7BDE8F08173310020C7
:101EC00028170020A00C00202C170020C81E010895
:101ED000D81E010870B50D4D297861B90120FFF7B2
:101EE0007DFE0B4C0B4EB44206D3FFF77FFF00285C
:101EF000FBD101232B7070BD63685B791BB1236834
:101F000020469B6898471034EDE700BF74310020ED
:101F1000C81E0108D81E010800212DE9F047084617
:101F2000FFF75CFE044658B34FF4FA784FF000090F
:101F30000FF080FB1B4B1C4A1B58136033B11B4B2B
:101F40001B68092B02DD1A4808F026FA194FDFF842
:101F500060A0002544B12046FFF7DAFD044618B919
:101F60004FF0FF384FF0FF39FFF740FF064628B922
:101F7000B5B942464B46504608F048FA3546E9E7BF
:101F80004FF0FF384FF0FF39D2E72B689B691BB148
:101F900000221146284698471035BD42F5D3E8E7A0
:101FA000054DFAE708000000241700202C17002038
:101FB00040030020D81E0108C81E010813B51848A8
:101FC0000BF062FC174B1B7873B1EFF311841023F5
:101FD00083F31288BFF36F8FFFF708FF84F3118834
:101FE000BFF36F8F02B010BD0F4B1B68002BF9D0F1
:101FF00050B900220023CDE900230C4842F21072B0
:10200000002309F055FBEDE70928EBD107480EF056
:102010002CFF074802B0BDE8104008F0BDB900BF72
:102020002C1700207431002024170020A80C002059
:102030004003002010B5064B1B6804469847214614
:10204000A06004480BF0AAFABDE81040FFF7B6BF45
:102050007001002084020020044A054B9B1AB1EB5A
:10206000D30F34BF52F8310000207047281E0108FA
:10207000C81E01080B480C4B30B51B1A0B4CDB0873
:1020800000210430994200D130BD10F8312025687C
:1020900002F0070225F007052A4344F8042B01311A
:1020A000F0E700BF281E0108C81E0108C802002072
:1020B000F8B50B4F0B4DED1B0646ED080024AC4266
:1020C00003D14FF0FF342046F8BD57F8340020B15B
:1020D0003146FEF7D7F80028F5D00134EFE700BF0E
:1020E000281E0108C81E010800282DE9F04788466F
:1020F00015461F461DDADFF8A890254E4FF0000A5E
:10210000A6EB090636095446B24509F1100902D179
:102110002046BDE8F08759F80C0C3B4600792A466A
:102120004146FFF7E1FF844238BF04460AF1010A45
:10213000EAE7184B184AD21AB5EBD20F26D203EBB6
:10214000C5031C79BC4228BF3C46144EC0B200EB0C
:10215000400056F825300722824023EA020304F0AB
:102160000702824013430021032223FA02F000F009
:102170000700814202F1030238BF01461E2AF4D152
:1021800023F007030B4346F82530C1E70024DCE7C2
:10219000D81E0108281E0108C81E0108C802002018
:1021A000C81E0108F8B5094D094BED1A06460F4641
:1021B000ED080024AC4200D3F8BD002122B23B461A
:1021C000304601340BF088FBA4B2F3E7C81E0108C7
:1021D000281E010870B14168097973B1002A17DB24
:1021E000CBB20C4951F8220003EB4303D84000F076
:1021F000070070474FF0FF31EFE707490748401AE3
:10220000B2EBD00F3ABF01EBC20108791846704714
:1022100004207047C8020020281E0108C81E0108BB
:102220002DE9F04F8FB004AFC1F34A28B8600D46D6
:1022300091467B600C0DB8F1000F67D0002607F1C6
:1022400014034FF0040B4FF00A0AC7F80C80C7E9DB
:1022500007667E620193CDF808B0CDF800A007F1C3
:102260001C03F96832464846FFF78CF8B0F5006F5A
:10227000034620D32A48036813F0060F17D06C4694
:102280008AB0D9F8041004AB264DC3E9055140F2D9
:10229000FF71D9611A464FF400711984224B42F83C
:1022A000103F4FF412513346FFF7BAFFA5462C37C3
:1022B000BD46BDE8F08FC0F30A0804F117001844CA
:1022C00020F0070080083B60FFF774FD68F353259A
:1022D000044690B13B68154AC7E9083600F1100181
:1022E00007F11403F961CDE900A3CDF808B0F9684E
:1022F00007F11C034846FFF745F868F353257B6850
:10230000B9682A4620460BF023FBD0E704F11700FA
:1023100020F007008008FFF74DFD0446EDE700BF01
:10232000DC020020873801080400000123D90008DE
:102330002DE9F04F87B0DDE91279DDE9105A044646
:10234000039193469846DFB1CDF800903B46524644
:1023500010210020CDF81490FEF742FEB0F5006F7A
:1023600006460ED31C48036813F0060F30D01B4AF4
:1023700040F2FF73022107B0BDE8F04F0BF041BB04
:102380003E4605F11700304420F0070004F0070432
:102390008008FFF70FFD0BF0070BE40044EA8B14F5
:1023A00044EA462444EA0554054640B13FB1CDF81D
:1023B00000903B46524631461030FEF711FE03991D
:1023C00043462246284607B0BDE8F04F0BF0C0BA9E
:1023D00007B0BDE8F08F00BFDC020020C63801085E
:1023E000406820B1034BC01A40F38F0070474FF094
:1023F000FF307047C80200200EB403B503AB01469E
:1024000053F8042B0448019304F01EFD02B05DF85C
:1024100004EB03B0704700BF65DA0008CA0605D4B4
:102420008B064CBF02490349FFF7E6BF704700BF68
:102430006F410108FE3801082DE9F04F8BB09B4633
:10244000169B06939DF854A0179B0593189B199E05
:10245000049304460D469046BAF1000F00F09E80AA
:1024600006F00103089306F00803079306F480734F
:1024700009930BF02FFA06F00209024600283BD020
:102480008F492046FFF7B8FF0746B9F1000F08D083
:1024900016F0440F32D18B492A462046FFF7ACFF95
:1024A0000744089B53B1884B884953F82A20884B2E
:1024B0002046002A08BF1A46FFF79EFF099B002B03
:1024C00048D0079B002B62D1B8F1000F64D081493E
:1024D00042462046FFF790FF0546069B3D44002BF1
:1024E0006BD1049B002B71D1F30700F1E2803146E0
:1024F0002046FFF793FFD6E00746C6E7764B1868FD
:102500000028CDD0754B4FF47A791B68B5FBF3F5F5
:102510004FF46163B5FBF0F100FB115509FB05F5C4
:102520004FF03C0CB1FBF3F203FB1211B5FBF0FED4
:10253000B1FBFCF300FB1E550CFB131109FB05F569
:102540000091B5FBF0F56649CDE901E52046FFF7BE
:1025500053FFA5E7079BEBB1624B634953F82A2071
:102560002046FFF749FF0546B8F1000F05D059494D
:1025700042462046FFF740FF0544BBF1000FACD0B8
:102580005A495A462046FFF737FF0544A5E74FF062
:10259000000BE1E7079DE7E745469EE7BBF1010F2A
:1025A000069B06D1002B64D1049B002B7BD0002519
:1025B0000CE0002BF8D04E485CE04E48069B4E499C
:1025C00022460AF0E4FD049B002B68D0DFF8388136
:1025D000DFF83891049F3146102F204628BF10277E
:1025E000FFF71CFF4FF0000B5D4545DC059B49469E
:1025F0001A782046FFF700FF4FF0010B1BF0070F82
:1026000003D141462046FFF7F7FE5F453BD9059BC6
:10261000494613F80B202046FFF7EEFE0BF1010BA5
:10262000BBF1100FEAD1354920464FF0000BFFF700
:10263000E3FE5A46059B9A5CA2F120015F2928BF60
:102640002E222F492046FFF7D7FE0BF1010BBBF1DD
:10265000100F1DD01BF0070F03D141462046FFF796
:10266000CBFE5F455A46E5D841462046FFF7C4FEFB
:10267000EBE720485546A1E741462046FFF7BCFE60
:102680000BF1010BB0E71F492046FFF7B5FEC5E788
:10269000059B3B440593049BDB1B04939AD1BAF141
:1026A000000F7FF421AF20460BB0BDE8F04F0BF0D8
:1026B000CCB9074A05492046FFF79EFE17E700BF41
:1026C000D249010806390108F82301089843010896
:1026D000013901082B390108381700203417002070
:1026E0000F3901080C2401082F3901083539010878
:1026F0009BDA000865DA0008496E000844390108D1
:10270000B649010840390108423901083A3901083F
:1027100073B542F20F738B4228BF0B4605680F4A10
:1027200004460521684609F075FA63680C495B6840
:1027300006460B2228460BF07AF963683246694652
:1027400028465B680BF073F9636806495B681B22D7
:1027500028460BF06CF902B070BD00BFC9560108E5
:102760006239010846390108074A002101239042D5
:1027700006D8064A01B901231360054B186070475B
:1027800040085B000121F2E740420F0034170020AF
:1027900038170020014B03600020704720240108F7
:1027A000F0B40D4B0D4E5F6A0D4BB34203D36FF087
:1027B0008500F0BC70475C68BC420AD31D6945B116
:1027C00094F802C08488E4B2A44502D12B46F0BC40
:1027D00018472433E9E700BF3C1700203C040020E1
:1027E000180400202DE9F047144CDFF85480DFF87E
:1027F000549005460E461746444503D36FF08500B6
:10280000BDE8F0876268D9F824309A4213D3A369EF
:102810008BB1A9889078C9B2884205D13A46314631
:102820002846BDE8F04718475279012A03D13A46B5
:102830003146284698472434DEE700BF18040020BC
:102840003C0400203C1700202DE9F0410B4CDFF840
:10285000308005460E461746444502D36FF085008A
:1028600009E063690BB92434F6E73A463146284655
:1028700098470028F7D1BDE8F08100BF1804002078
:102880003C040020024B00221A605A60704700BFCF
:10289000F717002070B50B4B0B4CA34201D300205F
:1028A00070BD196A1E7F00220439D5B2AE4201D82C
:1028B0002433F2E7013211F832508542F5D101207C
:1028C000EEE700BF180400203C04002073B58488A4
:1028D000E4B263060D468DF8074007D02046FFF7A7
:1028E000D9FFD8B1174B93F8BA00B8B11648154EB6
:1028F000036803F007039DB1022B04D9134A234652
:1029000003210BF00DF99DF8070004F079FEF3693F
:102910001BB10DF1070108209847012002B070BDDE
:10292000022B04D90A4A234603210BF0F9F89DF83B
:10293000070004F08BFEF369002BEED00DF10701C8
:102940000920E9E73C170020100300208E39010818
:10295000A139010808B5034604480268520703D0AC
:10296000034A01210BF0DCF8002008BD1003002011
:10297000B639010838B5054604F0C6FE10F1780FE7
:10298000044615D11148036813F0060F04D0104A0D
:102990002B4602210BF0C4F828460BF0C3F80D4A71
:1029A000D2F8C43023EA0003C2F8C43000240AE09D
:1029B0000028F1D0054803685B0704D0064A2B467F
:1029C00001210BF0ADF8204638BD00BF10030020F8
:1029D000D13901083C170020F239010808B509482F
:1029E0000378C3F341130A3350F823303BB100F1AD
:1029F000080200F110019847C043C00F08BD1846F7
:102A0000FCE700BF3C17002004282DE9F74FDFF852
:102A1000A49004460F4615D001282FD1DFF89080EE
:102A200098F8B93053B300F0F3FE204D4D4522D253
:102A30002A6A4FF0000A2B7F5FFA8AF6B34204D865
:102A40002435F3E7FFF71EFFE8E702EBC606019225
:102A5000307904F059FE834630790BF063F8D8F8EA
:102A6000C430019A23EA0003BBF1000FC8F8C43058
:102A70000AF1010ADFDA002388F8B9300B4D4D4521
:102A800008D30B4B1B6A6BB13946204603B0BDE837
:102A9000F04F1847EB681BB13A4621462846984745
:102AA0002435ECE703B0BDE8F08F00BF1804002028
:102AB0003C1700203C04002073B5044680788DF854
:102AC000000023796279314D43EA0223ADF80230E8
:102AD000E37803F003038DF804300BF023F8D5F806
:102AE000C430184206460CD0A478204600F072FE8E
:102AF0002046FFF73FFF0EF004F810B996200EF0C5
:102B00002FF968460CF023FD10F1780F25D12048ED
:102B1000036813F0060F05D09DF800301D4A02210E
:102B20000AF0FEFF9DF8000004F0BAFD10F1780FE6
:102B300022D11748036813F0060F05D09DF8003026
:102B4000154A02210AF0ECFFD5F8C43001203343C6
:102B500085F8B900C5F8C4300CE00028E2D00C4874
:102B600003685A0705D09DF800300C4A01210AF08D
:102B7000D7FF002002B070BD0028E5D004480368EC
:102B80005B07F6D09DF80030054AEFE73C170020C0
:102B900010030020143A01085B3A0108373A010893
:102BA0007B3A01082DE9F047A84EB36904460F4669
:102BB0001546FBB9237803F01F03012B00F09E801C
:102BC000022B00F0068133BB94F900002A6861787B
:102BD000002834DA062912D008292BD0D9B90123CC
:102BE0001370517096F8C3305B0043F0010313700B
:102BF000022328E198470028DCD100200DE06288FC
:102C0000100A011F0129844605D9072803D8716AD3
:102C1000D2B20C781CB96FF01500BDE8F0874E7881
:102C2000664503D19A4200F0098101332144F0E75F
:102C30000B7808E196F8BA301370012303E10139EB
:102C40000829E8D801A353F821F000BFE72C0008B9
:102C5000172C0008F52C0008172C0008712C000810
:102C6000172C0008172C0008172C00087F2C0008D0
:102C70006088C0B204F038FC0028BED0CBE763887F
:102C8000756A63BBFFF7FEFD638886F8BA30F369A7
:102C9000002BB2D06E4903209847AEE76B78042B27
:102CA00010D0052B11D0022B04D16F796388BB4261
:102CB00008BF01202B781D442B78002BEED1002873
:102CC000A9D0DFE795F80380F4E76388BB42F1D130
:102CD000B8F1000FEED12846FFF7EEFEEAE7FF2736
:102CE0000020B846E8E76388012B94D1002386F8DA
:102CF000C33082E76388012B8DD1F8E796F8BA30AC
:102D0000D5F800C0002B86D0A388756A5FFA83FED1
:102D10002A46107800283FF47EAF5178022904D16A
:102D200092F80480F04500F295800244F1E78CF8B7
:102D300000208CF8012039605FE7154496E00B2AEB
:102D40007FF469AF00274FF0FF08C146BA4606E09E
:102D50006B78042B0FD0052B21D02B781D442B78BA
:102D6000002BF5D1F36913B1514607209847002F86
:102D70007FF443AF4FE795F80280A38895F803905E
:102D80009845EAD163889945E7D1B8F1070F1DD876
:102D900006EB0803AA4683F8BB900127DDE7A3886A
:102DA0004345DAD16388DBB24B450AD0AF78384669
:102DB00000F010FD3846FFF7DDFDB0FA80F77F091F
:102DC000CBE72846FFF778FE0746C6E7AA46002766
:102DD000C3E794F900206378002A19DA002B7FF406
:102DE0001AAFA3882D68DCB25B060AD02046FFF735
:102DF00051FD00283FF40FAF96F8BA30002B3FF496
:102E00000AAF294620460CF0B7FB00236B70EFE6B3
:102E1000012B08D0032B7FF4FEAE6388002B7FF4D8
:102E2000FAAE012103E0618800297FF4F4AE204668
:102E3000FFF74CFD00287FF4E0AEECE602282960A5
:102E40007FF4F6AE4B883B60D7E600BF3C1700200E
:102E5000F617002094F9000062780028BFF66FAFE3
:102E6000002A3FF464AF0A2A7FF4D5AE2A78002AFC
:102E70003FF4D1AE697804297FF45FAFA9788B4223
:102E80007FF45BAF072B96BF9B19002393F8BB30F1
:102E90008CF80030D1E600BF2DE9F84FDFF848A0EC
:102EA000DFF848B005460F469046994604264B4643
:102EB00042463946284604F049FC10F10B0F0446FF
:102EC0000ED1DAF8003013F0060F05D02B465A4623
:102ED000022150460AF024FE07F0C4FF013EE6D16D
:102EE0002046BDE8F88F00BF100300209C3A01087F
:102EF00013B5164C237DF3B9E268A168019201ABCA
:102F00008020FFF7C9FF019AA3681344A360E36818
:102F10009B1AE3606BB962B12369E2889A4208DDCB
:102F200094F8C82093FBF2F102FB11330BB9012393
:102F3000237502B010BD00231A4619468020237560
:102F400002B0BDE8104004F001BC00BF3C170020F7
:102F500030B585B0002302460D460193002860D1AC
:102F600000293DD108220B460DEB02010CF011FBAC
:102F7000002804DA802004F043FB05B030BD2E4C5D
:102F8000029A2260039A626004F13802A2609DF9FD
:102F90000820BDF80E302575002AC4E9035512DB60
:102FA000802B0CD9254803685B0703D0244A0121F4
:102FB0000AF01EFD802004F023FB0020DBE713B1A4
:102FC000C4E90333D9E7FFF709FD0028D2D0E2882E
:102FD00023699A42D4BFE260E360FFF789FFCCE740
:102FE000154CD4E90215002D01AB04DC0CF0D1FA2C
:102FF0000028C2DABEE72A460CF0CBFA0028D9DB5B
:10300000019AA3681344A360E3689B1AE360002B52
:10301000B3D104F13803A360FFF7E0FC0028DCD152
:10302000A8E78028A9D1044BDA68002AD5D11B7DF6
:10303000002BD2D1A1E700BF3C17002010030020D5
:10304000C33A0108054B064A9A62064ADA62064A02
:103050001A63064A58629A61002070473C170020A4
:10306000A52B0008A127000849280008E52700082B
:103070002DE9F3410446514D51484FF0FF334FF0D5
:10308000FF3207F0C1F895F8B8308BB14D480368AE
:1030900013F0060F03D04C4A02210AF0A9FC6FF08E
:1030A0007704474807F028F9204602B0BDE8F081D0
:1030B0006B6A83B900F0DAF8FFF7C4FF6B6A53B9A3
:1030C000404803685A0703D0404A01210AF090FCA7
:1030D0004FF0FF34E5E73E482C62E8616E6A04F089
:1030E000FDF904F009F9041EDBDB00F0B3FB041E5C
:1030F000D7DB7378012B01D1F37953B931480368D9
:103100005B0703D0334A01210AF072FC6FF015040B
:10311000C7E70026684685F8C830ADF802308DF85C
:1031200004608DF800600CF012FA041EB9DB8027F1
:1031300068468DF800700CF00AFA041EB1DB2649CF
:1031400030460CF0F9F9041EABDB234938460CF08D
:10315000F3F9041EA5DB214CDFF8848044451AD323
:10316000002004F09DFA041E9BDBD5F8C4308020BB
:1031700043F00103C5F8C43004F092FA041E90DB5A
:10318000D5F8C43043F48033C5F8C430012385F842
:10319000B830002485E7276A0026227FF3B29A42DE
:1031A00001D82434DAE707EBC30257F8331010795B
:1031B0000CF0C2F901360028EFD089E73C17002057
:1031C0002C03002010030020DC3A0108FF3A01081C
:1031D000092A0008243B0108512F00081804002088
:1031E0003C04002030B51F4B8BB005AA03F110053D
:1031F00018685968144603C40833AB422246F7D115
:103200001B7823701022002101A80DF0E8FF122284
:10321000002115480DF0E3FF102101A805F03AFB4D
:1032200000281BDD0828B8BF0820093801AB0E496B
:103230001A18002012F8013F0AAC04EB131403F033
:103240000F0328336B44013014F8144C13F8143C6A
:103250000C7008284B7001F10201EBD102480BB051
:1032600030BD00BF5E3B0108763100202DE9F04FF4
:10327000954B87B093F800A000AFBAF1000F04D0CF
:1032800092481C37BD46BDE8F08F904C00264FF0A9
:103290000119FE603546B04623783BB98C4B0234A9
:1032A0009C42F3D1884A01231370E9E76378052B28
:1032B0001DD8DFE813F0BC0006000701BC001F00AA
:1032C0005600402387F810A07B8287F814A007F1EE
:1032D000100004F073F940B108237B8207F110005D
:1032E00004F06CF908B1A7F812A07B8AE371237887
:1032F0001C44D1E7E378002BF9D1A3783BB3FB68FA
:103300000133DBB2FB60F2E76A68944222D02435D5
:103310009D42F9D36F4803685D0716D06D4688B0AB
:103320006A466D4BC2E90534032342F8103F00237F
:103330004FF4C251FEF774FFAD46664803685B0761
:1033400003D0664A01210AF053FB002099E7644D3F
:10335000644BDDE7AB68002BD1D0F9682046984775
:10336000CDE7002D61D15B4803685C07EDD05E4A74
:1033700001210AF03DFBE0E72B6AA07803EBC201D4
:103380000B79984247D14FF0010BE07800F0030031
:103390003875207994F805C040EA0C20788294F9B9
:1033A000020000285FFA8BF328DA0BF110004FF0CF
:1033B000010C0CFA00F010EA090F27D143F080004D
:1033C000387407F11000C7E90031BA6004F0F6F86C
:1033D000D7E901123B68C8B93A7CA27012F0800F9D
:1033E00018BF10330A7118BFDBB24FF0010214BFCF
:1033F0009A4002FA0BF249EA020978E7012000FA42
:103400000BF010EA090F01D11846D9E70BF1010BB7
:10341000BBF1100FB9D101322B7F9A42ACD32D48AA
:103420000368590791D0314AA2E70022F4E7032E3E
:1034300029D1FFF7D7FE8346C8B1FCF735FF034615
:10344000A8B110280BD0234A126812F0060F06D03C
:10345000B860274A1F4802210AF0CAFABB68102B3D
:10346000A8BF10231A465946A01C0DF090FE2378E1
:103470006FF00201E218091B04EB5303D1420ED591
:103480000136F6B233E7002EF1D1B8F1000F0DD1BD
:10349000104803685A073FF458AF164A68E702F825
:1034A00001AC13F8010902F8020DE7E7A4EB0803E9
:1034B00088F80230C3F3072388F80330FB6888F8E4
:1034C0000430DDE7A04612E77531002058030020E4
:1034D000150400200C0300206F3B0108553C010837
:1034E000180400203C0400208F3B0108D03B010859
:1034F000ED3B0108383C010810B5094B00211A4684
:103500001C78844205D15C681CB1482303FB012070
:1035100010BD0131042903F14803F1D10020F7E780
:10352000081800202DE9FF4150F8303C10F8346CA9
:10353000103304460AD1036950F8282C980740D567
:10354000D2B9590715D5002344F8303C54F8303C23
:1035500010330BD054E9097554F81C8C0DF0D1FAD6
:1035600000285AD0334821460DF0AFFA04B0BDE828
:10357000F08143F00403236103AB54F82C1C304664
:10358000FFF78AFC034658B12B480268520704D063
:103590002A4A009601210AF03EFA6FF01503D3E79C
:1035A000039A54F82C3C134444F82C3C54F8283C1F
:1035B0009B1A44F8283C54F8243C134444F8243C17
:1035C000C4E703AB54F82C1C304604F033F903462F
:1035D0000028D9D1039D54F82C3C2B4444F82C3CB2
:1035E00054F8283C5B1B44F8283C54F8243C2B44FA
:1035F00044F8243C002DA6D030460BF0D8FFB5FB94
:10360000F0F303FB1055002D9DD154F8283C002BFE
:1036100099D0304604F060F998E744F8200CA4F102
:10362000180006F0B9FE002DA0D0424639463046BB
:10363000A8479BE7E00C002014030020833C01080E
:103640004B1E012B73B506460D4617D8FFF754FFE6
:103650000446A8B9012D11D101AB01220DF10301DE
:10366000304604F0E7F8019B002BF5D10E480368C3
:103670005B0703D00D4A01210AF0BAF902B070BD10
:103680000DF03FFA04F1340108B1012D05D10846CF
:1036900002B0BDE87040FFF745BF054802B0BDE885
:1036A00070400DF012BA00BF14030020A03C0108C6
:1036B000E00C00202DE9F74F064601911746984689
:1036C0000AF071FA0446002875D1EFF311830093D4
:1036D000102383F31288BFF36F8FDFF8F09000227E
:1036E0000023484606F092FEB8B9DFF8E4A048226D
:1036F00062430AEB020BDBF8045015F1100F24D1E2
:103700002E4803685B0704D02D4A334601210AF096
:1037100078F9484606F040FE0EE00134042C09F129
:103720004809DCD1254803685A0703D0254A0121FE
:103730000AF05EF96FF00B05009B83F31188BFF36D
:103740006F8F284603B0BDE8F08F0AF802600C9A2C
:10375000019BCBF814200D9ACBF81000CBF8182061
:1037600030466FF00F02CBE90237CBF84480CBF83C
:1037700004200BF01CFF68B130460BF018FFB7FBBC
:10378000F0F202FB10772FB1DBF8442042F0040284
:10379000CBF8442018F0020F08D0482303FB04A103
:1037A000094834310DF091F90025C5E7304604F0A1
:1037B00093F80546C0E76FF00F05C2E71403002039
:1037C000D53C0108BA3C0108E00C00202418002078
:1037D0000818002010B5EFF31184102383F312882A
:1037E000BFF36F8FFFF788FE50B14368103307D1E6
:1037F0006FF08B03436000F1340104480DF065F96C
:1038000084F31188BFF36F8F10BD00BFE00C002060
:10381000F8B50E4C04251027EFF3118687F31288B4
:10382000BFF36F8F6368103307D16FF08B030848C5
:10383000636004F134010DF048F986F31188BFF399
:103840006F8F013D04F14804E6D1F8BD081800204F
:10385000E00C002070B50A4C0A4E00253146204687
:103860000DF017F90122A4F11800114601350DF0F1
:10387000CFF8042D04F14804F0D1002070BD00BF42
:103880003C180020253500080169012381F84B30E0
:103890000B6833B191F849301BB1024808310DF083
:1038A00014B97047E00C00200169012381F84A3007
:1038B0000B6833B191F848301BB1024808310DF064
:1038C00004B97047E00C002070B50569EFF311866C
:1038D000102383F31288BFF36F8FD5F8900009F09F
:1038E00073FF044686F31188BFF36F8F30B104482D
:1038F0000022002305F1180106F0F0FE204670BDFD
:10390000E00C002070B5012382F8483013680D46A2
:1039100014463BB192F84A3023B10E4802F1080137
:103920000DF0D3F8D4F89030DA885B899A4205D14B
:103930007DB904F118014FF47A7204E004F1180122
:10394000002DF8D00022BDE870400248002306F0A8
:10395000C5BE70BDE00C002070B50E4681880446DF
:10396000C9B2154815460AF0FAF810B394F90020C8
:103970006378002A16DB202B04D0222B0ED06FF0A8
:1039800085000AE02B681A6840F8102C9A8820F805
:103990000C2C9B7900F80A3C002070BD638800F86D
:1039A000093CF9E7212BEAD110380723286033605E
:1039B000F2E76FF01200F0E72819002008B5014681
:1039C00003480AF0DAF810B1012300F8073C08BDFB
:1039D000281900200D4A03460021A0F8481010685D
:1039E000C3F8940090889279A3F8980083F89A20FD
:1039F00083F89C1083F89B10A3F89E1083F8A01006
:103A0000402203F14C000DF0EABB00BF702001081A
:103A100010B504690023C4F8A8300C4BC4F8A40006
:103A2000596804F1A80269B9C3E9002204F1080049
:103A300007490DF02EF804F1180006490DF055F86D
:103A4000002010BD0A605A60F0E700BF281900206E
:103A5000D1DB00080D3B000830B54FF4003342685D
:103A600005690D4C85B042F2A100CDE901030023A8
:103A700085F89D30106AADF80C1000790A2201A972
:103A8000FFF70AFA95F89D3023B901200CF069FF81
:103A9000013CF7D105B030BDA186010073B50469C2
:103AA0008DF80710002384F848301025EFF31186B5
:103AB00085F31288BFF36F8F0122D4F890000DF1C7
:103AC000070109F081FE86F31188BFF36F8F01288B
:103AD0000AD00DF016F810B994F8A1306BB9094B63
:103AE0001A780AB901221A700A22002304F1180177
:103AF000054806F0F3FD02B070BD00210A200DF06C
:103B000007F9D3E788310020E00C0020F0B5D0F8A9
:103B10008C305B681B6A1F7D85B0054638460AF00D
:103B200042F8064650BB95F886303BB3A86F014675
:103B3000C38831F80A2F9B1A9BB2B3F5806F28BF58
:103B40004FF4806303AA09F0F0FD0446B0B1830688
:103B5000A5F1180308BF00F1FF3485F83060019328
:103B6000074B03990093224602233846FFF7A2FD34
:103B7000A86F224600F10A0109F00DFE05B0F0BD64
:103B80000539000837B514460A1E054621DDD4F86C
:103B90008C0004F14C0109F017FE012384F8493030
:103BA00023683BB194F84B3023B1114804F108016C
:103BB0000CF08BFFD4F88C209388918912695B1AE2
:103BC0009BB2D31A3F2B04D8012384F8A03003B052
:103BD00030BD94F89E30002BF9D0064B0093019431
:103BE0000123402204F14C012846FFF763FDEEE774
:103BF000E00C0020853B0008F7B50D4601461D4846
:103C000009F0A1FF044610B30646691E56F8A43910
:103C10005F6805291BD8DFE801F01C1A031C222667
:103C200010F8061C99B9012300F8063C3B6A32469D
:103C3000187BFFF7A7FF14F85C2C42B93B6A187D8C
:103C40000D4B0093019602231146FFF733FD03B09D
:103C5000F0BD304603B0BDE8F040FFF7BBBE012326
:103C600004F8053CF3E710F8053C002BEFD00023E7
:103C7000F6E700BF281900200539000837B5094DBF
:103C80000949002400944FF0FF334FF48062284626
:103C900006F0E4FC0549284606F04AFD204603B03C
:103CA00030BD00BFE00C002000410020283D01088D
:103CB00010B5044605F08CF90349024620460AF087
:103CC0005BFA002010BD00BF483D010837B5134620
:103CD00000220192054601AA58680A2101F0ECFC75
:103CE000019C4CB920EAE0700A2180FB01010DF033
:103CF0000FF8204603B030BD2246034928460AF09B
:103D000057FA019CF5E700BF743D010808B5034A66
:103D100003490AF031FA002008BD00BF643E0108E3
:103D20006B3E0108F7B517460023054601AA0A2194
:103D3000B868019301F0C0FC1749C6B228460AF0E2
:103D400029FA019C44B12246144928460AF030FA67
:103D5000019C204603B0F0BD042E09D9104932461B
:103D600028460AF025FA28460AF05EFA0124F0E710
:103D70007868FEF79DF9021E07DA7A680949284635
:103D80000AF016FA6FF01504E3E7334612B2214643
:103D9000204609F0A1FDDCE7963E0108FC3E010843
:103DA000233F01083A3F010807B500230090694608
:103DB00004488DF8043007F05BFA9DF8040003B066
:103DC0005DF804FB2FDE000810B5044605F0E2F8AC
:103DD0000749024620460AF0CFF9204605490AF075
:103DE000CBF90548214607F05DFA002010BD00BF61
:103DF000993F0108B83F0108FD3D00082DE9F04159
:103E0000A4B005460C46D0F8BC600CF080FE03461A
:103E10000DF010FC404A41491058414A002B18BF90
:103E20001A4600923F4A2B46854218BF0A463E4931
:103E300020460AF0A1F9D5E90A23CDE900233B4940
:103E400095F90E302A7B20460AF096F9202204A923
:103E5000284606F07DFC3649D5F8843002462046D7
:103E60000AF08AF90CA928460CF066FE88BB18A84F
:103E70000CF06CFE80BBDDF830800D9F6421A8FB48
:103E8000010CDDE9182301FB07C1FCF7E1F9294921
:103E90000346424620460AF06FF9109A264920460A
:103EA0000AF06AF9129A254920460AF065F9149A2F
:103EB000234920460AF060F918A928460CF035FE7F
:103EC0000246D0B11F4920460AF056F924B0BDE899
:103ED000F08118A80CF03AFE20461B490AF04CF974
:103EE00020461A490AF048F9204619490AF044F9CF
:103EF000184920460AF040F9DEE7189B6422F11ABF
:103F00004A430091B2FBF6F21349CDE90162204623
:103F100032460AF031F9D9E70800000042390108B9
:103F2000C23F0108F0530108C53F0108D13F010815
:103F3000FD3F0108144001083940010858400108BC
:103F4000744001080D41010893400108B640010882
:103F5000D4400108EF4001083A410108F0B50025BE
:103F600091B00446294608AF1C2209A80DF037F984
:103F7000134E1A22202138460DF031F921461148FE
:103F800007F090F907AA4FF4006130460CF0C1FD2C
:103F9000079A0097C2F5006164234B43DB0A05933F
:103FA0004FF40063CDE90313CDE901322046064901
:103FB0002B46A6F180020AF0DFF8284611B0F0BDCA
:103FC000804E0020CD3F00088B41010870B50446AB
:103FD000D0F8BC6088B00D4607A90CF0A6FD0246DB
:103FE00028B10F4928460AF0C7F808B070BD20462E
:103FF0000CF08DFD079B0096F11ACDE90131094BBC
:1040000064224A43002818BF0346B2FBF6F2064971
:10401000CDE90362284622460AF0AEF8E5E700BF84
:104020000D410108C23F0108D441010838B51346CB
:10403000054610225868002107F08CFE0446FFF761
:10404000B3FE38B90E49224628460AF0B1F86FF09F
:10405000150038BD0DF0EEFA0A4B1B589C4204D1F6
:10406000094928460AF0A4F8F1E7204606F05AFD6F
:104070002846064922460AF07FF80020E9E700BFFB
:104080003842010808000000534201087B42010841
:1040900038B51346054610225868002107F05AFE2D
:1040A0000446FFF781FE38B90E49224628460AF039
:1040B0007FF86FF0150038BD0DF0BCFA0A4B1B58A5
:1040C0009C4204D1094928460AF072F8F1E72046DB
:1040D00006F046FE2846064922460AF04DF8002022
:1040E000E9E700BF3842010808000000BA420108B1
:1040F000E042010838B513460546102258680021F1
:1041000007F028FE0446FFF74FFE38B90E49224655
:1041100028460AF04DF86FF0150038BD0DF08AFA08
:104120000A4B1B589C4204D1094928460AF040F822
:10413000F1E7204602F03EFB2846064922460AF0F7
:104140001BF80020E9E700BF384201080800000022
:104150001B430108404301082DE9F04F87B0044696
:10416000684605F069FE009F284ADFF8BCA0DFF82A
:10417000BCB0242303FB00770821204609F0EFFFA1
:10418000009DBD4203D3002007B0BDE8F08F2B682F
:104190000BB11A7832B92B461D4A142101A807F039
:1041A00039FD01AB52460821204609F0D8FF2846C8
:1041B0000CF0E6FB174B184A002808BF5B460821A5
:1041C000204609F0CCFF2B6AA3B11E6896B1336874
:1041D00083B1124A0821204609F0C1FFB1464FF0D1
:1041E000000833680E4A434506D80E4A0821204687
:1041F00009F0B5FF2435C4E759F8043F08212046EB
:1042000009F0ADFF08F10108EBE700BF87430108A3
:104210009143010878430108204A01089B430108A3
:10422000974301086F410108964301087E43010846
:104230002DE9F041144688460746102260680021A7
:1042400007F088FDB8F1020F064607D8254A20235B
:104250000821384609F083FF336816E00A2200215E
:10426000A06807F077FDC5B21E4A2B4608213846E4
:1042700009F075FFB8F1030F1AD1102D0CD0202DC5
:10428000EAD0082D0BD13378DBB2174A0821384623
:1042900009F065FF002009E033889BB2F5E7384656
:1042A000124A082109F05BFF6FF01500BDE8F081AC
:1042B000E0681022002107F04DFD0D4A0346044638
:1042C0000821384609F04BFF102D06D0202D07D0CD
:1042D000082DE4D1E4B23470DCE7A4B23480D9E72D
:1042E0003460D7E7D543010800440108EA430108D8
:1042F000114401082DE9F04F87B000230193524B80
:10430000DFF860A191460122074688461A6002F054
:10431000DDFD4FF0FF3520262C46494652464046EB
:1043200002F0F8FD411C06D16A1C41D147493846CC
:1043300009F03EFF17E073281AD0772828D06128AB
:1043400011D1DFF824B101AADBF80000102101F03F
:10435000B3F9019B0546002BDFD0DBF800203C4978
:10436000384609F025FF6FF0150007B0BDE8F08F63
:10437000DFF8F4B001AADBF80000002101F09CF99D
:10438000019B0446002BC8D0DBF800203149E7E749
:10439000DFF8D4B001AADBF80000002101F08CF9AD
:1043A000019B0646002BB8D0DBF800202A49D7E74E
:1043B000631C01D12949BAE75FFA86F8C6F3C4063F
:1043C000002C3FD002AB29461A46A6EB050C0CE0A8
:1043D000B8F1100F1DD0B8F1200F20D0B8F1080FA0
:1043E0002AD10878187031443344A64203D80CEB24
:1043F00001001028ECD9102CA14628BF4FF010095D
:1044000029464B46384601F02FF81035A4EB090435
:10441000D6E7088880B21870000A5870E3E7086889
:1044200018704FEA102E83F801E04FEA104E000E8C
:1044300083F802E0D870D6E7094A0821384609F027
:104440008EFE90E7204690E71002002066440108A7
:1044500025440108384401084B44010883440108FD
:10446000EA4301085F440108E81C002070B50F4EC4
:10447000044633780D4671B123B1BDE870400C4954
:1044800009F096BE012333700A49204609F074FEF4
:104490000123337004E083F001033370002BF3D168
:1044A00029462046BDE8704009F0DCBE8931002075
:1044B0009D440108D844010870B504463B48037880
:1044C000182B02D10B78112B31D0013A0B468D18E5
:1044D000AB4225D18B5C0A780370A2F13003092B23
:1044E000334C04D922F02003413B052B04D8236828
:1044F0003049CA54013323602368022B33D1102280
:104500002C48002107F026FC2B4A136803F8010B06
:1045100013602A4A1368013313600023236022E0EA
:1045200013F8016B182ED3D11E78112ED0D1234D44
:1045300023492A68204609F01FFE20460021FFF784
:1045400095FF204B187870B91F4A2B681168042B0F
:104550000ADC08B111602B6013F003010BD1126863
:1045600013681BBA136070BD086800BA41F8040BE9
:10457000043B0120EBE75B4203F0030358BF5942C1
:10458000022904D1126813885BBA9BB2EAE70329B7
:10459000E9D1106802681104C2F3074301F47F01F6
:1045A0000B4302F47F4213430360DCE78A310020AF
:1045B000301900208C3100203C19002034190020D3
:1045C000024501088B310020381900202DE9F84FF1
:1045D0000C462B49DFF8C080DFF8C090DFF8C0B090
:1045E00000230B60274988F8003006460B6015460B
:1045F000012C2F4655F804AF1ED9022249465046D9
:104600000CF016FE80B99AF80220003A18BF012279
:1046100092441D49022250460CF00AFE30B9012393
:1046200088F80030013CE3E70022F1E749465046B4
:10463000FBF728FEA8B9043700221146786807F076
:1046400089FB124B002211461860786807F082FB44
:104650000F4B104918603046FFF708FF0020BDE8F7
:10466000F88F9AF800202D2AE6D19AF80120002A26
:10467000E2D052465946304609F07EFDD2E700BFEF
:1046800030190020341900201F4501083C19002072
:1046900038190020B94400088B3100201C4501085E
:1046A0002245010807B50A480CF06AF960B1094AC9
:1046B00007491268084804230093012300F03AFFD9
:1046C000002003B05DF804FB6FF01200F9E700BFB3
:1046D00028190108D4240108D81E010810B544681F
:1046E000C4E90012A36042681346402153F8404BCE
:1046F00053625163002302F13801C2E90413C2E995
:104700000A33C2E90633082113631162C2F8B830D4
:10471000A36823B19B6C13B1044920469847A36852
:104720009B6A0BB120469847002010BD3147000816
:104730002DE9F34705460C4683685B6C03B1984747
:10474000AB685B6B73BB4FF0000904F1240704F105
:104750002808218E238D626B5B1A9BB2D31A934279
:1047600028BF1346414601AA384608F0DEFF8246BC
:10477000002844D0AB6801999B69002B33D00246D6
:1047800028469847064688B332464146384609F0DF
:1047900002F856454FF00109DBD0D4E90131002081
:1047A000984703E0284698470028CCD1AB685B6A5D
:1047B000002B37D1628BE38A9B1A226A9BB2934209
:1047C00004F1100704F11A0828BF1346414601AA54
:1047D000384608F0AAFF064658BB284609F03DFBBC
:1047E000C4F8B86031E06FF05706CDE702464146A5
:1047F000384608F0D0FFB9F1000FD7D0CDE7174801
:10480000036813F0060F03D0154A022109F0F0F8EF
:10481000AB689B69002BEED001220DF10301284605
:104820009847E8E7284698470028C3D102B0BDE87A
:10483000F087AB6801995B6963B1024628469847E7
:1048400002464146384608F0A6FFD4E9013101206E
:104850009847EBE76FF05702F3E700BFF402002040
:104860008946010810B581680446183101F0B6F98F
:10487000A168034A20461831BDE8104001F046B94E
:10488000CB46010838B58368D3F87832DB07044695
:104890001DD4C0690AF00BFA606803685B6898472A
:1048A000054620B9E0680AF0D0FBA3681D75A3682F
:1048B0005B6C13B1294620469847A3680CF0BAFEFA
:1048C0000022C3F82023034B185801F073FF6FF048
:1048D0000F05ECE708000000014909F05CBB00BFD0
:1048E0006F410108F7B504468068D0F878325A075E
:1048F0000D4605D5002109F076FBE0680AF077FB4C
:10490000E368DB6873B9002D3BD0A66806F1560753
:10491000384609F04DFB002835D0394606F5AB7016
:10492000FBF7BAFCA268E0680DF10603563229468F
:104930000AF060FB58B9A06800F5AB715630FBF780
:10494000ABFCA068563009F033FBADF806002046FA
:1049500009F07BFFA368D3F874329B0603D50B499B
:10496000606909F018FB204600F00CFFA268BDF852
:104970000630A2F85230A2682046A2F8503009F062
:10498000C9FE03B0F0BD86F85601CBE777200108D9
:104990002DE9F04FA7B004465422002111A80CF0D5
:1049A0001EFC0023CDE90533A3682046563302934D
:1049B00009F052FF204609F096FE10B96069FFF732
:1049C0008BFFA0681422002118300CF008FC204650
:1049D00009F02FFEA168E068B1F85020563100269A
:1049E0000AF03FFB20460AF0CEFB4FF0FF37B246FD
:1049F00003960DF14408B3463546B146DDE905326C
:104A0000012A6DD0132B6ED85FBBBBF1000F0AD00B
:104A100020460AF0D9FBA2681423563211A90DEBE7
:104A2000030009F085FCB9F1000F0CD099F81130A2
:104A3000FE2B08D1059B26AA02EB830252F8542CC8
:104A40000AB101330593A068059D436A002B40F02D
:104A5000B680CEB1C3699E422DD00D9600F11805E7
:104A600024E0029A0223414606A809F061FC069957
:104A7000D8F804200292034631B101290AD148B185
:104A80006D4A204609F09AFF6FF00705284627B0C7
:104A9000BDE8F08F059B002B34D0D8F8000001F062
:104AA000CFF898B166B1A5680D9618350CAE0FCE4B
:104AB0000FC533682B602046FFF7D4FE0125E5E7DC
:104AC0005E4A0121204609F079FFDDE7059BCBB165
:104AD000D8F800202946204601F054FA022809D1CE
:104AE000059B132B91D9069B022B8ED1544B554A13
:104AF0000121C6E7032805D0059B013305934FF03C
:104B0000010B7BE7039B33B9D8F8001007AA48468E
:104B100009F005FD054608F10408013F9DB3EB6867
:104B2000BBF1000F08D0F3B1204609F095FE2046F6
:104B300009F0F0FD444AC4E7ABB1A368DDF814A066
:104B4000AE4603F1180CBEE80F00ACE80F00DEF82B
:104B50000030CCF80030AB682BB96B7CFE2B04BF67
:104B60002F7C07F1FF37D5F804C0BCF1000F08D047
:104B7000AE46BEE80F000CAE0FC6DEF80030336064
:104B80006646A94603E0059B53B101230393069BA8
:104B900017B9022B7FF432AF059B013305932DE744
:104BA000A368DB6A13B1DB68002BEED1274B0093BF
:104BB000274A119B0121204609F000FFE5E790F804
:104BC0002830A5EB0A05BBB190F829104FF6FF720B
:104BD000FF2918BF0A469D4202D313449D420BD9B8
:104BE00083691C4A0121204609F0E8FE2046FFF7B0
:104BF00039FE6FF0150549E7012109F0E9F9A068D0
:104C000000F5437009F008FAA36811AA294602EBDF
:104C10008A025B6A204698470546A0684FF0FF323B
:104C20004FF0FF3300F5437009F09DF9A0680021B3
:104C300009F0CEF92AE700BFD9460108ED46010880
:104C40004E470108073201080B4701083A4701089F
:104C5000494A01087247010810B5836802221A7593
:104C600083689B6C0446BBB909F054F98368D3F898
:104C70007832DB040BD50321084B094A09F09EFE6C
:104C8000A0686FF4805100F51E7009F05DF92046B0
:104C9000BDE8104000F0FCBE10BD00BF8D4701080C
:104CA000984301082DE9F04F04468068B1B0012116
:104CB00000F51E7009F039F9A3681B7D022B20D185
:104CC00000230993A36860689E6C03681D6909ABA3
:104CD0000EB310221BA9A847099B93B1A06801211C
:104CE00009F076F9099A1BA92046B047A06800216F
:104CF00009F06EF9A3689B6C002BE3D12046FFF707
:104D0000ABFFA0686FF0010100F51E7031B0BDE887
:104D1000F04F09F019B901220DF12301A847099BB1
:104D2000002BEED09DF923209DF82330A068002AA7
:104D3000C8DB427D032A00F2F482DFE812F00400AF
:104D400075028C02F2020D2B67D00A2B43D0B0F80B
:104D50007822092B6FF3CA02A0F8782272D029D8E2
:104D6000002B00F00381082BA06800F0E9810246C7
:104D7000D2F87412890740F1F980013B162B00F23A
:104D8000F580DFE813F0B702FA01FE01F601B10287
:104D90001002F300F300F300F30014021802F30012
:104DA0002D02F3003202F300F300F300F3003402AB
:104DB000F30049021B2BA06841D07F2B00F0CC816F
:104DC000A3F120015E290246D2D8012109F00BF996
:104DD0009DF82310B8E0D0F87822C2F3C7022AB1B8
:104DE000D0F87822C2F3C7020A2AC0D1B0F87822DC
:104DF00063F3CA02A0F87822A568B5F85010C1B9CB
:104E0000284609F0F0F8E0680AF0F1F86069FFF769
:104E100063FD2046FFF720FF54E7D0F87822C2F365
:104E2000C702002AE2D0D0F87822C2F3C7020D2AC6
:104E3000DBE72046FFF7ACFDC5F82403E9E70123D3
:104E4000437593E0A068D0F874329B0740F18E80E0
:104E5000012109F0C8F8A068B0F85030FF2B00F02D
:104E60008580B0F8522000F1560100F5AB700CF0CF
:104E70008EF9A368B3F852201344002583F85651E5
:104E8000A2681BA9142302F5AB720BA809F050FA13
:104E90000B9914296AD830AB03EB810343F8545CB7
:104EA000A368B3F85220002A52D0134493F8553027
:104EB000202B02D0093B042B4AD800294BD10025D6
:104EC0000A950A9B30AA02EB8303002653F854ACE0
:104ED000504609F06DF8B3468146B046374616AAEB
:104EE0003946284600F0AEFB0346002842D1012E89
:104EF00068D10A9B30AA02EB830353F8540C09F0E3
:104F000057F8A268064618324146284600F09AFB38
:104F10000568284609F04CF8864205D0821B92B2FB
:104F2000A919204609F091FDA068B0F85230034459
:104F300093F85630202B34D0093B042B31D9D0F8CC
:104F40007432DF0732D42021204600F069FD0DE0E5
:104F50000129B4D9013900200CAB009301900AABB0
:104F60001BAA09F007FB05460028AAD1606909F0D1
:104F70007FF9A7E61B6803934A46514618460CF092
:104F800057F960B9039B1846FBF78EF9584538BFAF
:104F900058461FFA80FB002E08BFB846013601377D
:104FA0009DE70121204609F0E9FBDFE7002109F038
:104FB00024F82021204600F033FDA068012109F0EB
:104FC0001CF8D3E70490D1D90A9A30AB03EB8202E4
:104FD000C14652F8543C0393184608F0E9FFA26812
:104FE000049B0590A2F840300496A2684946183206
:104FF000284600F027FB039BD0F800A009F1010927
:105000004BB1BAF1000F06D0059A194650460CF084
:105010000FF90028E9D1A168BAF1000F4ED1A1F82B
:1050200040A0049B013B0493DFD16069FFF754FC6F
:10503000204600F02DFD0A9B30AA02EB830308F105
:10504000010A53F8540C08F0B3FF414611AA8146F7
:10505000284600F0F7FA0746A0683968FF2200F5F5
:10506000AB700CF0F7F83B6803934FF6FF77B84648
:1050700016AA514628460AF1010B00F0E3FA00286F
:1050800052D0A168036801F25511002211F801EF16
:10509000985C704503D110B101324245F6D1B9F1A7
:1050A000000F01D04A4507DBBA4206F1FF36A8BF20
:1050B0003A46012E97B237D0DA46D9E79A48069198
:1050C00008F076FF069907914A8F00EB0B07BFB2F5
:1050D000121A504692FBF7F292B2069208F068FF5D
:1050E0000799069A3F1AB1F8400000F1010CA1F8A7
:1050F00040C0B0FBF2F102FB110080B2BFB260B958
:10510000894B8A4ACDF800A00621204609F056FCBA
:105110003946204600F020FB83E7854A53460621A6
:10512000204609F04BFCF3E7002F3FF41FAF039933
:10513000A7EB090292B24944204609F086FC15E724
:10514000D0F874329E077FF511AF012108F04BFFB4
:10515000204609F09BFC09E7D0F874329D077FF5E3
:1051600005AF012108F03FFFA368D3F87432180798
:10517000EED4204609F06BFCF8E6204609F075FBFA
:10518000F4E6204609F068FB204609F0ACFA10B9B5
:105190006069FFF7A1FBA068012108F024FF204609
:1051A000FFF75AFDE2E6204609F068FBDEE62046FE
:1051B00009F06FFBDAE6D2F874329F0603D55D4939
:1051C000606908F0E8FEA368D3F874329E0603D540
:1051D0005949606908F0DFFE204600F059FCC5E639
:1051E00000212046FFF77EFBC0E60121F9E72046BB
:1051F00009F02BFB204608F08DFE0121A06808F085
:10520000F2FEA368D3F874329D067FF5AFAE4B492A
:10521000606908F0C0FEA9E6204600F02DFBA068FA
:10522000012108F0E0FEA1E65B2B01D1022307E695
:10523000D0F87422900706D5622B08D14FF0FF31C9
:10524000204609F0C4FAA36800225A758EE6662B40
:10525000F9D10121F4E700224275A268D2F8741254
:1052600089077FF52FAD313B1B2B3FF67FAE01A1A8
:1052700051F823F0F1520008FD52000811530008C4
:10528000E55200086D4F00086D4F00086D4F000893
:105290006D4F00086D4F00086D4F00086D4F0008FE
:1052A0006D4F00086D4F00086D4F00086D4F0008EE
:1052B0006D4F0008EB510008E1510008A7510008AC
:1052C0007B5100086D4F0008E95200086D4F00083F
:1052D000F55200086D4F00086D4F00086D4F000833
:1052E0000153000803235375204609F0B5FA3DE643
:1052F00003235375204609F0A8FA37E603235375B4
:10530000A068D0F8741201F0010181F0010156E6A5
:1053100003235375A368D3F874329B077FF526AE39
:1053200027E700238CE500BF41390108D147010878
:10533000984301087C20010881200108772001089A
:105340002DE9F04104468068154600F51E700029DD
:1053500037D04FF4804108F0E8FDA368DD64606851
:10536000036800219B689847002851D1204608F027
:1053700079FE00284CD1274E274FDFF8A480A06883
:1053800000F52F704FF0FF324FF0FF33032106F08E
:10539000F7F90546A068CDB141F28832002300F547
:1053A000437008F0E0FD98BB20462B461B4A0121C4
:1053B00009F004FBA068BDE8F04100F5437008F077
:1053C0002BBE6FF4804108F0BFFDC6E74FF0FF33FE
:1053D0004FF0FF3200F5437008F0C5FD3246022160
:1053E000204608F0C2FD3A462946204608F0BDFD99
:1053F00020464246012108F0B8FD606803685B69F9
:1054000003B19847A06800F5437008F005FEB6E7C1
:10541000BDE8F08185480008A54C0008D747010881
:105420001DE0000810B50B49044608F0A5FE204613
:10543000094908F0A1FE2046084908F09DFE2046D3
:10544000074908F099FE2046064A002100F05EFB5D
:10545000002010BDEE4701082C4801088B480108C8
:10546000DF48010879490108F8B517461E460A4683
:105470002949044608F080FE3EB33A782749204681
:1054800008F07AFE01256A0703D12549204608F075
:1054900073FEAE421ED97A5D2049204608F06CFEAC
:1054A0000135102DEFD11F49204608F065FEB6B931
:1054B0001B49204608F060FE0125AE422B4610D85D
:1054C0001749204608F058FE15E01749204608F015
:1054D00053FE01251449204608F04EFEE0E7002562
:1054E0002B46FA5C1149A2F120035F2B28BF2E2224
:1054F000204608F041FE0135102D06D06B07DCD1A7
:105500000749204608F038FED7E720460849BDE89D
:10551000F84008F031BE00BF8F4901083A39010850
:10552000423901084439010840390108B6490108E7
:10553000964901082DE9F043044680688846D0F872
:10554000201389B015461F46002960D14FF44A72D6
:105550000BF045FEE06809F0FCFDA06800F5437023
:105560000BF04FFA4FF42F794FF41F76A0683044B8
:105570000BF0B5FDA06800228319012148441036C4
:105580000BF07FFDB6F52F7F09F11409EED1A36969
:1055900000261E60A068022100F51E7008F0C5FC00
:1055A000A36850225A87A36818221A8721682046C8
:1055B00008F00CFEA368174A66F38205C3F874521C
:1055C0006068036841461D682346A8470546D0B970
:1055D000A36801221A75D4E90A0100220023CDE94B
:1055E00006230E230393109B0495CDE901730094C9
:1055F000094B4FF4006205F077F9A368C3F8200364
:10560000616A05F095F8284609B0BDE8F0836FF0AF
:105610007705F8E7BDDF00084153000810B50446E0
:1056200013460A460146064801F00EFC23691B7921
:1056300023B12046BDE8104008F01ABE10BD00BFDF
:1056400089E2000838B50B46154648B91449154A91
:10565000521AB3EB920F05D251F82350284638BDA9
:1056600084680CB90025F9E70F4A94420AD30F4A1F
:10567000944207D218462268294690472B68002B8F
:10568000ECD1EFE70A4A944202D30A4A944205D386
:10569000246814225343E518E358F0E70133F8E790
:1056A000081F0108441F01085C2001085C20010854
:1056B000441F01085C200108F7B503782D2B044630
:1056C000164605D16FF015033360002003B0F0BD1E
:1056D0000BF0B0FF0B4F00230546C3510A4620468E
:1056E00001A906F037FBEB59222B02D16FF0210301
:1056F000EAE7002BE6D1019BA342E3D01B78002B05
:10570000E4D0DFE70C0000008368D3F874329B0616
:1057100003D50249406908F0C7BF704787200108D8
:10572000014908F0C1BF00BF6F4101080A1E0DDC2E
:105730000ED042238168D1F87412890608D5002A58
:1057400004494069B8BF524208F0AEBF4123F1E7B7
:10575000704700BFB24901080A1E0DDC0ED0442379
:105760008168D1F87412890608D5002A0449406975
:10577000B8BF524208F098BF4323F1E7704700BF1B
:10578000B24901082DE9F0478568DFF86C900446BE
:1057900005F15600FAF788FD002395F83C7086B2B3
:1057A0009846A268558FED1BB54209DB002E1FDD20
:1057B000563360690F49BDE8F0471A4408F074BFDA
:1057C0001D442A44563392F856A082F85680A268A7
:1057D00060691A44494608F067FFA3682B4483F8C0
:1057E00056A0A3685B8FDB1BF61A00272B46D8E771
:1057F000BDE8F087984301080732010808290A46E6
:1058000017D8836893F83E10914212D083F83E2057
:105810008368082AD3F8743205D0990609D505495A
:10582000406908F041BF9B0603D50349406908F071
:105830003BBF7047B94901088C20010838B50D46B7
:1058400009780446FFF7DAFF6A78072A11D8A368B7
:1058500093F83F1091420CD083F83F20A368D3F80F
:1058600074329B0605D560690249BDE8384008F0EE
:105870001BBF38BDC2490108F8B58368B3F8502092
:105880000446002A55D0B3F85210002951D05531A2
:1058900003F156050B441846A84206D3014611F8F9
:1058A0000169202E3CD0A8423CD286B29DB2AB1BEF
:1058B0009BB2591C471CD21A014438460BF075FCA8
:1058C000A268B2F85030711B13FA81F3A2F850307D
:1058D000A368B3F850201344002283F8562009B27D
:1058E000204608F04BFFA368D3F874329A0603D51C
:1058F0001049606908F0D8FE3B460F4A082120464F
:1059000009F05CF82046FFF7FFFEA368D3F8743275
:105910009B060ED560690949BDE8F84008F0C4BE91
:105920000846B9E7014611F80169202EBDD00846A6
:10593000B9E7F8BD912001089843010895200108B6
:105940002DE9F84F04460F4690460AB1FFF7DCFEFA
:10595000A668D6F87432B6F852505B0724D505F124
:1059600056003044FAF7A0FC2A4E0546B5B9A368A4
:10597000B3F85020A3F85220A06808F0A2FE30B17E
:10598000B8F1000F00D017B16069FFF7C9FE794286
:10599000204609B2BDE8F84F08F0F0BE6069314614
:1059A00008F082FE013DE1E73046FAF77DFCB6F8EB
:1059B0005090738F19FA80F915FA80F0B0FBF3F26A
:1059C000B9FBF3F39A42AA461BD0134DA36848458E
:1059D000CDDA5A8FB0FBF2F302FB1303461C13B966
:1059E0006069FFF79DFEA3685344204693F8563044
:1059F0000AF1010B2A46082108F0E0FFDA4630469A
:105A0000E4E75635054A73190821204608F0D6FF09
:105A1000ADE700BFF0530108B649010898430108FB
:105A200013B583688DF80710D3F874220446D007A5
:105A300025D5B3F85210B3F850208A421FD0481C25
:105A4000A3F852000B449DF8072083F85620A36862
:105A5000D3F87412890710D5D3F8743260690B49F2
:105A600013F0040F18BF2A2208F01EFE204608F08B
:105A70003AFE10B16069FFF753FE02B010BD01227B
:105A80000DF10701204608F0A6FFF6E7B649010828
:105A900010B504468368094A022108F08FFFA36805
:105AA000D3F874329B0707D52046FFF76BFE2046DC
:105AB000BDE8104008F03DBE10BD00BF984301088E
:105AC000014909F06AB900BF6F410108F8B50F46F6
:105AD0005168044615461E4611B11A4609F06AF986
